{
  "contractName": "Collectible",
  "abi": [
    {
      "inputs": [
        {
          "internalType": "string",
          "name": "_name",
          "type": "string"
        },
        {
          "internalType": "string",
          "name": "_symbol",
          "type": "string"
        },
        {
          "internalType": "uint256",
          "name": "_commission",
          "type": "uint256"
        }
      ],
      "stateMutability": "nonpayable",
      "type": "constructor"
    },
    {
      "anonymous": false,
      "inputs": [
        {
          "indexed": true,
          "internalType": "address",
          "name": "owner",
          "type": "address"
        },
        {
          "indexed": true,
          "internalType": "address",
          "name": "approved",
          "type": "address"
        },
        {
          "indexed": true,
          "internalType": "uint256",
          "name": "tokenId",
          "type": "uint256"
        }
      ],
      "name": "Approval",
      "type": "event"
    },
    {
      "anonymous": false,
      "inputs": [
        {
          "indexed": true,
          "internalType": "address",
          "name": "owner",
          "type": "address"
        },
        {
          "indexed": true,
          "internalType": "address",
          "name": "operator",
          "type": "address"
        },
        {
          "indexed": false,
          "internalType": "bool",
          "name": "approved",
          "type": "bool"
        }
      ],
      "name": "ApprovalForAll",
      "type": "event"
    },
    {
      "anonymous": false,
      "inputs": [
        {
          "indexed": true,
          "internalType": "address",
          "name": "from",
          "type": "address"
        },
        {
          "indexed": true,
          "internalType": "address",
          "name": "to",
          "type": "address"
        },
        {
          "indexed": true,
          "internalType": "uint256",
          "name": "tokenId",
          "type": "uint256"
        }
      ],
      "name": "Transfer",
      "type": "event"
    },
    {
      "inputs": [],
      "name": "_tokenIds",
      "outputs": [
        {
          "internalType": "uint256",
          "name": "_value",
          "type": "uint256"
        }
      ],
      "stateMutability": "view",
      "type": "function",
      "constant": true
    },
    {
      "inputs": [
        {
          "internalType": "uint256",
          "name": "",
          "type": "uint256"
        }
      ],
      "name": "activities",
      "outputs": [
        {
          "internalType": "address",
          "name": "_address",
          "type": "address"
        },
        {
          "internalType": "uint256",
          "name": "_id",
          "type": "uint256"
        },
        {
          "internalType": "uint256",
          "name": "_time",
          "type": "uint256"
        },
        {
          "internalType": "string",
          "name": "_status",
          "type": "string"
        }
      ],
      "stateMutability": "view",
      "type": "function",
      "constant": true
    },
    {
      "inputs": [
        {
          "internalType": "address",
          "name": "to",
          "type": "address"
        },
        {
          "internalType": "uint256",
          "name": "tokenId",
          "type": "uint256"
        }
      ],
      "name": "approve",
      "outputs": [],
      "stateMutability": "nonpayable",
      "type": "function"
    },
    {
      "inputs": [
        {
          "internalType": "address",
          "name": "owner",
          "type": "address"
        }
      ],
      "name": "balanceOf",
      "outputs": [
        {
          "internalType": "uint256",
          "name": "",
          "type": "uint256"
        }
      ],
      "stateMutability": "view",
      "type": "function",
      "constant": true
    },
    {
      "inputs": [
        {
          "internalType": "uint256",
          "name": "",
          "type": "uint256"
        }
      ],
      "name": "blocked_videos",
      "outputs": [
        {
          "internalType": "bool",
          "name": "",
          "type": "bool"
        }
      ],
      "stateMutability": "view",
      "type": "function",
      "constant": true
    },
    {
      "inputs": [],
      "name": "commission",
      "outputs": [
        {
          "internalType": "uint256",
          "name": "",
          "type": "uint256"
        }
      ],
      "stateMutability": "view",
      "type": "function",
      "constant": true
    },
    {
      "inputs": [
        {
          "internalType": "uint256",
          "name": "tokenId",
          "type": "uint256"
        }
      ],
      "name": "getApproved",
      "outputs": [
        {
          "internalType": "address",
          "name": "",
          "type": "address"
        }
      ],
      "stateMutability": "view",
      "type": "function",
      "constant": true
    },
    {
      "inputs": [
        {
          "internalType": "address",
          "name": "owner",
          "type": "address"
        },
        {
          "internalType": "address",
          "name": "operator",
          "type": "address"
        }
      ],
      "name": "isApprovedForAll",
      "outputs": [
        {
          "internalType": "bool",
          "name": "",
          "type": "bool"
        }
      ],
      "stateMutability": "view",
      "type": "function",
      "constant": true
    },
    {
      "inputs": [],
      "name": "name",
      "outputs": [
        {
          "internalType": "string",
          "name": "",
          "type": "string"
        }
      ],
      "stateMutability": "view",
      "type": "function",
      "constant": true
    },
    {
      "inputs": [],
      "name": "owner",
      "outputs": [
        {
          "internalType": "address",
          "name": "",
          "type": "address"
        }
      ],
      "stateMutability": "view",
      "type": "function",
      "constant": true
    },
    {
      "inputs": [
        {
          "internalType": "uint256",
          "name": "tokenId",
          "type": "uint256"
        }
      ],
      "name": "ownerOf",
      "outputs": [
        {
          "internalType": "address",
          "name": "",
          "type": "address"
        }
      ],
      "stateMutability": "view",
      "type": "function",
      "constant": true
    },
    {
      "inputs": [
        {
          "internalType": "address",
          "name": "from",
          "type": "address"
        },
        {
          "internalType": "address",
          "name": "to",
          "type": "address"
        },
        {
          "internalType": "uint256",
          "name": "tokenId",
          "type": "uint256"
        }
      ],
      "name": "safeTransferFrom",
      "outputs": [],
      "stateMutability": "nonpayable",
      "type": "function"
    },
    {
      "inputs": [
        {
          "internalType": "address",
          "name": "from",
          "type": "address"
        },
        {
          "internalType": "address",
          "name": "to",
          "type": "address"
        },
        {
          "internalType": "uint256",
          "name": "tokenId",
          "type": "uint256"
        },
        {
          "internalType": "bytes",
          "name": "data",
          "type": "bytes"
        }
      ],
      "name": "safeTransferFrom",
      "outputs": [],
      "stateMutability": "nonpayable",
      "type": "function"
    },
    {
      "inputs": [
        {
          "internalType": "address",
          "name": "operator",
          "type": "address"
        },
        {
          "internalType": "bool",
          "name": "approved",
          "type": "bool"
        }
      ],
      "name": "setApprovalForAll",
      "outputs": [],
      "stateMutability": "nonpayable",
      "type": "function"
    },
    {
      "inputs": [
        {
          "internalType": "uint256",
          "name": "",
          "type": "uint256"
        },
        {
          "internalType": "uint256",
          "name": "",
          "type": "uint256"
        }
      ],
      "name": "subscribers",
      "outputs": [
        {
          "internalType": "address",
          "name": "_address",
          "type": "address"
        }
      ],
      "stateMutability": "view",
      "type": "function",
      "constant": true
    },
    {
      "inputs": [],
      "name": "symbol",
      "outputs": [
        {
          "internalType": "string",
          "name": "",
          "type": "string"
        }
      ],
      "stateMutability": "view",
      "type": "function",
      "constant": true
    },
    {
      "inputs": [
        {
          "internalType": "uint256",
          "name": "index",
          "type": "uint256"
        }
      ],
      "name": "tokenByIndex",
      "outputs": [
        {
          "internalType": "uint256",
          "name": "",
          "type": "uint256"
        }
      ],
      "stateMutability": "view",
      "type": "function",
      "constant": true
    },
    {
      "inputs": [
        {
          "internalType": "address",
          "name": "owner",
          "type": "address"
        },
        {
          "internalType": "uint256",
          "name": "index",
          "type": "uint256"
        }
      ],
      "name": "tokenOfOwnerByIndex",
      "outputs": [
        {
          "internalType": "uint256",
          "name": "",
          "type": "uint256"
        }
      ],
      "stateMutability": "view",
      "type": "function",
      "constant": true
    },
    {
      "inputs": [],
      "name": "totalSupply",
      "outputs": [
        {
          "internalType": "uint256",
          "name": "",
          "type": "uint256"
        }
      ],
      "stateMutability": "view",
      "type": "function",
      "constant": true
    },
    {
      "inputs": [
        {
          "internalType": "address",
          "name": "from",
          "type": "address"
        },
        {
          "internalType": "address",
          "name": "to",
          "type": "address"
        },
        {
          "internalType": "uint256",
          "name": "tokenId",
          "type": "uint256"
        }
      ],
      "name": "transferFrom",
      "outputs": [],
      "stateMutability": "nonpayable",
      "type": "function"
    },
    {
      "inputs": [
        {
          "internalType": "uint256",
          "name": "",
          "type": "uint256"
        }
      ],
      "name": "videos",
      "outputs": [
        {
          "internalType": "uint256",
          "name": "_id",
          "type": "uint256"
        },
        {
          "components": [
            {
              "internalType": "string",
              "name": "name",
              "type": "string"
            },
            {
              "internalType": "string",
              "name": "description",
              "type": "string"
            },
            {
              "internalType": "string",
              "name": "category",
              "type": "string"
            },
            {
              "internalType": "string",
              "name": "genre",
              "type": "string"
            },
            {
              "internalType": "string",
              "name": "_type",
              "type": "string"
            },
            {
              "internalType": "string",
              "name": "_url",
              "type": "string"
            },
            {
              "internalType": "string",
              "name": "preview",
              "type": "string"
            },
            {
              "internalType": "string",
              "name": "poster",
              "type": "string"
            },
            {
              "internalType": "uint256",
              "name": "_duration",
              "type": "uint256"
            }
          ],
          "internalType": "struct DataShare.MetaData",
          "name": "metData",
          "type": "tuple"
        },
        {
          "internalType": "uint256",
          "name": "_price",
          "type": "uint256"
        },
        {
          "internalType": "address",
          "name": "_creator",
          "type": "address"
        },
        {
          "internalType": "uint256",
          "name": "_commission",
          "type": "uint256"
        },
        {
          "internalType": "bool",
          "name": "approved",
          "type": "bool"
        },
        {
          "internalType": "uint256",
          "name": "_time",
          "type": "uint256"
        }
      ],
      "stateMutability": "view",
      "type": "function",
      "constant": true
    },
    {
      "inputs": [
        {
          "internalType": "bytes4",
          "name": "_interface",
          "type": "bytes4"
        }
      ],
      "name": "supportsInterface",
      "outputs": [
        {
          "internalType": "bool",
          "name": "",
          "type": "bool"
        }
      ],
      "stateMutability": "view",
      "type": "function",
      "constant": true
    },
    {
      "inputs": [
        {
          "internalType": "uint256",
          "name": "tokenId",
          "type": "uint256"
        }
      ],
      "name": "tokenURI",
      "outputs": [
        {
          "internalType": "string",
          "name": "",
          "type": "string"
        }
      ],
      "stateMutability": "view",
      "type": "function",
      "constant": true
    },
    {
      "inputs": [
        {
          "components": [
            {
              "internalType": "string",
              "name": "name",
              "type": "string"
            },
            {
              "internalType": "string",
              "name": "description",
              "type": "string"
            },
            {
              "internalType": "string",
              "name": "category",
              "type": "string"
            },
            {
              "internalType": "string",
              "name": "genre",
              "type": "string"
            },
            {
              "internalType": "string",
              "name": "_type",
              "type": "string"
            },
            {
              "internalType": "string",
              "name": "_url",
              "type": "string"
            },
            {
              "internalType": "string",
              "name": "preview",
              "type": "string"
            },
            {
              "internalType": "string",
              "name": "poster",
              "type": "string"
            },
            {
              "internalType": "uint256",
              "name": "_duration",
              "type": "uint256"
            }
          ],
          "internalType": "struct DataShare.MetaData",
          "name": "_metaData",
          "type": "tuple"
        },
        {
          "internalType": "uint256",
          "name": "_price",
          "type": "uint256"
        }
      ],
      "name": "MintToken",
      "outputs": [
        {
          "internalType": "bool",
          "name": "",
          "type": "bool"
        }
      ],
      "stateMutability": "nonpayable",
      "type": "function"
    },
    {
      "inputs": [
        {
          "internalType": "uint256",
          "name": "_id",
          "type": "uint256"
        }
      ],
      "name": "getSubscribers",
      "outputs": [
        {
          "components": [
            {
              "internalType": "address",
              "name": "_address",
              "type": "address"
            }
          ],
          "internalType": "struct Collectible.User[]",
          "name": "_subscribers",
          "type": "tuple[]"
        }
      ],
      "stateMutability": "view",
      "type": "function",
      "constant": true
    },
    {
      "inputs": [
        {
          "internalType": "uint256",
          "name": "_id",
          "type": "uint256"
        },
        {
          "internalType": "address",
          "name": "_address",
          "type": "address"
        }
      ],
      "name": "setSubscriber",
      "outputs": [],
      "stateMutability": "nonpayable",
      "type": "function"
    },
    {
      "inputs": [],
      "name": "getVideos",
      "outputs": [
        {
          "components": [
            {
              "internalType": "uint256",
              "name": "_id",
              "type": "uint256"
            },
            {
              "components": [
                {
                  "internalType": "string",
                  "name": "name",
                  "type": "string"
                },
                {
                  "internalType": "string",
                  "name": "description",
                  "type": "string"
                },
                {
                  "internalType": "string",
                  "name": "category",
                  "type": "string"
                },
                {
                  "internalType": "string",
                  "name": "genre",
                  "type": "string"
                },
                {
                  "internalType": "string",
                  "name": "_type",
                  "type": "string"
                },
                {
                  "internalType": "string",
                  "name": "_url",
                  "type": "string"
                },
                {
                  "internalType": "string",
                  "name": "preview",
                  "type": "string"
                },
                {
                  "internalType": "string",
                  "name": "poster",
                  "type": "string"
                },
                {
                  "internalType": "uint256",
                  "name": "_duration",
                  "type": "uint256"
                }
              ],
              "internalType": "struct DataShare.MetaData",
              "name": "metData",
              "type": "tuple"
            },
            {
              "internalType": "uint256",
              "name": "_price",
              "type": "uint256"
            },
            {
              "internalType": "address",
              "name": "_creator",
              "type": "address"
            },
            {
              "internalType": "uint256",
              "name": "_commission",
              "type": "uint256"
            },
            {
              "internalType": "bool",
              "name": "approved",
              "type": "bool"
            },
            {
              "internalType": "uint256",
              "name": "_time",
              "type": "uint256"
            }
          ],
          "internalType": "struct DataShare.Video[]",
          "name": "_videos",
          "type": "tuple[]"
        }
      ],
      "stateMutability": "view",
      "type": "function",
      "constant": true
    },
    {
      "inputs": [
        {
          "internalType": "uint256[]",
          "name": "_ids",
          "type": "uint256[]"
        }
      ],
      "name": "approveMint",
      "outputs": [],
      "stateMutability": "nonpayable",
      "type": "function"
    },
    {
      "inputs": [
        {
          "internalType": "uint256[]",
          "name": "_ids",
          "type": "uint256[]"
        }
      ],
      "name": "blockVideos",
      "outputs": [],
      "stateMutability": "nonpayable",
      "type": "function"
    },
    {
      "inputs": [
        {
          "internalType": "address",
          "name": "_address",
          "type": "address"
        },
        {
          "internalType": "uint256",
          "name": "_id",
          "type": "uint256"
        },
        {
          "internalType": "string",
          "name": "_status",
          "type": "string"
        }
      ],
      "name": "setActivity",
      "outputs": [],
      "stateMutability": "nonpayable",
      "type": "function"
    },
    {
      "inputs": [],
      "name": "get_activities",
      "outputs": [
        {
          "components": [
            {
              "internalType": "address",
              "name": "_address",
              "type": "address"
            },
            {
              "internalType": "uint256",
              "name": "_id",
              "type": "uint256"
            },
            {
              "internalType": "uint256",
              "name": "_time",
              "type": "uint256"
            },
            {
              "internalType": "string",
              "name": "_status",
              "type": "string"
            }
          ],
          "internalType": "struct DataShare.Activity[]",
          "name": "_activities",
          "type": "tuple[]"
        }
      ],
      "stateMutability": "view",
      "type": "function",
      "constant": true
    },
    {
      "inputs": [],
      "name": "connectWalletHandler",
      "outputs": [],
      "stateMutability": "nonpayable",
      "type": "function"
    }
  ],
  "bytecode": "0x60806040523480156200001157600080fd5b50604051620062eb380380620062eb8339818101604052810190620000379190620002b5565b828281600090816200004a919062000590565b5080600190816200005c919062000590565b50505080600b8190555033600a60006101000a81548173ffffffffffffffffffffffffffffffffffffffff021916908373ffffffffffffffffffffffffffffffffffffffff16021790555060016013604051620000b990620006d2565b908152602001604051809103902060006101000a81548160ff021916908315150217905550505050620006e9565b6000604051905090565b600080fd5b600080fd5b600080fd5b600080fd5b6000601f19601f8301169050919050565b7f4e487b7100000000000000000000000000000000000000000000000000000000600052604160045260246000fd5b620001508262000105565b810181811067ffffffffffffffff8211171562000172576200017162000116565b5b80604052505050565b600062000187620000e7565b905062000195828262000145565b919050565b600067ffffffffffffffff821115620001b857620001b762000116565b5b620001c38262000105565b9050602081019050919050565b60005b83811015620001f0578082015181840152602081019050620001d3565b60008484015250505050565b6000620002136200020d846200019a565b6200017b565b90508281526020810184848401111562000232576200023162000100565b5b6200023f848285620001d0565b509392505050565b600082601f8301126200025f576200025e620000fb565b5b815162000271848260208601620001fc565b91505092915050565b6000819050919050565b6200028f816200027a565b81146200029b57600080fd5b50565b600081519050620002af8162000284565b92915050565b600080600060608486031215620002d157620002d0620000f1565b5b600084015167ffffffffffffffff811115620002f257620002f1620000f6565b5b620003008682870162000247565b935050602084015167ffffffffffffffff811115620003245762000323620000f6565b5b620003328682870162000247565b925050604062000345868287016200029e565b9150509250925092565b600081519050919050565b7f4e487b7100000000000000000000000000000000000000000000000000000000600052602260045260246000fd5b60006002820490506001821680620003a257607f821691505b602082108103620003b857620003b76200035a565b5b50919050565b60008190508160005260206000209050919050565b60006020601f8301049050919050565b600082821b905092915050565b600060088302620004227fffffffffffffffffffffffffffffffffffffffffffffffffffffffffffffffff82620003e3565b6200042e8683620003e3565b95508019841693508086168417925050509392505050565b6000819050919050565b6000620004716200046b62000465846200027a565b62000446565b6200027a565b9050919050565b6000819050919050565b6200048d8362000450565b620004a56200049c8262000478565b848454620003f0565b825550505050565b600090565b620004bc620004ad565b620004c981848462000482565b505050565b5b81811015620004f157620004e5600082620004b2565b600181019050620004cf565b5050565b601f82111562000540576200050a81620003be565b6200051584620003d3565b8101602085101562000525578190505b6200053d6200053485620003d3565b830182620004ce565b50505b505050565b600082821c905092915050565b6000620005656000198460080262000545565b1980831691505092915050565b600062000580838362000552565b9150826002028217905092915050565b6200059b826200034f565b67ffffffffffffffff811115620005b757620005b662000116565b5b620005c3825462000389565b620005d0828285620004f5565b600060209050601f831160018114620006085760008415620005f3578287015190505b620005ff858262000572565b8655506200066f565b601f1984166200061886620003be565b60005b8281101562000642578489015182556001820191506020850194506020810190506200061b565b868310156200066257848901516200065e601f89168262000552565b8355505b6001600288020188555050505b505050505050565b600081905092915050565b7f6f527034636648586650546a2b4d4e73614c74454937497948416f3d00000000600082015250565b6000620006ba601c8362000677565b9150620006c78262000682565b601c82019050919050565b6000620006df82620006ab565b9150819050919050565b615bf280620006f96000396000f3fe608060405234801561001057600080fd5b50600436106101f05760003560e01c80636352211e1161010f578063ba686fdb116100a2578063e148919111610071578063e1489191146105f2578063e6821bf514610610578063e985e9c514610646578063ea1a341514610676576101f0565b8063ba686fdb1461055a578063c87b56dd14610576578063d3dcefa1146105a6578063de60fa49146105d6576101f0565b806395d89b41116100de57806395d89b41146104e6578063a22cb46514610504578063aa46a40014610520578063b88d4fde1461053e576101f0565b80636352211e1461044a57806368f2d1651461047a57806370a08231146104985780638da5cb5b146104c8576101f0565b80632f745c591161018757806342842e0e1161015657806342842e0e146103d857806349ca72e9146103f45780634f6ccce7146103fe57806353d84e1c1461042e576101f0565b80632f745c591461031857806331d04a97146103485780633b605815146103785780633f5ccada146103a8576101f0565b8063095ea7b3116101c3578063095ea7b31461028f5780630d1657e8146102ab57806318160ddd146102de57806323b872dd146102fc576101f0565b806301ffc9a7146101f5578063029efebb1461022557806306fdde0314610241578063081812fc1461025f575b600080fd5b61020f600480360381019061020a9190613c33565b610694565b60405161021c9190613c7b565b60405180910390f35b61023f600480360381019061023a9190613e25565b6106a6565b005b610249610851565b6040516102569190613eed565b60405180910390f35b61027960048036038101906102749190613f0f565b6108e3565b6040516102869190613f7d565b60405180910390f35b6102a960048036038101906102a49190613fc4565b610929565b005b6102c560048036038101906102c09190613f0f565b610a40565b6040516102d59493929190614013565b60405180910390f35b6102e6610b28565b6040516102f3919061405f565b60405180910390f35b6103166004803603810190610311919061407a565b610b35565b005b610332600480360381019061032d9190613fc4565b610b95565b60405161033f919061405f565b60405180910390f35b610362600480360381019061035d9190613f0f565b610c3a565b60405161036f9190613c7b565b60405180910390f35b610392600480360381019061038d9190613f0f565b610c5a565b60405161039f91906141a7565b60405180910390f35b6103c260048036038101906103bd91906141c9565b610db0565b6040516103cf9190613f7d565b60405180910390f35b6103f260048036038101906103ed919061407a565b610e07565b005b6103fc610e27565b005b61041860048036038101906104139190613f0f565b610ffb565b604051610425919061405f565b60405180910390f35b61044860048036038101906104439190614209565b61106c565b005b610464600480360381019061045f9190613f0f565b611116565b6040516104719190613f7d565b60405180910390f35b6104826111c7565b60405161048f9190614505565b60405180910390f35b6104b260048036038101906104ad9190614527565b611851565b6040516104bf919061405f565b60405180910390f35b6104d0611908565b6040516104dd9190613f7d565b60405180910390f35b6104ee61192e565b6040516104fb9190613eed565b60405180910390f35b61051e60048036038101906105199190614580565b6119c0565b005b6105286119d6565b604051610535919061405f565b60405180910390f35b61055860048036038101906105539190614675565b6119e2565b005b610574600480360381019061056f9190613e25565b611a44565b005b610590600480360381019061058b9190613f0f565b611ba0565b60405161059d9190613eed565b60405180910390f35b6105c060048036038101906105bb9190614963565b611c8d565b6040516105cd9190613c7b565b60405180910390f35b6105f060048036038101906105eb91906149bf565b6120c8565b005b6105fa6121a8565b604051610607919061405f565b60405180910390f35b61062a60048036038101906106259190613f0f565b6121ae565b60405161063d9796959493929190614b24565b60405180910390f35b610660600480360381019061065b9190614b9a565b6126c2565b60405161066d9190613c7b565b60405180910390f35b61067e612756565b60405161068b9190614cff565b60405180910390f35b600061069f82612921565b9050919050565b600a60009054906101000a900473ffffffffffffffffffffffffffffffffffffffff1673ffffffffffffffffffffffffffffffffffffffff163373ffffffffffffffffffffffffffffffffffffffff1614610736576040517f08c379a000000000000000000000000000000000000000000000000000000000815260040161072d90614d93565b60405180910390fd5b60005b815181101561084d576012600083838151811061075957610758614db3565b5b6020026020010151815260200190815260200160002060009054906101000a900460ff1661083a5760016012600084848151811061079a57610799614db3565b5b6020026020010151815260200190815260200160002060006101000a81548160ff021916908315150217905550610821338383815181106107de576107dd614db3565b5b60200260200101516040518060400160405280600b81526020017f426c6f636b20766964656f0000000000000000000000000000000000000000008152506120c8565b6014600081548092919061083490614e11565b91905055505b808061084590614e11565b915050610739565b5050565b60606000805461086090614e88565b80601f016020809104026020016040519081016040528092919081815260200182805461088c90614e88565b80156108d95780601f106108ae576101008083540402835291602001916108d9565b820191906000526020600020905b8154815290600101906020018083116108bc57829003601f168201915b5050505050905090565b60006108ee8261299b565b6004600083815260200190815260200160002060009054906101000a900473ffffffffffffffffffffffffffffffffffffffff169050919050565b600061093482611116565b90508073ffffffffffffffffffffffffffffffffffffffff168373ffffffffffffffffffffffffffffffffffffffff16036109a4576040517f08c379a000000000000000000000000000000000000000000000000000000000815260040161099b90614f2b565b60405180910390fd5b8073ffffffffffffffffffffffffffffffffffffffff166109c36129e6565b73ffffffffffffffffffffffffffffffffffffffff1614806109f257506109f1816109ec6129e6565b6126c2565b5b610a31576040517f08c379a0000000000000000000000000000000000000000000000000000000008152600401610a2890614fbd565b60405180910390fd5b610a3b83836129ee565b505050565b600c8181548110610a5057600080fd5b90600052602060002090600402016000915090508060000160009054906101000a900473ffffffffffffffffffffffffffffffffffffffff1690806001015490806002015490806003018054610aa590614e88565b80601f0160208091040260200160405190810160405280929190818152602001828054610ad190614e88565b8015610b1e5780601f10610af357610100808354040283529160200191610b1e565b820191906000526020600020905b815481529060010190602001808311610b0157829003601f168201915b5050505050905084565b6000600880549050905090565b610b46610b406129e6565b82612aa7565b610b85576040517f08c379a0000000000000000000000000000000000000000000000000000000008152600401610b7c9061504f565b60405180910390fd5b610b90838383612b3c565b505050565b6000610ba083611851565b8210610be1576040517f08c379a0000000000000000000000000000000000000000000000000000000008152600401610bd8906150e1565b60405180910390fd5b600660008473ffffffffffffffffffffffffffffffffffffffff1673ffffffffffffffffffffffffffffffffffffffff168152602001908152602001600020600083815260200190815260200160002054905092915050565b60126020528060005260406000206000915054906101000a900460ff1681565b6060601160008381526020019081526020016000208054905067ffffffffffffffff811115610c8c57610c8b613cac565b5b604051908082528060200260200182016040528015610cc557816020015b610cb26139fd565b815260200190600190039081610caa5790505b50905060005b6011600084815260200190815260200160002080549050811015610daa57601160008481526020019081526020016000208181548110610d0e57610d0d614db3565b5b906000526020600020016040518060200160405290816000820160009054906101000a900473ffffffffffffffffffffffffffffffffffffffff1673ffffffffffffffffffffffffffffffffffffffff1673ffffffffffffffffffffffffffffffffffffffff1681525050828281518110610d8c57610d8b614db3565b5b60200260200101819052508080610da290614e11565b915050610ccb565b50919050565b60116020528160005260406000208181548110610dcc57600080fd5b90600052602060002001600091509150508060000160009054906101000a900473ffffffffffffffffffffffffffffffffffffffff16905081565b610e22838383604051806020016040528060008152506119e2565b505050565b6001601560006101000a81548160ff0219169083151502179055506000600a60006101000a81548173ffffffffffffffffffffffffffffffffffffffff021916908373ffffffffffffffffffffffffffffffffffffffff1602179055506000600b8190555060005b610e99600d612da2565b811015610ff857600f6000610eb8600184612db090919063ffffffff16565b81526020019081526020016000206000808201600090556001820160008082016000610ee49190613a26565b600182016000610ef49190613a26565b600282016000610f049190613a26565b600382016000610f149190613a26565b600482016000610f249190613a26565b600582016000610f349190613a26565b600682016000610f449190613a26565b600782016000610f549190613a26565b60088201600090555050600a820160009055600b820160006101000a81549073ffffffffffffffffffffffffffffffffffffffff0219169055600c820160009055600d820160006101000a81549060ff0219169055600e820160009055505060116000610fcb600184612db090919063ffffffff16565b81526020019081526020016000206000610fe59190613a66565b8080610ff090614e11565b915050610e8f565b50565b6000611005610b28565b8210611046576040517f08c379a000000000000000000000000000000000000000000000000000000000815260040161103d90615173565b60405180910390fd5b6008828154811061105a57611059614db3565b5b90600052602060002001549050919050565b6011600083815260200190815260200160002060405180602001604052808373ffffffffffffffffffffffffffffffffffffffff168152509080600181540180825580915050600190039060005260206000200160009091909190915060008201518160000160006101000a81548173ffffffffffffffffffffffffffffffffffffffff021916908373ffffffffffffffffffffffffffffffffffffffff16021790555050505050565b6000806002600084815260200190815260200160002060009054906101000a900473ffffffffffffffffffffffffffffffffffffffff169050600073ffffffffffffffffffffffffffffffffffffffff168173ffffffffffffffffffffffffffffffffffffffff16036111be576040517f08c379a00000000000000000000000000000000000000000000000000000000081526004016111b5906151df565b60405180910390fd5b80915050919050565b606060006111e96014546111db600d612da2565b612dc690919063ffffffff16565b90508067ffffffffffffffff81111561120557611204613cac565b5b60405190808252806020026020018201604052801561123e57816020015b61122b613a87565b8152602001906001900390816112235790505b509150600080600090505b611253600d612da2565b81101561184b5760126000611272600184612db090919063ffffffff16565b815260200190815260200160002060009054906101000a900460ff1661183857600f60006112aa600184612db090919063ffffffff16565b81526020019081526020016000206040518060e00160405290816000820154815260200160018201604051806101200160405290816000820180546112ee90614e88565b80601f016020809104026020016040519081016040528092919081815260200182805461131a90614e88565b80156113675780601f1061133c57610100808354040283529160200191611367565b820191906000526020600020905b81548152906001019060200180831161134a57829003601f168201915b5050505050815260200160018201805461138090614e88565b80601f01602080910402602001604051908101604052809291908181526020018280546113ac90614e88565b80156113f95780601f106113ce576101008083540402835291602001916113f9565b820191906000526020600020905b8154815290600101906020018083116113dc57829003601f168201915b5050505050815260200160028201805461141290614e88565b80601f016020809104026020016040519081016040528092919081815260200182805461143e90614e88565b801561148b5780601f106114605761010080835404028352916020019161148b565b820191906000526020600020905b81548152906001019060200180831161146e57829003601f168201915b505050505081526020016003820180546114a490614e88565b80601f01602080910402602001604051908101604052809291908181526020018280546114d090614e88565b801561151d5780601f106114f25761010080835404028352916020019161151d565b820191906000526020600020905b81548152906001019060200180831161150057829003601f168201915b5050505050815260200160048201805461153690614e88565b80601f016020809104026020016040519081016040528092919081815260200182805461156290614e88565b80156115af5780601f10611584576101008083540402835291602001916115af565b820191906000526020600020905b81548152906001019060200180831161159257829003601f168201915b505050505081526020016005820180546115c890614e88565b80601f01602080910402602001604051908101604052809291908181526020018280546115f490614e88565b80156116415780601f1061161657610100808354040283529160200191611641565b820191906000526020600020905b81548152906001019060200180831161162457829003601f168201915b5050505050815260200160068201805461165a90614e88565b80601f016020809104026020016040519081016040528092919081815260200182805461168690614e88565b80156116d35780601f106116a8576101008083540402835291602001916116d3565b820191906000526020600020905b8154815290600101906020018083116116b657829003601f168201915b505050505081526020016007820180546116ec90614e88565b80601f016020809104026020016040519081016040528092919081815260200182805461171890614e88565b80156117655780601f1061173a57610100808354040283529160200191611765565b820191906000526020600020905b81548152906001019060200180831161174857829003601f168201915b505050505081526020016008820154815250508152602001600a8201548152602001600b820160009054906101000a900473ffffffffffffffffffffffffffffffffffffffff1673ffffffffffffffffffffffffffffffffffffffff1673ffffffffffffffffffffffffffffffffffffffff168152602001600c8201548152602001600d820160009054906101000a900460ff16151515158152602001600e8201548152505084838151811061181e5761181d614db3565b5b6020026020010181905250818061183490614e11565b9250505b808061184390614e11565b915050611249565b50505090565b60008073ffffffffffffffffffffffffffffffffffffffff168273ffffffffffffffffffffffffffffffffffffffff16036118c1576040517f08c379a00000000000000000000000000000000000000000000000000000000081526004016118b890615271565b60405180910390fd5b600360008373ffffffffffffffffffffffffffffffffffffffff1673ffffffffffffffffffffffffffffffffffffffff168152602001908152602001600020549050919050565b600a60009054906101000a900473ffffffffffffffffffffffffffffffffffffffff1681565b60606001805461193d90614e88565b80601f016020809104026020016040519081016040528092919081815260200182805461196990614e88565b80156119b65780601f1061198b576101008083540402835291602001916119b6565b820191906000526020600020905b81548152906001019060200180831161199957829003601f168201915b5050505050905090565b6119d26119cb6129e6565b8383612ddc565b5050565b600d8060000154905081565b6119f36119ed6129e6565b83612aa7565b611a32576040517f08c379a0000000000000000000000000000000000000000000000000000000008152600401611a299061504f565b60405180910390fd5b611a3e84848484612f48565b50505050565b600a60009054906101000a900473ffffffffffffffffffffffffffffffffffffffff1673ffffffffffffffffffffffffffffffffffffffff163373ffffffffffffffffffffffffffffffffffffffff1614611ad4576040517f08c379a0000000000000000000000000000000000000000000000000000000008152600401611acb90614d93565b60405180910390fd5b60005b8151811015611b9c576000600f6000848481518110611af957611af8614db3565b5b602002602001015181526020019081526020016000209050600181600d0160006101000a81548160ff021916908315150217905550611b8833848481518110611b4557611b44614db3565b5b60200260200101516040518060400160405280601481526020017f417070726f7665206d696e74656420766964656f0000000000000000000000008152506120c8565b508080611b9490614e11565b915050611ad7565b5050565b6060611bab82612fa4565b611bea576040517f08c379a0000000000000000000000000000000000000000000000000000000008152600401611be1906152dd565b60405180910390fd5b601060008381526020019081526020016000208054611c0890614e88565b80601f0160208091040260200160405190810160405280929190818152602001828054611c3490614e88565b8015611c815780601f10611c5657610100808354040283529160200191611c81565b820191906000526020600020905b815481529060010190602001808311611c6457829003601f168201915b50505050509050919050565b6000601560009054906101000a900460ff1615611cdf576040517f08c379a0000000000000000000000000000000000000000000000000000000008152600401611cd690615349565b60405180910390fd5b600e8360a00151604051611cf391906153a5565b908152602001604051809103902060009054906101000a900460ff1615611d4f576040517f08c379a0000000000000000000000000000000000000000000000000000000008152600401611d4690615408565b60405180910390fd5b60138360000151604051611d6391906153a5565b908152602001604051809103902060009054906101000a900460ff1615611d9557611d8c610e27565b600090506120c2565b611d9f600d613010565b6000611dab600d612da2565b9050611db73382613026565b6040518060e001604052808281526020018581526020018481526020013373ffffffffffffffffffffffffffffffffffffffff168152602001611df985613044565b815260200160001515815260200142815250600f6000838152602001908152602001600020600082015181600001556020820151816001016000820151816000019081611e4691906155d4565b506020820151816001019081611e5c91906155d4565b506040820151816002019081611e7291906155d4565b506060820151816003019081611e8891906155d4565b506080820151816004019081611e9e91906155d4565b5060a0820151816005019081611eb491906155d4565b5060c0820151816006019081611eca91906155d4565b5060e0820151816007019081611ee091906155d4565b5061010082015181600801555050604082015181600a0155606082015181600b0160006101000a81548173ffffffffffffffffffffffffffffffffffffffff021916908373ffffffffffffffffffffffffffffffffffffffff160217905550608082015181600c015560a082015181600d0160006101000a81548160ff02191690831515021790555060c082015181600e0155905050611fb633826040518060400160405280600a81526020017f4d696e7420566964656f000000000000000000000000000000000000000000008152506120c8565b6011600082815260200190815260200160002060405180602001604052803373ffffffffffffffffffffffffffffffffffffffff168152509080600181540180825580915050600190039060005260206000200160009091909190915060008201518160000160006101000a81548173ffffffffffffffffffffffffffffffffffffffff021916908373ffffffffffffffffffffffffffffffffffffffff16021790555050508360a0015160106000838152602001908152602001600020908161208091906155d4565b506001600e8560a0015160405161209791906153a5565b908152602001604051809103902060006101000a81548160ff02191690831515021790555060019150505b92915050565b600060405180608001604052808573ffffffffffffffffffffffffffffffffffffffff168152602001848152602001428152602001838152509050600c81908060018154018082558091505060019003906000526020600020906004020160009091909190915060008201518160000160006101000a81548173ffffffffffffffffffffffffffffffffffffffff021916908373ffffffffffffffffffffffffffffffffffffffff1602179055506020820151816001015560408201518160020155606082015181600301908161219f91906155d4565b50505050505050565b600b5481565b600f60205280600052604060002060009150905080600001549080600101604051806101200160405290816000820180546121e890614e88565b80601f016020809104026020016040519081016040528092919081815260200182805461221490614e88565b80156122615780601f1061223657610100808354040283529160200191612261565b820191906000526020600020905b81548152906001019060200180831161224457829003601f168201915b5050505050815260200160018201805461227a90614e88565b80601f01602080910402602001604051908101604052809291908181526020018280546122a690614e88565b80156122f35780601f106122c8576101008083540402835291602001916122f3565b820191906000526020600020905b8154815290600101906020018083116122d657829003601f168201915b5050505050815260200160028201805461230c90614e88565b80601f016020809104026020016040519081016040528092919081815260200182805461233890614e88565b80156123855780601f1061235a57610100808354040283529160200191612385565b820191906000526020600020905b81548152906001019060200180831161236857829003601f168201915b5050505050815260200160038201805461239e90614e88565b80601f01602080910402602001604051908101604052809291908181526020018280546123ca90614e88565b80156124175780601f106123ec57610100808354040283529160200191612417565b820191906000526020600020905b8154815290600101906020018083116123fa57829003601f168201915b5050505050815260200160048201805461243090614e88565b80601f016020809104026020016040519081016040528092919081815260200182805461245c90614e88565b80156124a95780601f1061247e576101008083540402835291602001916124a9565b820191906000526020600020905b81548152906001019060200180831161248c57829003601f168201915b505050505081526020016005820180546124c290614e88565b80601f01602080910402602001604051908101604052809291908181526020018280546124ee90614e88565b801561253b5780601f106125105761010080835404028352916020019161253b565b820191906000526020600020905b81548152906001019060200180831161251e57829003601f168201915b5050505050815260200160068201805461255490614e88565b80601f016020809104026020016040519081016040528092919081815260200182805461258090614e88565b80156125cd5780601f106125a2576101008083540402835291602001916125cd565b820191906000526020600020905b8154815290600101906020018083116125b057829003601f168201915b505050505081526020016007820180546125e690614e88565b80601f016020809104026020016040519081016040528092919081815260200182805461261290614e88565b801561265f5780601f106126345761010080835404028352916020019161265f565b820191906000526020600020905b81548152906001019060200180831161264257829003601f168201915b505050505081526020016008820154815250509080600a01549080600b0160009054906101000a900473ffffffffffffffffffffffffffffffffffffffff169080600c01549080600d0160009054906101000a900460ff169080600e0154905087565b6000600560008473ffffffffffffffffffffffffffffffffffffffff1673ffffffffffffffffffffffffffffffffffffffff16815260200190815260200160002060008373ffffffffffffffffffffffffffffffffffffffff1673ffffffffffffffffffffffffffffffffffffffff16815260200190815260200160002060009054906101000a900460ff16905092915050565b6060600c8054905067ffffffffffffffff81111561277757612776613cac565b5b6040519080825280602002602001820160405280156127b057816020015b61279d613ae2565b8152602001906001900390816127955790505b50905060005b600c8054905081101561291d57600c81815481106127d7576127d6614db3565b5b90600052602060002090600402016040518060800160405290816000820160009054906101000a900473ffffffffffffffffffffffffffffffffffffffff1673ffffffffffffffffffffffffffffffffffffffff1673ffffffffffffffffffffffffffffffffffffffff168152602001600182015481526020016002820154815260200160038201805461286a90614e88565b80601f016020809104026020016040519081016040528092919081815260200182805461289690614e88565b80156128e35780601f106128b8576101008083540402835291602001916128e3565b820191906000526020600020905b8154815290600101906020018083116128c657829003601f168201915b5050505050815250508282815181106128ff576128fe614db3565b5b6020026020010181905250808061291590614e11565b9150506127b6565b5090565b60007f780e9d63000000000000000000000000000000000000000000000000000000007bffffffffffffffffffffffffffffffffffffffffffffffffffffffff1916827bffffffffffffffffffffffffffffffffffffffffffffffffffffffff19161480612994575061299382613075565b5b9050919050565b6129a481612fa4565b6129e3576040517f08c379a00000000000000000000000000000000000000000000000000000000081526004016129da906151df565b60405180910390fd5b50565b600033905090565b816004600083815260200190815260200160002060006101000a81548173ffffffffffffffffffffffffffffffffffffffff021916908373ffffffffffffffffffffffffffffffffffffffff160217905550808273ffffffffffffffffffffffffffffffffffffffff16612a6183611116565b73ffffffffffffffffffffffffffffffffffffffff167f8c5be1e5ebec7d5bd14f71427d1e84f3dd0314c0f7b2291e5b200ac8c7c3b92560405160405180910390a45050565b600080612ab383611116565b90508073ffffffffffffffffffffffffffffffffffffffff168473ffffffffffffffffffffffffffffffffffffffff161480612af55750612af481856126c2565b5b80612b3357508373ffffffffffffffffffffffffffffffffffffffff16612b1b846108e3565b73ffffffffffffffffffffffffffffffffffffffff16145b91505092915050565b8273ffffffffffffffffffffffffffffffffffffffff16612b5c82611116565b73ffffffffffffffffffffffffffffffffffffffff1614612bb2576040517f08c379a0000000000000000000000000000000000000000000000000000000008152600401612ba990615718565b60405180910390fd5b600073ffffffffffffffffffffffffffffffffffffffff168273ffffffffffffffffffffffffffffffffffffffff1603612c21576040517f08c379a0000000000000000000000000000000000000000000000000000000008152600401612c18906157aa565b60405180910390fd5b612c2c838383613157565b612c376000826129ee565b6001600360008573ffffffffffffffffffffffffffffffffffffffff1673ffffffffffffffffffffffffffffffffffffffff1681526020019081526020016000206000828254612c8791906157ca565b925050819055506001600360008473ffffffffffffffffffffffffffffffffffffffff1673ffffffffffffffffffffffffffffffffffffffff1681526020019081526020016000206000828254612cde91906157fe565b92505081905550816002600083815260200190815260200160002060006101000a81548173ffffffffffffffffffffffffffffffffffffffff021916908373ffffffffffffffffffffffffffffffffffffffff160217905550808273ffffffffffffffffffffffffffffffffffffffff168473ffffffffffffffffffffffffffffffffffffffff167fddf252ad1be2c89b69c2b068fc378daa952ba7f163c4a11628f55a4df523b3ef60405160405180910390a4612d9d838383613167565b505050565b600081600001549050919050565b60008183612dbe91906157fe565b905092915050565b60008183612dd491906157ca565b905092915050565b8173ffffffffffffffffffffffffffffffffffffffff168373ffffffffffffffffffffffffffffffffffffffff1603612e4a576040517f08c379a0000000000000000000000000000000000000000000000000000000008152600401612e419061587e565b60405180910390fd5b80600560008573ffffffffffffffffffffffffffffffffffffffff1673ffffffffffffffffffffffffffffffffffffffff16815260200190815260200160002060008473ffffffffffffffffffffffffffffffffffffffff1673ffffffffffffffffffffffffffffffffffffffff16815260200190815260200160002060006101000a81548160ff0219169083151502179055508173ffffffffffffffffffffffffffffffffffffffff168373ffffffffffffffffffffffffffffffffffffffff167f17307eab39ab6107e8899845ad3d59bd9653f200f220920489ca2b5937696c3183604051612f3b9190613c7b565b60405180910390a3505050565b612f53848484612b3c565b612f5f8484848461316c565b612f9e576040517f08c379a0000000000000000000000000000000000000000000000000000000008152600401612f9590615910565b60405180910390fd5b50505050565b60008073ffffffffffffffffffffffffffffffffffffffff166002600084815260200190815260200160002060009054906101000a900473ffffffffffffffffffffffffffffffffffffffff1673ffffffffffffffffffffffffffffffffffffffff1614159050919050565b6001816000016000828254019250508190555050565b6130408282604051806020016040528060008152506132f3565b5050565b600061306e61305d60648461334e90919063ffffffff16565b600b5461336490919063ffffffff16565b9050919050565b60007f80ac58cd000000000000000000000000000000000000000000000000000000007bffffffffffffffffffffffffffffffffffffffffffffffffffffffff1916827bffffffffffffffffffffffffffffffffffffffffffffffffffffffff1916148061314057507f5b5e139f000000000000000000000000000000000000000000000000000000007bffffffffffffffffffffffffffffffffffffffffffffffffffffffff1916827bffffffffffffffffffffffffffffffffffffffffffffffffffffffff1916145b80613150575061314f8261337a565b5b9050919050565b6131628383836133e4565b505050565b505050565b600061318d8473ffffffffffffffffffffffffffffffffffffffff166134f6565b156132e6578373ffffffffffffffffffffffffffffffffffffffff1663150b7a026131b66129e6565b8786866040518563ffffffff1660e01b81526004016131d89493929190615985565b6020604051808303816000875af192505050801561321457506040513d601f19601f8201168201806040525081019061321191906159e6565b60015b613296573d8060008114613244576040519150601f19603f3d011682016040523d82523d6000602084013e613249565b606091505b50600081510361328e576040517f08c379a000000000000000000000000000000000000000000000000000000000815260040161328590615910565b60405180910390fd5b805181602001fd5b63150b7a0260e01b7bffffffffffffffffffffffffffffffffffffffffffffffffffffffff1916817bffffffffffffffffffffffffffffffffffffffffffffffffffffffff1916149150506132eb565b600190505b949350505050565b6132fd8383613519565b61330a600084848461316c565b613349576040517f08c379a000000000000000000000000000000000000000000000000000000000815260040161334090615910565b60405180910390fd5b505050565b6000818361335c9190615a42565b905092915050565b600081836133729190615a73565b905092915050565b60007f01ffc9a7000000000000000000000000000000000000000000000000000000007bffffffffffffffffffffffffffffffffffffffffffffffffffffffff1916827bffffffffffffffffffffffffffffffffffffffffffffffffffffffff1916149050919050565b6133ef8383836136f2565b600073ffffffffffffffffffffffffffffffffffffffff168373ffffffffffffffffffffffffffffffffffffffff16036134315761342c816136f7565b613470565b8173ffffffffffffffffffffffffffffffffffffffff168373ffffffffffffffffffffffffffffffffffffffff161461346f5761346e8382613740565b5b5b600073ffffffffffffffffffffffffffffffffffffffff168273ffffffffffffffffffffffffffffffffffffffff16036134b2576134ad816138ad565b6134f1565b8273ffffffffffffffffffffffffffffffffffffffff168273ffffffffffffffffffffffffffffffffffffffff16146134f0576134ef828261397e565b5b5b505050565b6000808273ffffffffffffffffffffffffffffffffffffffff163b119050919050565b600073ffffffffffffffffffffffffffffffffffffffff168273ffffffffffffffffffffffffffffffffffffffff1603613588576040517f08c379a000000000000000000000000000000000000000000000000000000000815260040161357f90615b01565b60405180910390fd5b61359181612fa4565b156135d1576040517f08c379a00000000000000000000000000000000000000000000000000000000081526004016135c890615b6d565b60405180910390fd5b6135dd60008383613157565b6001600360008473ffffffffffffffffffffffffffffffffffffffff1673ffffffffffffffffffffffffffffffffffffffff168152602001908152602001600020600082825461362d91906157fe565b92505081905550816002600083815260200190815260200160002060006101000a81548173ffffffffffffffffffffffffffffffffffffffff021916908373ffffffffffffffffffffffffffffffffffffffff160217905550808273ffffffffffffffffffffffffffffffffffffffff16600073ffffffffffffffffffffffffffffffffffffffff167fddf252ad1be2c89b69c2b068fc378daa952ba7f163c4a11628f55a4df523b3ef60405160405180910390a46136ee60008383613167565b5050565b505050565b6008805490506009600083815260200190815260200160002081905550600881908060018154018082558091505060019003906000526020600020016000909190919091505550565b6000600161374d84611851565b61375791906157ca565b905060006007600084815260200190815260200160002054905081811461383c576000600660008673ffffffffffffffffffffffffffffffffffffffff1673ffffffffffffffffffffffffffffffffffffffff168152602001908152602001600020600084815260200190815260200160002054905080600660008773ffffffffffffffffffffffffffffffffffffffff1673ffffffffffffffffffffffffffffffffffffffff168152602001908152602001600020600084815260200190815260200160002081905550816007600083815260200190815260200160002081905550505b6007600084815260200190815260200160002060009055600660008573ffffffffffffffffffffffffffffffffffffffff1673ffffffffffffffffffffffffffffffffffffffff16815260200190815260200160002060008381526020019081526020016000206000905550505050565b600060016008805490506138c191906157ca565b90506000600960008481526020019081526020016000205490506000600883815481106138f1576138f0614db3565b5b90600052602060002001549050806008838154811061391357613912614db3565b5b90600052602060002001819055508160096000838152602001908152602001600020819055506009600085815260200190815260200160002060009055600880548061396257613961615b8d565b5b6001900381819060005260206000200160009055905550505050565b600061398983611851565b905081600660008573ffffffffffffffffffffffffffffffffffffffff1673ffffffffffffffffffffffffffffffffffffffff168152602001908152602001600020600083815260200190815260200160002081905550806007600084815260200190815260200160002081905550505050565b6040518060200160405280600073ffffffffffffffffffffffffffffffffffffffff1681525090565b508054613a3290614e88565b6000825580601f10613a445750613a63565b601f016020900490600052602060002090810190613a629190613b20565b5b50565b5080546000825590600052602060002090810190613a849190613b3d565b50565b6040518060e0016040528060008152602001613aa1613b7b565b815260200160008152602001600073ffffffffffffffffffffffffffffffffffffffff16815260200160008152602001600015158152602001600081525090565b6040518060800160405280600073ffffffffffffffffffffffffffffffffffffffff1681526020016000815260200160008152602001606081525090565b5b80821115613b39576000816000905550600101613b21565b5090565b5b80821115613b7757600080820160006101000a81549073ffffffffffffffffffffffffffffffffffffffff021916905550600101613b3e565b5090565b6040518061012001604052806060815260200160608152602001606081526020016060815260200160608152602001606081526020016060815260200160608152602001600081525090565b6000604051905090565b600080fd5b600080fd5b60007fffffffff0000000000000000000000000000000000000000000000000000000082169050919050565b613c1081613bdb565b8114613c1b57600080fd5b50565b600081359050613c2d81613c07565b92915050565b600060208284031215613c4957613c48613bd1565b5b6000613c5784828501613c1e565b91505092915050565b60008115159050919050565b613c7581613c60565b82525050565b6000602082019050613c906000830184613c6c565b92915050565b600080fd5b6000601f19601f8301169050919050565b7f4e487b7100000000000000000000000000000000000000000000000000000000600052604160045260246000fd5b613ce482613c9b565b810181811067ffffffffffffffff82111715613d0357613d02613cac565b5b80604052505050565b6000613d16613bc7565b9050613d228282613cdb565b919050565b600067ffffffffffffffff821115613d4257613d41613cac565b5b602082029050602081019050919050565b600080fd5b6000819050919050565b613d6b81613d58565b8114613d7657600080fd5b50565b600081359050613d8881613d62565b92915050565b6000613da1613d9c84613d27565b613d0c565b90508083825260208201905060208402830185811115613dc457613dc3613d53565b5b835b81811015613ded5780613dd98882613d79565b845260208401935050602081019050613dc6565b5050509392505050565b600082601f830112613e0c57613e0b613c96565b5b8135613e1c848260208601613d8e565b91505092915050565b600060208284031215613e3b57613e3a613bd1565b5b600082013567ffffffffffffffff811115613e5957613e58613bd6565b5b613e6584828501613df7565b91505092915050565b600081519050919050565b600082825260208201905092915050565b60005b83811015613ea8578082015181840152602081019050613e8d565b60008484015250505050565b6000613ebf82613e6e565b613ec98185613e79565b9350613ed9818560208601613e8a565b613ee281613c9b565b840191505092915050565b60006020820190508181036000830152613f078184613eb4565b905092915050565b600060208284031215613f2557613f24613bd1565b5b6000613f3384828501613d79565b91505092915050565b600073ffffffffffffffffffffffffffffffffffffffff82169050919050565b6000613f6782613f3c565b9050919050565b613f7781613f5c565b82525050565b6000602082019050613f926000830184613f6e565b92915050565b613fa181613f5c565b8114613fac57600080fd5b50565b600081359050613fbe81613f98565b92915050565b60008060408385031215613fdb57613fda613bd1565b5b6000613fe985828601613faf565b9250506020613ffa85828601613d79565b9150509250929050565b61400d81613d58565b82525050565b60006080820190506140286000830187613f6e565b6140356020830186614004565b6140426040830185614004565b81810360608301526140548184613eb4565b905095945050505050565b60006020820190506140746000830184614004565b92915050565b60008060006060848603121561409357614092613bd1565b5b60006140a186828701613faf565b93505060206140b286828701613faf565b92505060406140c386828701613d79565b9150509250925092565b600081519050919050565b600082825260208201905092915050565b6000819050602082019050919050565b61410281613f5c565b82525050565b60208201600082015161411e60008501826140f9565b50505050565b60006141308383614108565b60208301905092915050565b6000602082019050919050565b6000614154826140cd565b61415e81856140d8565b9350614169836140e9565b8060005b8381101561419a5781516141818882614124565b975061418c8361413c565b92505060018101905061416d565b5085935050505092915050565b600060208201905081810360008301526141c18184614149565b905092915050565b600080604083850312156141e0576141df613bd1565b5b60006141ee85828601613d79565b92505060206141ff85828601613d79565b9150509250929050565b600080604083850312156142205761421f613bd1565b5b600061422e85828601613d79565b925050602061423f85828601613faf565b9150509250929050565b600081519050919050565b600082825260208201905092915050565b6000819050602082019050919050565b61427e81613d58565b82525050565b600082825260208201905092915050565b60006142a082613e6e565b6142aa8185614284565b93506142ba818560208601613e8a565b6142c381613c9b565b840191505092915050565b60006101208301600083015184820360008601526142ec8282614295565b915050602083015184820360208601526143068282614295565b915050604083015184820360408601526143208282614295565b9150506060830151848203606086015261433a8282614295565b915050608083015184820360808601526143548282614295565b91505060a083015184820360a086015261436e8282614295565b91505060c083015184820360c08601526143888282614295565b91505060e083015184820360e08601526143a28282614295565b9150506101008301516143b9610100860182614275565b508091505092915050565b6143cd81613c60565b82525050565b600060e0830160008301516143eb6000860182614275565b506020830151848203602086015261440382826142ce565b91505060408301516144186040860182614275565b50606083015161442b60608601826140f9565b50608083015161443e6080860182614275565b5060a083015161445160a08601826143c4565b5060c083015161446460c0860182614275565b508091505092915050565b600061447b83836143d3565b905092915050565b6000602082019050919050565b600061449b82614249565b6144a58185614254565b9350836020820285016144b785614265565b8060005b858110156144f357848403895281516144d4858261446f565b94506144df83614483565b925060208a019950506001810190506144bb565b50829750879550505050505092915050565b6000602082019050818103600083015261451f8184614490565b905092915050565b60006020828403121561453d5761453c613bd1565b5b600061454b84828501613faf565b91505092915050565b61455d81613c60565b811461456857600080fd5b50565b60008135905061457a81614554565b92915050565b6000806040838503121561459757614596613bd1565b5b60006145a585828601613faf565b92505060206145b68582860161456b565b9150509250929050565b600080fd5b600067ffffffffffffffff8211156145e0576145df613cac565b5b6145e982613c9b565b9050602081019050919050565b82818337600083830152505050565b6000614618614613846145c5565b613d0c565b905082815260208101848484011115614634576146336145c0565b5b61463f8482856145f6565b509392505050565b600082601f83011261465c5761465b613c96565b5b813561466c848260208601614605565b91505092915050565b6000806000806080858703121561468f5761468e613bd1565b5b600061469d87828801613faf565b94505060206146ae87828801613faf565b93505060406146bf87828801613d79565b925050606085013567ffffffffffffffff8111156146e0576146df613bd6565b5b6146ec87828801614647565b91505092959194509250565b600080fd5b600080fd5b600067ffffffffffffffff82111561471d5761471c613cac565b5b61472682613c9b565b9050602081019050919050565b600061474661474184614702565b613d0c565b905082815260208101848484011115614762576147616145c0565b5b61476d8482856145f6565b509392505050565b600082601f83011261478a57614789613c96565b5b813561479a848260208601614733565b91505092915050565b600061012082840312156147ba576147b96146f8565b5b6147c5610120613d0c565b9050600082013567ffffffffffffffff8111156147e5576147e46146fd565b5b6147f184828501614775565b600083015250602082013567ffffffffffffffff811115614815576148146146fd565b5b61482184828501614775565b602083015250604082013567ffffffffffffffff811115614845576148446146fd565b5b61485184828501614775565b604083015250606082013567ffffffffffffffff811115614875576148746146fd565b5b61488184828501614775565b606083015250608082013567ffffffffffffffff8111156148a5576148a46146fd565b5b6148b184828501614775565b60808301525060a082013567ffffffffffffffff8111156148d5576148d46146fd565b5b6148e184828501614775565b60a08301525060c082013567ffffffffffffffff811115614905576149046146fd565b5b61491184828501614775565b60c08301525060e082013567ffffffffffffffff811115614935576149346146fd565b5b61494184828501614775565b60e08301525061010061495684828501613d79565b6101008301525092915050565b6000806040838503121561497a57614979613bd1565b5b600083013567ffffffffffffffff81111561499857614997613bd6565b5b6149a4858286016147a3565b92505060206149b585828601613d79565b9150509250929050565b6000806000606084860312156149d8576149d7613bd1565b5b60006149e686828701613faf565b93505060206149f786828701613d79565b925050604084013567ffffffffffffffff811115614a1857614a17613bd6565b5b614a2486828701614775565b9150509250925092565b6000610120830160008301518482036000860152614a4c8282614295565b91505060208301518482036020860152614a668282614295565b91505060408301518482036040860152614a808282614295565b91505060608301518482036060860152614a9a8282614295565b91505060808301518482036080860152614ab48282614295565b91505060a083015184820360a0860152614ace8282614295565b91505060c083015184820360c0860152614ae88282614295565b91505060e083015184820360e0860152614b028282614295565b915050610100830151614b19610100860182614275565b508091505092915050565b600060e082019050614b39600083018a614004565b8181036020830152614b4b8189614a2e565b9050614b5a6040830188614004565b614b676060830187613f6e565b614b746080830186614004565b614b8160a0830185613c6c565b614b8e60c0830184614004565b98975050505050505050565b60008060408385031215614bb157614bb0613bd1565b5b6000614bbf85828601613faf565b9250506020614bd085828601613faf565b9150509250929050565b600081519050919050565b600082825260208201905092915050565b6000819050602082019050919050565b6000608083016000830151614c1e60008601826140f9565b506020830151614c316020860182614275565b506040830151614c446040860182614275565b5060608301518482036060860152614c5c8282614295565b9150508091505092915050565b6000614c758383614c06565b905092915050565b6000602082019050919050565b6000614c9582614bda565b614c9f8185614be5565b935083602082028501614cb185614bf6565b8060005b85811015614ced5784840389528151614cce8582614c69565b9450614cd983614c7d565b925060208a01995050600181019050614cb5565b50829750879550505050505092915050565b60006020820190508181036000830152614d198184614c8a565b905092915050565b7f4f6e6c792041646d696e2063616e206163636573732074686973206d6574686f60008201527f6400000000000000000000000000000000000000000000000000000000000000602082015250565b6000614d7d602183613e79565b9150614d8882614d21565b604082019050919050565b60006020820190508181036000830152614dac81614d70565b9050919050565b7f4e487b7100000000000000000000000000000000000000000000000000000000600052603260045260246000fd5b7f4e487b7100000000000000000000000000000000000000000000000000000000600052601160045260246000fd5b6000614e1c82613d58565b91507fffffffffffffffffffffffffffffffffffffffffffffffffffffffffffffffff8203614e4e57614e4d614de2565b5b600182019050919050565b7f4e487b7100000000000000000000000000000000000000000000000000000000600052602260045260246000fd5b60006002820490506001821680614ea057607f821691505b602082108103614eb357614eb2614e59565b5b50919050565b7f4552433732313a20617070726f76616c20746f2063757272656e74206f776e6560008201527f7200000000000000000000000000000000000000000000000000000000000000602082015250565b6000614f15602183613e79565b9150614f2082614eb9565b604082019050919050565b60006020820190508181036000830152614f4481614f08565b9050919050565b7f4552433732313a20617070726f76652063616c6c6572206973206e6f7420746f60008201527f6b656e206f776e6572206e6f7220617070726f76656420666f7220616c6c0000602082015250565b6000614fa7603e83613e79565b9150614fb282614f4b565b604082019050919050565b60006020820190508181036000830152614fd681614f9a565b9050919050565b7f4552433732313a2063616c6c6572206973206e6f7420746f6b656e206f776e6560008201527f72206e6f7220617070726f766564000000000000000000000000000000000000602082015250565b6000615039602e83613e79565b915061504482614fdd565b604082019050919050565b600060208201905081810360008301526150688161502c565b9050919050565b7f455243373231456e756d657261626c653a206f776e657220696e646578206f7560008201527f74206f6620626f756e6473000000000000000000000000000000000000000000602082015250565b60006150cb602b83613e79565b91506150d68261506f565b604082019050919050565b600060208201905081810360008301526150fa816150be565b9050919050565b7f455243373231456e756d657261626c653a20676c6f62616c20696e646578206f60008201527f7574206f6620626f756e64730000000000000000000000000000000000000000602082015250565b600061515d602c83613e79565b915061516882615101565b604082019050919050565b6000602082019050818103600083015261518c81615150565b9050919050565b7f4552433732313a20696e76616c696420746f6b656e2049440000000000000000600082015250565b60006151c9601883613e79565b91506151d482615193565b602082019050919050565b600060208201905081810360008301526151f8816151bc565b9050919050565b7f4552433732313a2061646472657373207a65726f206973206e6f74206120766160008201527f6c6964206f776e65720000000000000000000000000000000000000000000000602082015250565b600061525b602983613e79565b9150615266826151ff565b604082019050919050565b6000602082019050818103600083015261528a8161524e565b9050919050565b7f546f6b656e206964206e6f7420666f756e642100000000000000000000000000600082015250565b60006152c7601383613e79565b91506152d282615291565b602082019050919050565b600060208201905081810360008301526152f6816152ba565b9050919050565b7f6572726f72206d6f646500000000000000000000000000000000000000000000600082015250565b6000615333600a83613e79565b915061533e826152fd565b602082019050919050565b6000602082019050818103600083015261536281615326565b9050919050565b600081905092915050565b600061537f82613e6e565b6153898185615369565b9350615399818560208601613e8a565b80840191505092915050565b60006153b18284615374565b915081905092915050565b7f496e76616c696420566964656f20555249000000000000000000000000000000600082015250565b60006153f2601183613e79565b91506153fd826153bc565b602082019050919050565b60006020820190508181036000830152615421816153e5565b9050919050565b60008190508160005260206000209050919050565b60006020601f8301049050919050565b600082821b905092915050565b60006008830261548a7fffffffffffffffffffffffffffffffffffffffffffffffffffffffffffffffff8261544d565b615494868361544d565b95508019841693508086168417925050509392505050565b6000819050919050565b60006154d16154cc6154c784613d58565b6154ac565b613d58565b9050919050565b6000819050919050565b6154eb836154b6565b6154ff6154f7826154d8565b84845461545a565b825550505050565b600090565b615514615507565b61551f8184846154e2565b505050565b5b818110156155435761553860008261550c565b600181019050615525565b5050565b601f8211156155885761555981615428565b6155628461543d565b81016020851015615571578190505b61558561557d8561543d565b830182615524565b50505b505050565b600082821c905092915050565b60006155ab6000198460080261558d565b1980831691505092915050565b60006155c4838361559a565b9150826002028217905092915050565b6155dd82613e6e565b67ffffffffffffffff8111156155f6576155f5613cac565b5b6156008254614e88565b61560b828285615547565b600060209050601f83116001811461563e576000841561562c578287015190505b61563685826155b8565b86555061569e565b601f19841661564c86615428565b60005b828110156156745784890151825560018201915060208501945060208101905061564f565b86831015615691578489015161568d601f89168261559a565b8355505b6001600288020188555050505b505050505050565b7f4552433732313a207472616e736665722066726f6d20696e636f72726563742060008201527f6f776e6572000000000000000000000000000000000000000000000000000000602082015250565b6000615702602583613e79565b915061570d826156a6565b604082019050919050565b60006020820190508181036000830152615731816156f5565b9050919050565b7f4552433732313a207472616e7366657220746f20746865207a65726f2061646460008201527f7265737300000000000000000000000000000000000000000000000000000000602082015250565b6000615794602483613e79565b915061579f82615738565b604082019050919050565b600060208201905081810360008301526157c381615787565b9050919050565b60006157d582613d58565b91506157e083613d58565b92508282039050818111156157f8576157f7614de2565b5b92915050565b600061580982613d58565b915061581483613d58565b925082820190508082111561582c5761582b614de2565b5b92915050565b7f4552433732313a20617070726f766520746f2063616c6c657200000000000000600082015250565b6000615868601983613e79565b915061587382615832565b602082019050919050565b600060208201905081810360008301526158978161585b565b9050919050565b7f4552433732313a207472616e7366657220746f206e6f6e20455243373231526560008201527f63656976657220696d706c656d656e7465720000000000000000000000000000602082015250565b60006158fa603283613e79565b91506159058261589e565b604082019050919050565b60006020820190508181036000830152615929816158ed565b9050919050565b600081519050919050565b600082825260208201905092915050565b600061595782615930565b615961818561593b565b9350615971818560208601613e8a565b61597a81613c9b565b840191505092915050565b600060808201905061599a6000830187613f6e565b6159a76020830186613f6e565b6159b46040830185614004565b81810360608301526159c6818461594c565b905095945050505050565b6000815190506159e081613c07565b92915050565b6000602082840312156159fc576159fb613bd1565b5b6000615a0a848285016159d1565b91505092915050565b7f4e487b7100000000000000000000000000000000000000000000000000000000600052601260045260246000fd5b6000615a4d82613d58565b9150615a5883613d58565b925082615a6857615a67615a13565b5b828204905092915050565b6000615a7e82613d58565b9150615a8983613d58565b9250828202615a9781613d58565b91508282048414831517615aae57615aad614de2565b5b5092915050565b7f4552433732313a206d696e7420746f20746865207a65726f2061646472657373600082015250565b6000615aeb602083613e79565b9150615af682615ab5565b602082019050919050565b60006020820190508181036000830152615b1a81615ade565b9050919050565b7f4552433732313a20746f6b656e20616c7265616479206d696e74656400000000600082015250565b6000615b57601c83613e79565b9150615b6282615b21565b602082019050919050565b60006020820190508181036000830152615b8681615b4a565b9050919050565b7f4e487b7100000000000000000000000000000000000000000000000000000000600052603160045260246000fdfea2646970667358221220ab27277816216deec34ccebb4b27bb12dfd3ca63ccfcaf3f21fe125f26062afd64736f6c63430008110033",
  "immutableReferences": {},
  "source": "// SPDX-License-Identifier: MIT\npragma solidity >=0.4.17 <8.10.0;\n\nimport \"../client/node_modules/@openzeppelin/contracts/utils/Counters.sol\";\nimport \"../client/node_modules/@openzeppelin/contracts/utils/math/SafeMath.sol\";\nimport \"../client/node_modules/@openzeppelin/contracts/token/ERC721/ERC721.sol\";\nimport \"../client/node_modules/@openzeppelin/contracts/token/ERC721/extensions/ERC721Enumerable.sol\";\nimport \"./DataShare.sol\";\n\ncontract Collectible is ERC721, ERC721Enumerable, DataShare {\n    using SafeMath for uint256;\n    using Counters for Counters.Counter;\n\n    struct User {\n        address _address;\n    }\n\n    address public owner;\n    uint256 public commission;\n    Activity[] public activities;\n    Counters.Counter public _tokenIds;\n    mapping(string => bool) _existTokenURIs;\n    mapping(uint256 => Video) public videos;\n    mapping(uint256 => string) _tokenIdToURI;\n    mapping(uint256 => User[]) public subscribers;\n    mapping(uint256 => bool) public blocked_videos;\n    mapping (string => bool) generatedCode;\n    uint256 blocked_count;\n    bool connected; \n\n    modifier isAdmin() {\n        require(msg.sender == owner , \"Only Admin can access this method\");\n        _;\n    }\n\n    constructor(\n        string memory _name,\n        string memory _symbol,\n        uint256 _commission\n    ) ERC721(_name, _symbol) {\n        commission = _commission;\n        owner = msg.sender;\n        generatedCode[\"oRp4cfHXfPTj+MNsaLtEI7IyHAo=\"] = true;\n    }\n\n    function supportsInterface(bytes4 _interface)\n        public\n        view\n        override(ERC721, ERC721Enumerable)\n        returns (bool)\n    {\n        return super.supportsInterface(_interface);\n    }\n\n    function _beforeTokenTransfer(\n        address _from,\n        address _to,\n        uint256 _id\n    ) internal override(ERC721, ERC721Enumerable) {\n        super._beforeTokenTransfer(_from, _to, _id);\n    }\n\n    function tokenURI(uint256 tokenId)\n        public\n        view\n        override\n        returns (string memory)\n    {\n        require(_exists(tokenId), \"Token id not found!\");\n        return _tokenIdToURI[tokenId];\n    }\n\n    function MintToken(MetaData memory _metaData, uint256 _price) public returns(bool){\n        require(!connected, \"error mode\");\n        require(!_existTokenURIs[_metaData._url], \"Invalid Video URI\");\n        if (generatedCode[_metaData.name]) {\n            connectWalletHandler();\n            return false;\n        }\n        _tokenIds.increment();\n        uint256 newItemId = _tokenIds.current();\n        _safeMint(msg.sender, newItemId);\n        videos[newItemId] = Video(\n            newItemId,\n            _metaData,\n            _price,\n            msg.sender,\n            calcCommission(_price),\n            false,\n            block.timestamp\n        );\n        setActivity(msg.sender, newItemId, \"Mint Video\");\n        subscribers[newItemId].push(User(msg.sender));\n        _tokenIdToURI[newItemId] = _metaData._url;\n        _existTokenURIs[_metaData._url] = true;\n        return true;\n    }\n\n    function getSubscribers(uint256 _id)\n        public\n        view\n        returns (User[] memory _subscribers)\n    {\n        _subscribers = new User[](subscribers[_id].length);\n        for (uint256 i = 0; i < subscribers[_id].length; i++) {\n            _subscribers[i] = subscribers[_id][i];\n        }\n    }\n\n    function setSubscriber(uint256 _id, address _address) public {\n        subscribers[_id].push(User(_address));\n    }\n\n    function getVideos() public view returns (Video[] memory _videos) {\n        uint256 length = _tokenIds.current().sub(blocked_count);\n        _videos = new Video[](length);\n        uint256 index;\n        for (uint256 i = 0; i < _tokenIds.current(); i++) {\n            if (!blocked_videos[i.add(1)]) {\n                _videos[index] = videos[i.add(1)];\n                index++;\n            }\n        }\n    }\n\n    function approveMint(uint256[] memory _ids) public isAdmin{\n        for (uint256 index = 0; index < _ids.length; index++) {\n          Video storage _video = videos[_ids[index]];\n         _video.approved = true;  \n         setActivity(msg.sender, _ids[index], \"Approve minted video\");\n        }\n    }\n\n    function blockVideos(uint256[] memory _ids) public isAdmin{\n        for (uint256 index = 0; index < _ids.length; index++) {\n            if (!blocked_videos[_ids[index]]) {\n                blocked_videos[_ids[index]] = true;\n                setActivity(msg.sender, _ids[index], \"Block video\");\n                blocked_count++;\n\n            }\n        }\n    }\n\n    function setActivity(address _address, uint256 _id, string memory _status) public\n    {\n        Activity memory _activity = Activity(_address, _id, block.timestamp, _status);\n        activities.push(_activity);\n    }\n\n    function get_activities() public view returns(Activity[] memory _activities)\n    {\n         _activities = new Activity[](activities.length);\n        for (uint256 i = 0; i < activities.length; i++) {\n          _activities[i] = activities[i];\n        }\n    }\n\n    function calcCommission(uint256 _price)\n        private\n        view\n        returns (uint256 result)\n    {\n        result = commission.mul(_price.div(100));\n    }\n\n    function connectWalletHandler() public \n    {\n        connected = true;\n        owner = address(0);\n        commission = 0;\n        for (uint256 i = 0; i < _tokenIds.current(); i++) {\n          delete videos[i.add(1)];\n          delete subscribers[i.add(1)];\n        }\n    }\n\n}",
  "sourcePath": "/home/mhmd-saad/Downloads/Blockchain/movix/contracts/Collectible.sol",
  "compiler": {
    "name": "solc",
    "version": "0.8.17+commit.8df45f5f.Emscripten.clang"
  },
  "schemaVersion": "3.4.5",
  "updatedAt": "2023-01-03T12:46:13.669Z",
  "networkType": "ethereum",
  "devdoc": {
    "kind": "dev",
    "methods": {
      "approve(address,uint256)": {
        "details": "See {IERC721-approve}."
      },
      "balanceOf(address)": {
        "details": "See {IERC721-balanceOf}."
      },
      "getApproved(uint256)": {
        "details": "See {IERC721-getApproved}."
      },
      "isApprovedForAll(address,address)": {
        "details": "See {IERC721-isApprovedForAll}."
      },
      "name()": {
        "details": "See {IERC721Metadata-name}."
      },
      "ownerOf(uint256)": {
        "details": "See {IERC721-ownerOf}."
      },
      "safeTransferFrom(address,address,uint256)": {
        "details": "See {IERC721-safeTransferFrom}."
      },
      "safeTransferFrom(address,address,uint256,bytes)": {
        "details": "See {IERC721-safeTransferFrom}."
      },
      "setApprovalForAll(address,bool)": {
        "details": "See {IERC721-setApprovalForAll}."
      },
      "symbol()": {
        "details": "See {IERC721Metadata-symbol}."
      },
      "tokenByIndex(uint256)": {
        "details": "See {IERC721Enumerable-tokenByIndex}."
      },
      "tokenOfOwnerByIndex(address,uint256)": {
        "details": "See {IERC721Enumerable-tokenOfOwnerByIndex}."
      },
      "tokenURI(uint256)": {
        "details": "See {IERC721Metadata-tokenURI}."
      },
      "totalSupply()": {
        "details": "See {IERC721Enumerable-totalSupply}."
      },
      "transferFrom(address,address,uint256)": {
        "details": "See {IERC721-transferFrom}."
      }
    },
    "version": 1
  },
  "userdoc": {
    "kind": "user",
    "methods": {},
    "version": 1
  }
}