{
  "contractName": "Marketplace",
  "abi": [
    {
      "inputs": [
        {
          "internalType": "address",
          "name": "_nftCollection",
          "type": "address"
        },
        {
          "internalType": "address",
          "name": "_user",
          "type": "address"
        },
        {
          "internalType": "address",
          "name": "_analytics",
          "type": "address"
        }
      ],
      "stateMutability": "nonpayable",
      "type": "constructor"
    },
    {
      "anonymous": false,
      "inputs": [
        {
          "indexed": false,
          "internalType": "uint256",
          "name": "_tokenId",
          "type": "uint256"
        },
        {
          "indexed": false,
          "internalType": "uint256",
          "name": "_offerId",
          "type": "uint256"
        },
        {
          "indexed": false,
          "internalType": "address",
          "name": "winner",
          "type": "address"
        }
      ],
      "name": "BoughtNFT",
      "type": "event"
    },
    {
      "anonymous": false,
      "inputs": [
        {
          "indexed": false,
          "internalType": "address",
          "name": "user",
          "type": "address"
        },
        {
          "indexed": false,
          "internalType": "uint256",
          "name": "amount",
          "type": "uint256"
        }
      ],
      "name": "ClaimFunds",
      "type": "event"
    },
    {
      "anonymous": false,
      "inputs": [
        {
          "indexed": false,
          "internalType": "uint256",
          "name": "offerId",
          "type": "uint256"
        },
        {
          "indexed": false,
          "internalType": "uint256",
          "name": "id",
          "type": "uint256"
        },
        {
          "indexed": false,
          "internalType": "address",
          "name": "user",
          "type": "address"
        },
        {
          "indexed": false,
          "internalType": "uint256",
          "name": "price",
          "type": "uint256"
        },
        {
          "indexed": false,
          "internalType": "bool",
          "name": "fulfilled",
          "type": "bool"
        },
        {
          "indexed": false,
          "internalType": "bool",
          "name": "cancelled",
          "type": "bool"
        }
      ],
      "name": "Offer",
      "type": "event"
    },
    {
      "anonymous": false,
      "inputs": [
        {
          "indexed": false,
          "internalType": "uint256",
          "name": "offerId",
          "type": "uint256"
        },
        {
          "indexed": false,
          "internalType": "uint256",
          "name": "id",
          "type": "uint256"
        },
        {
          "indexed": false,
          "internalType": "address",
          "name": "owner",
          "type": "address"
        }
      ],
      "name": "SaleCancelled",
      "type": "event"
    },
    {
      "stateMutability": "nonpayable",
      "type": "fallback"
    },
    {
      "inputs": [],
      "name": "offerCount",
      "outputs": [
        {
          "internalType": "uint256",
          "name": "",
          "type": "uint256"
        }
      ],
      "stateMutability": "view",
      "type": "function"
    },
    {
      "inputs": [
        {
          "internalType": "uint256",
          "name": "",
          "type": "uint256"
        }
      ],
      "name": "offers",
      "outputs": [
        {
          "internalType": "uint256",
          "name": "offerId",
          "type": "uint256"
        },
        {
          "internalType": "uint256",
          "name": "id",
          "type": "uint256"
        },
        {
          "internalType": "address",
          "name": "user",
          "type": "address"
        },
        {
          "internalType": "uint256",
          "name": "price",
          "type": "uint256"
        },
        {
          "internalType": "bool",
          "name": "fulfilled",
          "type": "bool"
        },
        {
          "internalType": "bool",
          "name": "cancelled",
          "type": "bool"
        }
      ],
      "stateMutability": "view",
      "type": "function"
    },
    {
      "inputs": [],
      "name": "owner",
      "outputs": [
        {
          "internalType": "address payable",
          "name": "",
          "type": "address"
        }
      ],
      "stateMutability": "view",
      "type": "function"
    },
    {
      "inputs": [],
      "name": "promotionPrice",
      "outputs": [
        {
          "internalType": "uint256",
          "name": "",
          "type": "uint256"
        }
      ],
      "stateMutability": "view",
      "type": "function"
    },
    {
      "inputs": [
        {
          "internalType": "address",
          "name": "",
          "type": "address"
        }
      ],
      "name": "sellerFunds",
      "outputs": [
        {
          "internalType": "uint256",
          "name": "",
          "type": "uint256"
        }
      ],
      "stateMutability": "view",
      "type": "function"
    },
    {
      "inputs": [
        {
          "internalType": "address",
          "name": "",
          "type": "address"
        }
      ],
      "name": "userFunds",
      "outputs": [
        {
          "internalType": "uint256",
          "name": "",
          "type": "uint256"
        }
      ],
      "stateMutability": "view",
      "type": "function"
    },
    {
      "inputs": [
        {
          "internalType": "uint256",
          "name": "_id",
          "type": "uint256"
        },
        {
          "internalType": "uint256",
          "name": "_price",
          "type": "uint256"
        }
      ],
      "name": "addPrice",
      "outputs": [],
      "stateMutability": "nonpayable",
      "type": "function"
    },
    {
      "inputs": [
        {
          "internalType": "uint256",
          "name": "_offerId",
          "type": "uint256"
        }
      ],
      "name": "buyNFT",
      "outputs": [],
      "stateMutability": "payable",
      "type": "function"
    },
    {
      "inputs": [
        {
          "internalType": "uint256",
          "name": "_offerId",
          "type": "uint256"
        }
      ],
      "name": "cancelSale",
      "outputs": [],
      "stateMutability": "nonpayable",
      "type": "function"
    },
    {
      "inputs": [],
      "name": "claimProfits",
      "outputs": [],
      "stateMutability": "nonpayable",
      "type": "function"
    },
    {
      "inputs": [],
      "name": "getSellers",
      "outputs": [
        {
          "components": [
            {
              "internalType": "address",
              "name": "_address",
              "type": "address"
            },
            {
              "internalType": "uint256",
              "name": "_balance",
              "type": "uint256"
            }
          ],
          "internalType": "struct Marketplace.Seller[]",
          "name": "",
          "type": "tuple[]"
        }
      ],
      "stateMutability": "view",
      "type": "function"
    },
    {
      "inputs": [
        {
          "internalType": "address",
          "name": "_address",
          "type": "address"
        },
        {
          "internalType": "uint256",
          "name": "_price",
          "type": "uint256"
        }
      ],
      "name": "setSellerFunds",
      "outputs": [],
      "stateMutability": "nonpayable",
      "type": "function"
    },
    {
      "inputs": [
        {
          "internalType": "uint256",
          "name": "_value",
          "type": "uint256"
        }
      ],
      "name": "setPromotionPrice",
      "outputs": [],
      "stateMutability": "nonpayable",
      "type": "function"
    },
    {
      "inputs": [
        {
          "internalType": "uint256",
          "name": "_id",
          "type": "uint256"
        }
      ],
      "name": "promote",
      "outputs": [],
      "stateMutability": "payable",
      "type": "function"
    },
    {
      "inputs": [
        {
          "internalType": "uint256[]",
          "name": "_ids",
          "type": "uint256[]"
        }
      ],
      "name": "removePromotions",
      "outputs": [],
      "stateMutability": "nonpayable",
      "type": "function"
    },
    {
      "inputs": [
        {
          "internalType": "uint256[]",
          "name": "_ids",
          "type": "uint256[]"
        }
      ],
      "name": "approveNFT",
      "outputs": [],
      "stateMutability": "nonpayable",
      "type": "function"
    }
  ],
  "bytecode": "0x60806040523480156200001157600080fd5b5060405162003ad038038062003ad0833981810160405281019062000037919062000247565b82600460006101000a81548173ffffffffffffffffffffffffffffffffffffffff021916908373ffffffffffffffffffffffffffffffffffffffff16021790555033600560006101000a81548173ffffffffffffffffffffffffffffffffffffffff021916908373ffffffffffffffffffffffffffffffffffffffff160217905550600460009054906101000a900473ffffffffffffffffffffffffffffffffffffffff1673ffffffffffffffffffffffffffffffffffffffff1663e14891916040518163ffffffff1660e01b8152600401602060405180830381865afa15801562000127573d6000803e3d6000fd5b505050506040513d601f19601f820116820180604052508101906200014d9190620002de565b60028190555081600160006101000a81548173ffffffffffffffffffffffffffffffffffffffff021916908373ffffffffffffffffffffffffffffffffffffffff160217905550806000806101000a81548173ffffffffffffffffffffffffffffffffffffffff021916908373ffffffffffffffffffffffffffffffffffffffff16021790555050505062000310565b600080fd5b600073ffffffffffffffffffffffffffffffffffffffff82169050919050565b60006200020f82620001e2565b9050919050565b620002218162000202565b81146200022d57600080fd5b50565b600081519050620002418162000216565b92915050565b600080600060608486031215620002635762000262620001dd565b5b6000620002738682870162000230565b9350506020620002868682870162000230565b9250506040620002998682870162000230565b9150509250925092565b6000819050919050565b620002b881620002a3565b8114620002c457600080fd5b50565b600081519050620002d881620002ad565b92915050565b600060208284031215620002f757620002f6620001dd565b5b60006200030784828501620002c7565b91505092915050565b6137b080620003206000396000f3fe6080604052600436106100f75760003560e01c80635bd5bac11161008a5780638da5cb5b116100595780638da5cb5b1461030e5780639df51b8914610339578063bd94b00514610350578063f9ff091e14610379576100f8565b80635bd5bac1146102395780637ee454cb146102645780638387c6e11461028f5780638a72ea6a146102cc576100f8565b8063334cfede116100c6578063334cfede146101af57806351ed8288146101d85780635455429e146101f45780635727935314610210576100f8565b80630e373f9a146101095780631115c24d14610132578063138ff0d01461015d5780632787258314610186576100f8565b5b34801561010457600080fd5b600080fd5b34801561011557600080fd5b50610130600480360381019061012b9190612419565b6103b6565b005b34801561013e57600080fd5b50610147610410565b6040516101549190612468565b60405180910390f35b34801561016957600080fd5b50610184600480360381019061017f9190612483565b610416565b005b34801561019257600080fd5b506101ad60048036038101906101a89190612609565b610420565b005b3480156101bb57600080fd5b506101d660048036038101906101d19190612609565b6105c9565b005b6101f260048036038101906101ed9190612483565b610772565b005b61020e60048036038101906102099190612483565b610f9c565b005b34801561021c57600080fd5b5061023760048036038101906102329190612652565b6111af565b005b34801561024557600080fd5b5061024e611722565b60405161025b9190612468565b60405180910390f35b34801561027057600080fd5b50610279611728565b604051610286919061278e565b60405180910390f35b34801561029b57600080fd5b506102b660048036038101906102b191906127b0565b611a2d565b6040516102c39190612468565b60405180910390f35b3480156102d857600080fd5b506102f360048036038101906102ee9190612483565b611a45565b60405161030596959493929190612807565b60405180910390f35b34801561031a57600080fd5b50610323611abb565b6040516103309190612889565b60405180910390f35b34801561034557600080fd5b5061034e611ae1565b005b34801561035c57600080fd5b5061037760048036038101906103729190612483565b611d7b565b005b34801561038557600080fd5b506103a0600480360381019061039b91906127b0565b612285565b6040516103ad9190612468565b60405180910390f35b80600960008473ffffffffffffffffffffffffffffffffffffffff1673ffffffffffffffffffffffffffffffffffffffff168152602001908152602001600020600082825461040591906128d3565b925050819055505050565b60035481565b8060068190555050565b60005b81518110156105c557600080600080600460009054906101000a900473ffffffffffffffffffffffffffffffffffffffff1673ffffffffffffffffffffffffffffffffffffffff1663fc314e3187878151811061048357610482612907565b5b60200260200101516040518263ffffffff1660e01b81526004016104a79190612468565b600060405180830381865afa1580156104c4573d6000803e3d6000fd5b505050506040513d6000823e3d601f19601f820116820180604052508101906104ed9190612bde565b509950995050505096509650505050600460009054906101000a900473ffffffffffffffffffffffffffffffffffffffff1673ffffffffffffffffffffffffffffffffffffffff1663d04dd45887878151811061054d5761054c612907565b5b60200260200101518686600087876040518763ffffffff1660e01b815260040161057c96959493929190612cee565b600060405180830381600087803b15801561059657600080fd5b505af11580156105aa573d6000803e3d6000fd5b505050505050505080806105bd90612d4f565b915050610423565b5050565b60005b815181101561076e57600080600080600460009054906101000a900473ffffffffffffffffffffffffffffffffffffffff1673ffffffffffffffffffffffffffffffffffffffff1663fc314e3187878151811061062c5761062b612907565b5b60200260200101516040518263ffffffff1660e01b81526004016106509190612468565b600060405180830381865afa15801561066d573d6000803e3d6000fd5b505050506040513d6000823e3d601f19601f820116820180604052508101906106969190612bde565b509950509850505096509650505050600460009054906101000a900473ffffffffffffffffffffffffffffffffffffffff1673ffffffffffffffffffffffffffffffffffffffff1663d04dd4588787815181106106f6576106f5612907565b5b60200260200101518686866001876040518763ffffffff1660e01b815260040161072596959493929190612cee565b600060405180830381600087803b15801561073f57600080fd5b505af1158015610753573d6000803e3d6000fd5b5050505050505050808061076690612d4f565b9150506105cc565b5050565b6000600760008381526020019081526020016000209050818160000154146107cf576040517f08c379a00000000000000000000000000000000000000000000000000000000081526004016107c690612df4565b60405180910390fd5b3373ffffffffffffffffffffffffffffffffffffffff168160020160009054906101000a900473ffffffffffffffffffffffffffffffffffffffff1673ffffffffffffffffffffffffffffffffffffffff1603610861576040517f08c379a000000000000000000000000000000000000000000000000000000000815260040161085890612df4565b60405180910390fd5b8060040160009054906101000a900460ff16156108b3576040517f08c379a00000000000000000000000000000000000000000000000000000000081526004016108aa90612df4565b60405180910390fd5b8060040160019054906101000a900460ff1615610905576040517f08c379a00000000000000000000000000000000000000000000000000000000081526004016108fc90612df4565b60405180910390fd5b8060030154341461094b576040517f08c379a000000000000000000000000000000000000000000000000000000000815260040161094290612df4565b60405180910390fd5b600081600101549050600080600080600080600460009054906101000a900473ffffffffffffffffffffffffffffffffffffffff1673ffffffffffffffffffffffffffffffffffffffff1663fc314e31886040518263ffffffff1660e01b81526004016109b89190612468565b600060405180830381865afa1580156109d5573d6000803e3d6000fd5b505050506040513d6000823e3d601f19601f820116820180604052508101906109fe9190612bde565b5099509950505097509750975097505050600460009054906101000a900473ffffffffffffffffffffffffffffffffffffffff1673ffffffffffffffffffffffffffffffffffffffff16639673d61e86338a6040518463ffffffff1660e01b8152600401610a6e93929190612e14565b600060405180830381600087803b158015610a8857600080fd5b505af1158015610a9c573d6000803e3d6000fd5b50505050600460009054906101000a900473ffffffffffffffffffffffffffffffffffffffff1673ffffffffffffffffffffffffffffffffffffffff166323b872dd30338a6040518463ffffffff1660e01b8152600401610aff93929190612e14565b600060405180830381600087803b158015610b1957600080fd5b505af1158015610b2d573d6000803e3d6000fd5b5050505060008054906101000a900473ffffffffffffffffffffffffffffffffffffffff1673ffffffffffffffffffffffffffffffffffffffff1663fd17c3a4883033886040518563ffffffff1660e01b8152600401610b909493929190612e4b565b600060405180830381600087803b158015610baa57600080fd5b505af1158015610bbe573d6000803e3d6000fd5b5050505083600960008773ffffffffffffffffffffffffffffffffffffffff1673ffffffffffffffffffffffffffffffffffffffff1681526020019081526020016000206000828254610c1191906128d3565b9250508190555060008054906101000a900473ffffffffffffffffffffffffffffffffffffffff1673ffffffffffffffffffffffffffffffffffffffff166364c9fb67883033886040518563ffffffff1660e01b8152600401610c779493929190612e4b565b600060405180830381600087803b158015610c9157600080fd5b505af1158015610ca5573d6000803e3d6000fd5b5050505060018860040160006101000a81548160ff0219169083151502179055506000610cd2858561229d565b90506000610cdf866122cd565b9050610d0682610cf883896122ff90919063ffffffff16565b6122ff90919063ffffffff16565b600860008973ffffffffffffffffffffffffffffffffffffffff1673ffffffffffffffffffffffffffffffffffffffff1681526020019081526020016000206000828254610d5491906128d3565b925050819055508060086000600560009054906101000a900473ffffffffffffffffffffffffffffffffffffffff1673ffffffffffffffffffffffffffffffffffffffff1673ffffffffffffffffffffffffffffffffffffffff1681526020019081526020016000206000828254610dcc91906128d3565b9250508190555081600860008a73ffffffffffffffffffffffffffffffffffffffff1673ffffffffffffffffffffffffffffffffffffffff1681526020019081526020016000206000828254610e2291906128d3565b92505081905550600160009054906101000a900473ffffffffffffffffffffffffffffffffffffffff1673ffffffffffffffffffffffffffffffffffffffff1663b7c2f3a7333485856040518563ffffffff1660e01b8152600401610e8a9493929190612edc565b600060405180830381600087803b158015610ea457600080fd5b505af1158015610eb8573d6000803e3d6000fd5b50505050600460009054906101000a900473ffffffffffffffffffffffffffffffffffffffff1673ffffffffffffffffffffffffffffffffffffffff1663d04dd4588a3389600089896040518763ffffffff1660e01b8152600401610f2296959493929190612cee565b600060405180830381600087803b158015610f3c57600080fd5b505af1158015610f50573d6000803e3d6000fd5b505050507f312d374c509e2f9f5e07168706d6940c28997b883438bb5586553c347aa9e9b6898c33604051610f8793929190612f34565b60405180910390a15050505050505050505050565b6006543414610fe0576040517f08c379a0000000000000000000000000000000000000000000000000000000008152600401610fd790612df4565b60405180910390fd5b600080600080600460009054906101000a900473ffffffffffffffffffffffffffffffffffffffff1673ffffffffffffffffffffffffffffffffffffffff1663fc314e31866040518263ffffffff1660e01b81526004016110419190612468565b600060405180830381865afa15801561105e573d6000803e3d6000fd5b505050506040513d6000823e3d601f19601f820116820180604052508101906110879190612bde565b50995099505050509650965050505060065460086000600560009054906101000a900473ffffffffffffffffffffffffffffffffffffffff1673ffffffffffffffffffffffffffffffffffffffff1673ffffffffffffffffffffffffffffffffffffffff168152602001908152602001600020600082825461110991906128d3565b92505081905550600460009054906101000a900473ffffffffffffffffffffffffffffffffffffffff1673ffffffffffffffffffffffffffffffffffffffff1663d04dd458868686600187876040518763ffffffff1660e01b815260040161117696959493929190612cee565b600060405180830381600087803b15801561119057600080fd5b505af11580156111a4573d6000803e3d6000fd5b505050505050505050565b6000806000806000600460009054906101000a900473ffffffffffffffffffffffffffffffffffffffff1673ffffffffffffffffffffffffffffffffffffffff1663fc314e31886040518263ffffffff1660e01b81526004016112129190612468565b600060405180830381865afa15801561122f573d6000803e3d6000fd5b505050506040513d6000823e3d601f19601f820116820180604052508101906112589190612bde565b509950995099505098505097505050503373ffffffffffffffffffffffffffffffffffffffff168573ffffffffffffffffffffffffffffffffffffffff16146112d6576040517f08c379a00000000000000000000000000000000000000000000000000000000081526004016112cd90612df4565b60405180910390fd5b600460009054906101000a900473ffffffffffffffffffffffffffffffffffffffff1673ffffffffffffffffffffffffffffffffffffffff166323b872dd86308a6040518463ffffffff1660e01b815260040161133593929190612e14565b600060405180830381600087803b15801561134f57600080fd5b505af1158015611363573d6000803e3d6000fd5b5050505060008054906101000a900473ffffffffffffffffffffffffffffffffffffffff1673ffffffffffffffffffffffffffffffffffffffff1663fd17c3a48887308a6040518563ffffffff1660e01b81526004016113c69493929190612e4b565b600060405180830381600087803b1580156113e057600080fd5b505af11580156113f4573d6000803e3d6000fd5b5050505060008054906101000a900473ffffffffffffffffffffffffffffffffffffffff1673ffffffffffffffffffffffffffffffffffffffff166364c9fb678887308a6040518563ffffffff1660e01b81526004016114579493929190612e4b565b600060405180830381600087803b15801561147157600080fd5b505af1158015611485573d6000803e3d6000fd5b50505050600460009054906101000a900473ffffffffffffffffffffffffffffffffffffffff1673ffffffffffffffffffffffffffffffffffffffff1663d04dd4588887898787876040518763ffffffff1660e01b81526004016114ee96959493929190612cee565b600060405180830381600087803b15801561150857600080fd5b505af115801561151c573d6000803e3d6000fd5b505050506003600081548092919061153390612d4f565b91905055506040518060c0016040528060035481526020018881526020018673ffffffffffffffffffffffffffffffffffffffff16815260200187815260200160001515815260200160001515815250600760006003548152602001908152602001600020600082015181600001556020820151816001015560408201518160020160006101000a81548173ffffffffffffffffffffffffffffffffffffffff021916908373ffffffffffffffffffffffffffffffffffffffff1602179055506060820151816003015560808201518160040160006101000a81548160ff02191690831515021790555060a08201518160040160016101000a81548160ff021916908315150217905550905050600160009054906101000a900473ffffffffffffffffffffffffffffffffffffffff1673ffffffffffffffffffffffffffffffffffffffff1663b7c2f3a78688876002546040518563ffffffff1660e01b81526004016116a39493929190612fb7565b600060405180830381600087803b1580156116bd57600080fd5b505af11580156116d1573d6000803e3d6000fd5b505050507f93e711896d4ef527d199d7e101922e20f918cbb248a0fb0977c52fda24aa1f1d60035488878960008060405161171196959493929190612807565b60405180910390a150505050505050565b60065481565b60606000600160009054906101000a900473ffffffffffffffffffffffffffffffffffffffff1673ffffffffffffffffffffffffffffffffffffffff166306661abd6040518163ffffffff1660e01b8152600401602060405180830381865afa158015611799573d6000803e3d6000fd5b505050506040513d601f19601f820116820180604052508101906117bd919061300f565b67ffffffffffffffff8111156117d6576117d56124c6565b5b60405190808252806020026020018201604052801561180f57816020015b6117fc612341565b8152602001906001900390816117f45790505b50905060005b600160009054906101000a900473ffffffffffffffffffffffffffffffffffffffff1673ffffffffffffffffffffffffffffffffffffffff166306661abd6040518163ffffffff1660e01b8152600401602060405180830381865afa158015611882573d6000803e3d6000fd5b505050506040513d601f19601f820116820180604052508101906118a6919061300f565b811015611a25576000600160009054906101000a900473ffffffffffffffffffffffffffffffffffffffff1673ffffffffffffffffffffffffffffffffffffffff1663365b98b2836040518263ffffffff1660e01b815260040161190a9190612468565b600060405180830381865afa158015611927573d6000803e3d6000fd5b505050506040513d6000823e3d601f19601f82011682018060405250810190611950919061303c565b505050505050505050509050808383815181106119705761196f612907565b5b60200260200101516000019073ffffffffffffffffffffffffffffffffffffffff16908173ffffffffffffffffffffffffffffffffffffffff1681525050600960008273ffffffffffffffffffffffffffffffffffffffff1673ffffffffffffffffffffffffffffffffffffffff16815260200190815260200160002054838381518110611a0157611a00612907565b5b60200260200101516020018181525050508080611a1d90612d4f565b915050611815565b508091505090565b60086020528060005260406000206000915090505481565b60076020528060005260406000206000915090508060000154908060010154908060020160009054906101000a900473ffffffffffffffffffffffffffffffffffffffff16908060030154908060040160009054906101000a900460ff16908060040160019054906101000a900460ff16905086565b600560009054906101000a900473ffffffffffffffffffffffffffffffffffffffff1681565b6000600860003373ffffffffffffffffffffffffffffffffffffffff1673ffffffffffffffffffffffffffffffffffffffff1681526020019081526020016000205411611b63576040517f08c379a0000000000000000000000000000000000000000000000000000000008152600401611b5a90613294565b60405180910390fd5b3373ffffffffffffffffffffffffffffffffffffffff166108fc600860003373ffffffffffffffffffffffffffffffffffffffff1673ffffffffffffffffffffffffffffffffffffffff168152602001908152602001600020549081150290604051600060405180830381858888f19350505050158015611be8573d6000803e3d6000fd5b50600160009054906101000a900473ffffffffffffffffffffffffffffffffffffffff1673ffffffffffffffffffffffffffffffffffffffff1663b7c2f3a733600860003373ffffffffffffffffffffffffffffffffffffffff1673ffffffffffffffffffffffffffffffffffffffff168152602001908152602001600020546000806040518563ffffffff1660e01b8152600401611c8a9493929190613345565b600060405180830381600087803b158015611ca457600080fd5b505af1158015611cb8573d6000803e3d6000fd5b505050507f4f0554190111f93f8c2ccef2cc41473f187d7f29ff5a5c308ca41f9dfe4e989a33600860003373ffffffffffffffffffffffffffffffffffffffff1673ffffffffffffffffffffffffffffffffffffffff16815260200190815260200160002054604051611d2c92919061339d565b60405180910390a16000600860003373ffffffffffffffffffffffffffffffffffffffff1673ffffffffffffffffffffffffffffffffffffffff16815260200190815260200160002081905550565b600060076000838152602001908152602001600020905081816000015414611dd8576040517f08c379a0000000000000000000000000000000000000000000000000000000008152600401611dcf90613412565b60405180910390fd5b3373ffffffffffffffffffffffffffffffffffffffff168160020160009054906101000a900473ffffffffffffffffffffffffffffffffffffffff1673ffffffffffffffffffffffffffffffffffffffff1614611e6a576040517f08c379a0000000000000000000000000000000000000000000000000000000008152600401611e61906134a4565b60405180910390fd5b600015158160040160009054906101000a900460ff16151514611ec2576040517f08c379a0000000000000000000000000000000000000000000000000000000008152600401611eb990613536565b60405180910390fd5b600015158160040160019054906101000a900460ff16151514611f1a576040517f08c379a0000000000000000000000000000000000000000000000000000000008152600401611f11906135c8565b60405180910390fd5b600080600460009054906101000a900473ffffffffffffffffffffffffffffffffffffffff1673ffffffffffffffffffffffffffffffffffffffff1663fc314e3184600101546040518263ffffffff1660e01b8152600401611f7c9190612468565b600060405180830381865afa158015611f99573d6000803e3d6000fd5b505050506040513d6000823e3d601f19601f82011682018060405250810190611fc29190612bde565b50505050509550955050505050600460009054906101000a900473ffffffffffffffffffffffffffffffffffffffff1673ffffffffffffffffffffffffffffffffffffffff166323b872dd303386600101546040518463ffffffff1660e01b815260040161203293929190612e14565b600060405180830381600087803b15801561204c57600080fd5b505af1158015612060573d6000803e3d6000fd5b5050505060008054906101000a900473ffffffffffffffffffffffffffffffffffffffff1673ffffffffffffffffffffffffffffffffffffffff1663fd17c3a484600101543033866040518563ffffffff1660e01b81526004016120c79493929190612e4b565b600060405180830381600087803b1580156120e157600080fd5b505af11580156120f5573d6000803e3d6000fd5b5050505060008054906101000a900473ffffffffffffffffffffffffffffffffffffffff1673ffffffffffffffffffffffffffffffffffffffff166364c9fb6784600101543033866040518563ffffffff1660e01b815260040161215c9493929190612e4b565b600060405180830381600087803b15801561217657600080fd5b505af115801561218a573d6000803e3d6000fd5b5050505060018360040160016101000a81548160ff021916908315150217905550600160009054906101000a900473ffffffffffffffffffffffffffffffffffffffff1673ffffffffffffffffffffffffffffffffffffffff1663b7c2f3a73384846002546040518563ffffffff1660e01b815260040161220e9493929190613634565b600060405180830381600087803b15801561222857600080fd5b505af115801561223c573d6000803e3d6000fd5b505050507f7e2dc6ffbcb42bc3e3ce1a88a30b85843ac074f2b2433c06bcbd8dec369bdef98484600101543360405161227793929190612f34565b60405180910390a150505050565b60096020528060005260406000206000915090505481565b60006122c560646122b7848661231590919063ffffffff16565b61232b90919063ffffffff16565b905092915050565b60006122f86103e86122ea6002548561231590919063ffffffff16565b61232b90919063ffffffff16565b9050919050565b6000818361230d919061368c565b905092915050565b6000818361232391906136c0565b905092915050565b600081836123399190613749565b905092915050565b6040518060400160405280600073ffffffffffffffffffffffffffffffffffffffff168152602001600081525090565b6000604051905090565b600080fd5b600080fd5b600073ffffffffffffffffffffffffffffffffffffffff82169050919050565b60006123b082612385565b9050919050565b6123c0816123a5565b81146123cb57600080fd5b50565b6000813590506123dd816123b7565b92915050565b6000819050919050565b6123f6816123e3565b811461240157600080fd5b50565b600081359050612413816123ed565b92915050565b600080604083850312156124305761242f61237b565b5b600061243e858286016123ce565b925050602061244f85828601612404565b9150509250929050565b612462816123e3565b82525050565b600060208201905061247d6000830184612459565b92915050565b6000602082840312156124995761249861237b565b5b60006124a784828501612404565b91505092915050565b600080fd5b6000601f19601f8301169050919050565b7f4e487b7100000000000000000000000000000000000000000000000000000000600052604160045260246000fd5b6124fe826124b5565b810181811067ffffffffffffffff8211171561251d5761251c6124c6565b5b80604052505050565b6000612530612371565b905061253c82826124f5565b919050565b600067ffffffffffffffff82111561255c5761255b6124c6565b5b602082029050602081019050919050565b600080fd5b600061258561258084612541565b612526565b905080838252602082019050602084028301858111156125a8576125a761256d565b5b835b818110156125d157806125bd8882612404565b8452602084019350506020810190506125aa565b5050509392505050565b600082601f8301126125f0576125ef6124b0565b5b8135612600848260208601612572565b91505092915050565b60006020828403121561261f5761261e61237b565b5b600082013567ffffffffffffffff81111561263d5761263c612380565b5b612649848285016125db565b91505092915050565b600080604083850312156126695761266861237b565b5b600061267785828601612404565b925050602061268885828601612404565b9150509250929050565b600081519050919050565b600082825260208201905092915050565b6000819050602082019050919050565b6126c7816123a5565b82525050565b6126d6816123e3565b82525050565b6040820160008201516126f260008501826126be565b50602082015161270560208501826126cd565b50505050565b600061271783836126dc565b60408301905092915050565b6000602082019050919050565b600061273b82612692565b612745818561269d565b9350612750836126ae565b8060005b83811015612781578151612768888261270b565b975061277383612723565b925050600181019050612754565b5085935050505092915050565b600060208201905081810360008301526127a88184612730565b905092915050565b6000602082840312156127c6576127c561237b565b5b60006127d4848285016123ce565b91505092915050565b6127e6816123a5565b82525050565b60008115159050919050565b612801816127ec565b82525050565b600060c08201905061281c6000830189612459565b6128296020830188612459565b61283660408301876127dd565b6128436060830186612459565b61285060808301856127f8565b61285d60a08301846127f8565b979650505050505050565b600061287382612385565b9050919050565b61288381612868565b82525050565b600060208201905061289e600083018461287a565b92915050565b7f4e487b7100000000000000000000000000000000000000000000000000000000600052601160045260246000fd5b60006128de826123e3565b91506128e9836123e3565b9250828201905080821115612901576129006128a4565b5b92915050565b7f4e487b7100000000000000000000000000000000000000000000000000000000600052603260045260246000fd5b600080fd5b600080fd5b600080fd5b600067ffffffffffffffff8211156129605761295f6124c6565b5b612969826124b5565b9050602081019050919050565b60005b83811015612994578082015181840152602081019050612979565b60008484015250505050565b60006129b36129ae84612945565b612526565b9050828152602081018484840111156129cf576129ce612940565b5b6129da848285612976565b509392505050565b600082601f8301126129f7576129f66124b0565b5b8151612a078482602086016129a0565b91505092915050565b600060e08284031215612a2657612a25612936565b5b612a3060e0612526565b9050600082015167ffffffffffffffff811115612a5057612a4f61293b565b5b612a5c848285016129e2565b600083015250602082015167ffffffffffffffff811115612a8057612a7f61293b565b5b612a8c848285016129e2565b602083015250604082015167ffffffffffffffff811115612ab057612aaf61293b565b5b612abc848285016129e2565b604083015250606082015167ffffffffffffffff811115612ae057612adf61293b565b5b612aec848285016129e2565b606083015250608082015167ffffffffffffffff811115612b1057612b0f61293b565b5b612b1c848285016129e2565b60808301525060a082015167ffffffffffffffff811115612b4057612b3f61293b565b5b612b4c848285016129e2565b60a08301525060c082015167ffffffffffffffff811115612b7057612b6f61293b565b5b612b7c848285016129e2565b60c08301525092915050565b600081519050612b97816123ed565b92915050565b600081519050612bac816123b7565b92915050565b612bbb816127ec565b8114612bc657600080fd5b50565b600081519050612bd881612bb2565b92915050565b60008060008060008060008060008060006101608c8e031215612c0457612c0361237b565b5b60008c015167ffffffffffffffff811115612c2257612c21612380565b5b612c2e8e828f01612a10565b9b50506020612c3f8e828f01612b88565b9a50506040612c508e828f01612b9d565b9950506060612c618e828f01612b9d565b9850506080612c728e828f01612b88565b97505060a0612c838e828f01612b88565b96505060c0612c948e828f01612b88565b95505060e0612ca58e828f01612bc9565b945050610100612cb78e828f01612bc9565b935050610120612cc98e828f01612bc9565b925050610140612cdb8e828f01612b88565b9150509295989b509295989b9093969950565b600060c082019050612d036000830189612459565b612d1060208301886127dd565b612d1d6040830187612459565b612d2a60608301866127f8565b612d3760808301856127f8565b612d4460a08301846127f8565b979650505050505050565b6000612d5a826123e3565b91507fffffffffffffffffffffffffffffffffffffffffffffffffffffffffffffffff8203612d8c57612d8b6128a4565b5b600182019050919050565b600082825260208201905092915050565b7f6572726f72000000000000000000000000000000000000000000000000000000600082015250565b6000612dde600583612d97565b9150612de982612da8565b602082019050919050565b60006020820190508181036000830152612e0d81612dd1565b9050919050565b6000606082019050612e2960008301866127dd565b612e3660208301856127dd565b612e436040830184612459565b949350505050565b6000608082019050612e606000830187612459565b612e6d60208301866127dd565b612e7a60408301856127dd565b612e876060830184612459565b95945050505050565b7f427579204e465400000000000000000000000000000000000000000000000000600082015250565b6000612ec6600783612d97565b9150612ed182612e90565b602082019050919050565b600060a082019050612ef160008301876127dd565b612efe6020830186612459565b612f0b6040830185612459565b612f186060830184612459565b8181036080830152612f2981612eb9565b905095945050505050565b6000606082019050612f496000830186612459565b612f566020830185612459565b612f6360408301846127dd565b949350505050565b7f4d616b65204f6666657200000000000000000000000000000000000000000000600082015250565b6000612fa1600a83612d97565b9150612fac82612f6b565b602082019050919050565b600060a082019050612fcc60008301876127dd565b612fd96020830186612459565b612fe66040830185612459565b612ff36060830184612459565b818103608083015261300481612f94565b905095945050505050565b6000602082840312156130255761302461237b565b5b600061303384828501612b88565b91505092915050565b60008060008060008060008060008060006101608c8e0312156130625761306161237b565b5b60006130708e828f01612b9d565b9b505060208c015167ffffffffffffffff81111561309157613090612380565b5b61309d8e828f016129e2565b9a505060408c015167ffffffffffffffff8111156130be576130bd612380565b5b6130ca8e828f016129e2565b99505060608c015167ffffffffffffffff8111156130eb576130ea612380565b5b6130f78e828f016129e2565b98505060808c015167ffffffffffffffff81111561311857613117612380565b5b6131248e828f016129e2565b97505060a08c015167ffffffffffffffff81111561314557613144612380565b5b6131518e828f016129e2565b96505060c08c015167ffffffffffffffff81111561317257613171612380565b5b61317e8e828f016129e2565b95505060e08c015167ffffffffffffffff81111561319f5761319e612380565b5b6131ab8e828f016129e2565b9450506101008c015167ffffffffffffffff8111156131cd576131cc612380565b5b6131d98e828f016129e2565b9350506101208c015167ffffffffffffffff8111156131fb576131fa612380565b5b6132078e828f016129e2565b9250506101408c015167ffffffffffffffff81111561322957613228612380565b5b6132358e828f016129e2565b9150509295989b509295989b9093969950565b7f6e6f2066756e6473000000000000000000000000000000000000000000000000600082015250565b600061327e600883612d97565b915061328982613248565b602082019050919050565b600060208201905081810360008301526132ad81613271565b9050919050565b6000819050919050565b6000819050919050565b60006132e36132de6132d9846132b4565b6132be565b6123e3565b9050919050565b6132f3816132c8565b82525050565b7f436c61696d2046756e6473000000000000000000000000000000000000000000600082015250565b600061332f600b83612d97565b915061333a826132f9565b602082019050919050565b600060a08201905061335a60008301876127dd565b6133676020830186612459565b61337460408301856132ea565b61338160608301846132ea565b818103608083015261339281613322565b905095945050505050565b60006040820190506133b260008301856127dd565b6133bf6020830184612459565b9392505050565b7f546865206f66666572206d757374206578697374000000000000000000000000600082015250565b60006133fc601483612d97565b9150613407826133c6565b602082019050919050565b6000602082019050818103600083015261342b816133ef565b9050919050565b7f546865206f666665722063616e206f6e6c792062652063616e63656c6564206260008201527f7920746865206f776e6572000000000000000000000000000000000000000000602082015250565b600061348e602b83612d97565b915061349982613432565b604082019050919050565b600060208201905081810360008301526134bd81613481565b9050919050565b7f412066756c66696c6c6564206f666665722063616e6e6f742062652063616e6360008201527f656c6c6564000000000000000000000000000000000000000000000000000000602082015250565b6000613520602583612d97565b915061352b826134c4565b604082019050919050565b6000602082019050818103600083015261354f81613513565b9050919050565b7f416e206f666665722063616e6e6f742062652063616e63656c6c65642074776960008201527f6365000000000000000000000000000000000000000000000000000000000000602082015250565b60006135b2602283612d97565b91506135bd82613556565b604082019050919050565b600060208201905081810360008301526135e1816135a5565b9050919050565b7f43616e63656c204f666665720000000000000000000000000000000000000000600082015250565b600061361e600c83612d97565b9150613629826135e8565b602082019050919050565b600060a08201905061364960008301876127dd565b6136566020830186612459565b6136636040830185612459565b6136706060830184612459565b818103608083015261368181613611565b905095945050505050565b6000613697826123e3565b91506136a2836123e3565b92508282039050818111156136ba576136b96128a4565b5b92915050565b60006136cb826123e3565b91506136d6836123e3565b9250817fffffffffffffffffffffffffffffffffffffffffffffffffffffffffffffffff048311821515161561370f5761370e6128a4565b5b828202905092915050565b7f4e487b7100000000000000000000000000000000000000000000000000000000600052601260045260246000fd5b6000613754826123e3565b915061375f836123e3565b92508261376f5761376e61371a565b5b82820490509291505056fea2646970667358221220c164147b3e1609f113932553115bc1072e061b3fb655138f6f14899f073addd164736f6c63430008100033",
  "immutableReferences": {},
  "source": "// SPDX-License-Identifier: MIT\npragma solidity >=0.4.17 <8.10.0;\n\nimport \"./Collectible.sol\";\nimport \"./NFTAnalytics.sol\";\nimport \"./UserInfo.sol\";\nimport \"../client/node_modules/@openzeppelin/contracts/utils/math/SafeMath.sol\";\n\n\ncontract Marketplace {\n  using SafeMath for uint256;\n\n  NFTAnalytics analytics;\n  UserInfo user;\n  uint256 commission_;\n  uint public offerCount;\n  Collectible collectible;\n  address payable public owner;\n  uint256 public promotionPrice;\n  mapping (uint => _Offer) public offers;\n  mapping (address => uint) public userFunds;\n  mapping(address => uint256) public sellerFunds;\n\n  struct Seller {\n    address _address;\n    uint _balance;\n  }\n  struct _Offer {\n    uint offerId;\n    uint id;\n    address user;\n    uint price;\n    bool fulfilled;\n    bool cancelled;\n  }\n\n  event ClaimFunds(address user, uint amount);\n  event SaleCancelled(uint offerId, uint id, address owner);\n  event BoughtNFT(uint256 _tokenId, uint256 _offerId, address winner);\n  event Offer(uint offerId, uint id, address user, uint price, bool fulfilled, bool cancelled);\n\n  constructor(address _nftCollection, address _user, address _analytics) {\n    collectible = Collectible(_nftCollection);\n    owner = payable(msg.sender);\n    commission_ = collectible.commission();\n    user = UserInfo(_user);\n    analytics = NFTAnalytics(_analytics);\n  }\n  \n  function addPrice(uint _id, uint _price) public {\n    (,,, address _owner,, uint256 _royality,, bool _promoted, bool _approved, bool inAuction,) = collectible.tokenDetails(_id);\n    require(_owner == msg.sender, \"error\");\n    collectible.transferFrom(_owner, address(this), _id);\n    analytics.setNFTTransactions(_id, _owner, address(this), _price);\n    analytics.setTransaction(_id, _owner, address(this), _price);\n    collectible.updateToken(_id, _owner, _price, _promoted, _approved, inAuction);\n    offerCount ++;\n    offers[offerCount] = _Offer(offerCount, _id, _owner, _price, false, false);\n    user.setActivity(_owner, _price, _royality, commission_, \"Make Offer\");\n    emit Offer(offerCount, _id, _owner, _price, false, false);\n  }\n\n  function buyNFT(uint _offerId) public payable {\n    _Offer storage _offer = offers[_offerId];\n    require(_offer.offerId == _offerId, 'error');\n    require(_offer.user != msg.sender, 'error');\n    require(!_offer.fulfilled, 'error');\n    require(!_offer.cancelled, 'error');\n    require(msg.value == _offer.price, 'error');\n    uint256 _id = _offer.id;\n    (,, address _creator, address _owner, uint256 _price, uint256 _royality,,, bool _approved, bool inAuction,) = collectible.tokenDetails(_id);\n    collectible.updateCollect(_owner, msg.sender, _id);\n    collectible.transferFrom(address(this), msg.sender, _id);\n    analytics.setNFTTransactions(_id, address(this), msg.sender, _price);\n    sellerFunds[_owner] += _price;\n    analytics.setTransaction(_id, address(this), msg.sender, _price);\n    _offer.fulfilled = true;\n    uint256 royality_ = calcRoyality(_price, _royality);\n    uint256 _commission = commission(_price);\n    userFunds[_owner] += _price.sub(_commission).sub(royality_);\n    userFunds[owner] += _commission;\n    userFunds[_creator] += royality_;\n    user.setActivity(msg.sender, msg.value, royality_, _commission, \"Buy NFT\");\n    collectible.updateToken(_id, msg.sender, _price, false, _approved, inAuction);\n    emit BoughtNFT(_id, _offerId, msg.sender);\n  }\n\n  function cancelSale(uint _offerId) public {\n    _Offer storage _offer = offers[_offerId];\n    require(_offer.offerId == _offerId, 'The offer must exist');\n    require(_offer.user == msg.sender, 'The offer can only be canceled by the owner');\n    require(_offer.fulfilled == false, 'A fulfilled offer cannot be cancelled');\n    require(_offer.cancelled == false, 'An offer cannot be cancelled twice');\n    (,,,, uint256 _price, uint256 _royality,,,,,) = collectible.tokenDetails(_offer.id);\n    collectible.transferFrom(address(this), msg.sender, _offer.id);\n    analytics.setNFTTransactions(_offer.id, address(this), msg.sender, _price);\n    analytics.setTransaction(_offer.id, address(this), msg.sender, _price);\n    _offer.cancelled = true;\n    user.setActivity(msg.sender, _price, _royality, commission_, \"Cancel Offer\");\n    emit SaleCancelled(_offerId, _offer.id, msg.sender);\n  }\n\n  function claimProfits() public {\n    require(userFunds[msg.sender] > 0, 'no funds');\n    payable(msg.sender).transfer(userFunds[msg.sender]);\n    user.setActivity(msg.sender, userFunds[msg.sender], 0, 0, \"Claim Funds\");\n    emit ClaimFunds(msg.sender, userFunds[msg.sender]);\n    userFunds[msg.sender] = 0;    \n  }\n\n  function getSellers() public view returns (Seller[] memory){\n    Seller[] memory _sellers = new Seller[](user.count());\n    for (uint256 i = 0; i < user.count(); i++) {\n      (address _address,,,,,,,,,,) = user.users(i);\n      _sellers[i]._address = _address;\n      _sellers[i]._balance = sellerFunds[_address];\n    }\n    return _sellers;\n  }\n\n  function setSellerFunds(address _address, uint256 _price) public{\n    sellerFunds[_address] += _price;\n  }\n\n  function setPromotionPrice(uint256 _value) public{\n    promotionPrice = _value;\n  }\n\n  function promote(uint _id) public payable{\n    require(msg.value == promotionPrice, \"error\");\n    (,,, address _owner, uint256 _price,,,,bool _approved, bool inAuction,) = collectible.tokenDetails(_id);\n    userFunds[owner] += promotionPrice;\n    collectible.updateToken(_id, _owner, _price, true, _approved, inAuction);\n  }\n\n  function removePromotions(uint256[] memory _ids) public{\n    for (uint256 i = 0; i < _ids.length; i++) {\n      (,,, address _owner, uint256 _price,,,,bool _approved, bool inAuction,) = collectible.tokenDetails(_ids[i]);\n    collectible.updateToken(_ids[i], _owner, _price, false, _approved, inAuction);\n    }\n  }\n\n  function approveNFT(uint[] memory _ids) public{\n    for (uint256 i = 0; i < _ids.length; i++) {\n      (,,, address _owner, uint256 _price,,, bool _promoted,, bool inAuction,) = collectible.tokenDetails(_ids[i]);\n      collectible.updateToken(_ids[i], _owner, _price, _promoted, true, inAuction);\n      \n    }\n  }\n\n  function commission(uint256 price) private view returns(uint256){\n        return (price.mul(commission_)).div(1000);\n  }\n\n  function calcRoyality(uint256 _price, uint256 _royality) private pure returns(uint256){\n        return (_price.mul(_royality)).div(100);\n  }\n\n  // Fallback: reverts if Ether is sent to this smart-contract by mistake\n  fallback () external {revert();}\n}",
  "sourcePath": "C:\\WORK\\ELYSIUM ALEX\\contracts\\Marketplace.sol",
  "compiler": {
    "name": "solc",
    "version": "0.8.16+commit.07a7930e.Emscripten.clang"
  },
  "schemaVersion": "3.4.4",
  "updatedAt": "2022-08-26T13:42:17.673Z",
  "devdoc": {
    "kind": "dev",
    "methods": {},
    "version": 1
  },
  "userdoc": {
    "kind": "user",
    "methods": {},
    "version": 1
  }
}