{
  "contractName": "NFTAnalytics",
  "abi": [
    {
      "inputs": [
        {
          "internalType": "address",
          "name": "_user",
          "type": "address"
        }
      ],
      "stateMutability": "nonpayable",
      "type": "constructor"
    },
    {
      "inputs": [
        {
          "internalType": "uint256",
          "name": "",
          "type": "uint256"
        },
        {
          "internalType": "uint256",
          "name": "",
          "type": "uint256"
        }
      ],
      "name": "nftTransactions",
      "outputs": [
        {
          "components": [
            {
              "internalType": "address",
              "name": "_address",
              "type": "address"
            },
            {
              "internalType": "string",
              "name": "_name",
              "type": "string"
            },
            {
              "internalType": "string",
              "name": "_avatar",
              "type": "string"
            }
          ],
          "internalType": "struct NFTAnalytics.Sender",
          "name": "from",
          "type": "tuple"
        },
        {
          "components": [
            {
              "internalType": "address",
              "name": "_address",
              "type": "address"
            },
            {
              "internalType": "string",
              "name": "_name",
              "type": "string"
            },
            {
              "internalType": "string",
              "name": "_avatar",
              "type": "string"
            }
          ],
          "internalType": "struct NFTAnalytics.Sender",
          "name": "to",
          "type": "tuple"
        },
        {
          "internalType": "uint256",
          "name": "time",
          "type": "uint256"
        },
        {
          "internalType": "uint256",
          "name": "price",
          "type": "uint256"
        }
      ],
      "stateMutability": "view",
      "type": "function"
    },
    {
      "inputs": [
        {
          "internalType": "uint256",
          "name": "",
          "type": "uint256"
        }
      ],
      "name": "transactions",
      "outputs": [
        {
          "components": [
            {
              "internalType": "address",
              "name": "_address",
              "type": "address"
            },
            {
              "internalType": "string",
              "name": "_name",
              "type": "string"
            },
            {
              "internalType": "string",
              "name": "_avatar",
              "type": "string"
            }
          ],
          "internalType": "struct NFTAnalytics.Sender",
          "name": "_from",
          "type": "tuple"
        },
        {
          "components": [
            {
              "internalType": "address",
              "name": "_address",
              "type": "address"
            },
            {
              "internalType": "string",
              "name": "_name",
              "type": "string"
            },
            {
              "internalType": "string",
              "name": "_avatar",
              "type": "string"
            }
          ],
          "internalType": "struct NFTAnalytics.Sender",
          "name": "_to",
          "type": "tuple"
        },
        {
          "internalType": "uint256",
          "name": "_id",
          "type": "uint256"
        },
        {
          "internalType": "uint256",
          "name": "_price",
          "type": "uint256"
        },
        {
          "internalType": "uint256",
          "name": "_time",
          "type": "uint256"
        }
      ],
      "stateMutability": "view",
      "type": "function"
    },
    {
      "inputs": [
        {
          "internalType": "uint256",
          "name": "_id",
          "type": "uint256"
        },
        {
          "internalType": "address",
          "name": "_from",
          "type": "address"
        },
        {
          "internalType": "address",
          "name": "_to",
          "type": "address"
        },
        {
          "internalType": "uint256",
          "name": "_price",
          "type": "uint256"
        }
      ],
      "name": "setNFTTransactions",
      "outputs": [],
      "stateMutability": "nonpayable",
      "type": "function"
    },
    {
      "inputs": [
        {
          "internalType": "uint256",
          "name": "_id",
          "type": "uint256"
        }
      ],
      "name": "getNFTTransactions",
      "outputs": [
        {
          "components": [
            {
              "components": [
                {
                  "internalType": "address",
                  "name": "_address",
                  "type": "address"
                },
                {
                  "internalType": "string",
                  "name": "_name",
                  "type": "string"
                },
                {
                  "internalType": "string",
                  "name": "_avatar",
                  "type": "string"
                }
              ],
              "internalType": "struct NFTAnalytics.Sender",
              "name": "from",
              "type": "tuple"
            },
            {
              "components": [
                {
                  "internalType": "address",
                  "name": "_address",
                  "type": "address"
                },
                {
                  "internalType": "string",
                  "name": "_name",
                  "type": "string"
                },
                {
                  "internalType": "string",
                  "name": "_avatar",
                  "type": "string"
                }
              ],
              "internalType": "struct NFTAnalytics.Sender",
              "name": "to",
              "type": "tuple"
            },
            {
              "internalType": "uint256",
              "name": "time",
              "type": "uint256"
            },
            {
              "internalType": "uint256",
              "name": "price",
              "type": "uint256"
            }
          ],
          "internalType": "struct NFTAnalytics.NFTTransactions[]",
          "name": "",
          "type": "tuple[]"
        }
      ],
      "stateMutability": "view",
      "type": "function"
    },
    {
      "inputs": [
        {
          "internalType": "uint256",
          "name": "_id",
          "type": "uint256"
        }
      ],
      "name": "deleteNftTrans",
      "outputs": [],
      "stateMutability": "nonpayable",
      "type": "function"
    },
    {
      "inputs": [
        {
          "internalType": "uint256",
          "name": "_id",
          "type": "uint256"
        },
        {
          "internalType": "address",
          "name": "_from",
          "type": "address"
        },
        {
          "internalType": "address",
          "name": "_to",
          "type": "address"
        },
        {
          "internalType": "uint256",
          "name": "_price",
          "type": "uint256"
        }
      ],
      "name": "setTransaction",
      "outputs": [],
      "stateMutability": "nonpayable",
      "type": "function"
    },
    {
      "inputs": [],
      "name": "get_transactions",
      "outputs": [
        {
          "components": [
            {
              "components": [
                {
                  "internalType": "address",
                  "name": "_address",
                  "type": "address"
                },
                {
                  "internalType": "string",
                  "name": "_name",
                  "type": "string"
                },
                {
                  "internalType": "string",
                  "name": "_avatar",
                  "type": "string"
                }
              ],
              "internalType": "struct NFTAnalytics.Sender",
              "name": "_from",
              "type": "tuple"
            },
            {
              "components": [
                {
                  "internalType": "address",
                  "name": "_address",
                  "type": "address"
                },
                {
                  "internalType": "string",
                  "name": "_name",
                  "type": "string"
                },
                {
                  "internalType": "string",
                  "name": "_avatar",
                  "type": "string"
                }
              ],
              "internalType": "struct NFTAnalytics.Sender",
              "name": "_to",
              "type": "tuple"
            },
            {
              "internalType": "uint256",
              "name": "_id",
              "type": "uint256"
            },
            {
              "internalType": "uint256",
              "name": "_price",
              "type": "uint256"
            },
            {
              "internalType": "uint256",
              "name": "_time",
              "type": "uint256"
            }
          ],
          "internalType": "struct NFTAnalytics.Transaction[]",
          "name": "",
          "type": "tuple[]"
        }
      ],
      "stateMutability": "view",
      "type": "function"
    },
    {
      "inputs": [
        {
          "internalType": "uint256",
          "name": "_id",
          "type": "uint256"
        }
      ],
      "name": "removeTransaction",
      "outputs": [],
      "stateMutability": "nonpayable",
      "type": "function"
    },
    {
      "inputs": [
        {
          "internalType": "address",
          "name": "_address",
          "type": "address"
        },
        {
          "internalType": "uint256",
          "name": "_price",
          "type": "uint256"
        },
        {
          "internalType": "uint256",
          "name": "_royality",
          "type": "uint256"
        },
        {
          "internalType": "uint256",
          "name": "_commission",
          "type": "uint256"
        },
        {
          "internalType": "string",
          "name": "_status",
          "type": "string"
        }
      ],
      "name": "setActivity",
      "outputs": [],
      "stateMutability": "nonpayable",
      "type": "function"
    }
  ],
  "bytecode": "0x60806040523480156200001157600080fd5b506040516200292b3803806200292b8339818101604052810190620000379190620000e8565b806000806101000a81548173ffffffffffffffffffffffffffffffffffffffff021916908373ffffffffffffffffffffffffffffffffffffffff160217905550506200011a565b600080fd5b600073ffffffffffffffffffffffffffffffffffffffff82169050919050565b6000620000b08262000083565b9050919050565b620000c281620000a3565b8114620000ce57600080fd5b50565b600081519050620000e281620000b7565b92915050565b6000602082840312156200010157620001006200007e565b5b60006200011184828501620000d1565b91505092915050565b612801806200012a6000396000f3fe608060405234801561001057600080fd5b50600436106100935760003560e01c80639ace38c2116100665780639ace38c21461011f578063a738643014610153578063b7c2f3a714610183578063fd17c3a41461019f578063fe813408146101bb57610093565b80630bc62de6146100985780630f22d6ed146100cb57806346c3bd1f146100e757806364c9fb6714610103575b600080fd5b6100b260048036038101906100ad91906118b1565b6101d9565b6040516100c29493929190611a28565b60405180910390f35b6100e560048036038101906100e09190611a7b565b61052e565b005b61010160048036038101906100fc9190611a7b565b610550565b005b61011d60048036038101906101189190611ad4565b61067d565b005b61013960048036038101906101349190611a7b565b610807565b60405161014a959493929190611b3b565b60405180910390f35b61016d60048036038101906101689190611a7b565b610b55565b60405161017a9190611d2e565b60405180910390f35b61019d60048036038101906101989190611e85565b610ef7565b005b6101b960048036038101906101b49190611ad4565b610f91565b005b6101c361111c565b6040516101d0919061205b565b60405180910390f35b600260205281600052604060002081815481106101f557600080fd5b906000526020600020906008020160009150915050806000016040518060600160405290816000820160009054906101000a900473ffffffffffffffffffffffffffffffffffffffff1673ffffffffffffffffffffffffffffffffffffffff1673ffffffffffffffffffffffffffffffffffffffff16815260200160018201805461027f906120ac565b80601f01602080910402602001604051908101604052809291908181526020018280546102ab906120ac565b80156102f85780601f106102cd576101008083540402835291602001916102f8565b820191906000526020600020905b8154815290600101906020018083116102db57829003601f168201915b50505050508152602001600282018054610311906120ac565b80601f016020809104026020016040519081016040528092919081815260200182805461033d906120ac565b801561038a5780601f1061035f5761010080835404028352916020019161038a565b820191906000526020600020905b81548152906001019060200180831161036d57829003601f168201915b50505050508152505090806003016040518060600160405290816000820160009054906101000a900473ffffffffffffffffffffffffffffffffffffffff1673ffffffffffffffffffffffffffffffffffffffff1673ffffffffffffffffffffffffffffffffffffffff168152602001600182018054610409906120ac565b80601f0160208091040260200160405190810160405280929190818152602001828054610435906120ac565b80156104825780601f1061045757610100808354040283529160200191610482565b820191906000526020600020905b81548152906001019060200180831161046557829003601f168201915b5050505050815260200160028201805461049b906120ac565b80601f01602080910402602001604051908101604052809291908181526020018280546104c7906120ac565b80156105145780601f106104e957610100808354040283529160200191610514565b820191906000526020600020905b8154815290600101906020018083116104f757829003601f168201915b505050505081525050908060060154908060070154905084565b60026000828152602001908152602001600020600061054d91906116b1565b50565b60005b600180549050811015610679578160018281548110610575576105746120dd565b5b9060005260206000209060090201600601540361066657600181815481106105a05761059f6120dd565b5b90600052602060002090600902016000808201600080820160006101000a81549073ffffffffffffffffffffffffffffffffffffffff02191690556001820160006105eb91906116d5565b6002820160006105fb91906116d5565b505060038201600080820160006101000a81549073ffffffffffffffffffffffffffffffffffffffff021916905560018201600061063991906116d5565b60028201600061064991906116d5565b505060068201600090556007820160009055600882016000905550505b80806106719061213b565b915050610553565b5050565b60006040518060a001604052806106938661152c565b81526020016106a18561152c565b8152602001868152602001838152602001428152509050600181908060018154018082558091505060019003906000526020600020906009020160009091909190915060008201518160000160008201518160000160006101000a81548173ffffffffffffffffffffffffffffffffffffffff021916908373ffffffffffffffffffffffffffffffffffffffff1602179055506020820151816001019081610749919061232f565b50604082015181600201908161075f919061232f565b50505060208201518160030160008201518160000160006101000a81548173ffffffffffffffffffffffffffffffffffffffff021916908373ffffffffffffffffffffffffffffffffffffffff16021790555060208201518160010190816107c7919061232f565b5060408201518160020190816107dd919061232f565b50505060408201518160060155606082015181600701556080820151816008015550505050505050565b6001818154811061081757600080fd5b9060005260206000209060090201600091509050806000016040518060600160405290816000820160009054906101000a900473ffffffffffffffffffffffffffffffffffffffff1673ffffffffffffffffffffffffffffffffffffffff1673ffffffffffffffffffffffffffffffffffffffff1681526020016001820180546108a0906120ac565b80601f01602080910402602001604051908101604052809291908181526020018280546108cc906120ac565b80156109195780601f106108ee57610100808354040283529160200191610919565b820191906000526020600020905b8154815290600101906020018083116108fc57829003601f168201915b50505050508152602001600282018054610932906120ac565b80601f016020809104026020016040519081016040528092919081815260200182805461095e906120ac565b80156109ab5780601f10610980576101008083540402835291602001916109ab565b820191906000526020600020905b81548152906001019060200180831161098e57829003601f168201915b50505050508152505090806003016040518060600160405290816000820160009054906101000a900473ffffffffffffffffffffffffffffffffffffffff1673ffffffffffffffffffffffffffffffffffffffff1673ffffffffffffffffffffffffffffffffffffffff168152602001600182018054610a2a906120ac565b80601f0160208091040260200160405190810160405280929190818152602001828054610a56906120ac565b8015610aa35780601f10610a7857610100808354040283529160200191610aa3565b820191906000526020600020905b815481529060010190602001808311610a8657829003601f168201915b50505050508152602001600282018054610abc906120ac565b80601f0160208091040260200160405190810160405280929190818152602001828054610ae8906120ac565b8015610b355780601f10610b0a57610100808354040283529160200191610b35565b820191906000526020600020905b815481529060010190602001808311610b1857829003601f168201915b505050505081525050908060060154908060070154908060080154905085565b606060026000838152602001908152602001600020805480602002602001604051908101604052809291908181526020016000905b82821015610eec5783829060005260206000209060080201604051806080016040529081600082016040518060600160405290816000820160009054906101000a900473ffffffffffffffffffffffffffffffffffffffff1673ffffffffffffffffffffffffffffffffffffffff1673ffffffffffffffffffffffffffffffffffffffff168152602001600182018054610c23906120ac565b80601f0160208091040260200160405190810160405280929190818152602001828054610c4f906120ac565b8015610c9c5780601f10610c7157610100808354040283529160200191610c9c565b820191906000526020600020905b815481529060010190602001808311610c7f57829003601f168201915b50505050508152602001600282018054610cb5906120ac565b80601f0160208091040260200160405190810160405280929190818152602001828054610ce1906120ac565b8015610d2e5780601f10610d0357610100808354040283529160200191610d2e565b820191906000526020600020905b815481529060010190602001808311610d1157829003601f168201915b5050505050815250508152602001600382016040518060600160405290816000820160009054906101000a900473ffffffffffffffffffffffffffffffffffffffff1673ffffffffffffffffffffffffffffffffffffffff1673ffffffffffffffffffffffffffffffffffffffff168152602001600182018054610db1906120ac565b80601f0160208091040260200160405190810160405280929190818152602001828054610ddd906120ac565b8015610e2a5780601f10610dff57610100808354040283529160200191610e2a565b820191906000526020600020905b815481529060010190602001808311610e0d57829003601f168201915b50505050508152602001600282018054610e43906120ac565b80601f0160208091040260200160405190810160405280929190818152602001828054610e6f906120ac565b8015610ebc5780601f10610e9157610100808354040283529160200191610ebc565b820191906000526020600020905b815481529060010190602001808311610e9f57829003601f168201915b50505050508152505081526020016006820154815260200160078201548152505081526020019060010190610b8a565b505050509050919050565b60008054906101000a900473ffffffffffffffffffffffffffffffffffffffff1673ffffffffffffffffffffffffffffffffffffffff1663b7c2f3a786868686866040518663ffffffff1660e01b8152600401610f5895949392919061245a565b600060405180830381600087803b158015610f7257600080fd5b505af1158015610f86573d6000803e3d6000fd5b505050505050505050565b60006040518060800160405280610fa78661152c565b8152602001610fb58561152c565b81526020014281526020018381525090506002600086815260200190815260200160002081908060018154018082558091505060019003906000526020600020906008020160009091909190915060008201518160000160008201518160000160006101000a81548173ffffffffffffffffffffffffffffffffffffffff021916908373ffffffffffffffffffffffffffffffffffffffff1602179055506020820151816001019081611068919061232f565b50604082015181600201908161107e919061232f565b50505060208201518160030160008201518160000160006101000a81548173ffffffffffffffffffffffffffffffffffffffff021916908373ffffffffffffffffffffffffffffffffffffffff16021790555060208201518160010190816110e6919061232f565b5060408201518160020190816110fc919061232f565b505050604082015181600601556060820151816007015550505050505050565b60606000600180549050905060008167ffffffffffffffff81111561114457611143611d5a565b5b60405190808252806020026020018201604052801561117d57816020015b61116a611715565b8152602001906001900390816111625790505b50905060005b82811015611523576001818154811061119f5761119e6120dd565b5b90600052602060002090600902016040518060a0016040529081600082016040518060600160405290816000820160009054906101000a900473ffffffffffffffffffffffffffffffffffffffff1673ffffffffffffffffffffffffffffffffffffffff1673ffffffffffffffffffffffffffffffffffffffff16815260200160018201805461122e906120ac565b80601f016020809104026020016040519081016040528092919081815260200182805461125a906120ac565b80156112a75780601f1061127c576101008083540402835291602001916112a7565b820191906000526020600020905b81548152906001019060200180831161128a57829003601f168201915b505050505081526020016002820180546112c0906120ac565b80601f01602080910402602001604051908101604052809291908181526020018280546112ec906120ac565b80156113395780601f1061130e57610100808354040283529160200191611339565b820191906000526020600020905b81548152906001019060200180831161131c57829003601f168201915b5050505050815250508152602001600382016040518060600160405290816000820160009054906101000a900473ffffffffffffffffffffffffffffffffffffffff1673ffffffffffffffffffffffffffffffffffffffff1673ffffffffffffffffffffffffffffffffffffffff1681526020016001820180546113bc906120ac565b80601f01602080910402602001604051908101604052809291908181526020018280546113e8906120ac565b80156114355780601f1061140a57610100808354040283529160200191611435565b820191906000526020600020905b81548152906001019060200180831161141857829003601f168201915b5050505050815260200160028201805461144e906120ac565b80601f016020809104026020016040519081016040528092919081815260200182805461147a906120ac565b80156114c75780601f1061149c576101008083540402835291602001916114c7565b820191906000526020600020905b8154815290600101906020018083116114aa57829003601f168201915b50505050508152505081526020016006820154815260200160078201548152602001600882015481525050828281518110611505576115046120dd565b5b6020026020010181905250808061151b9061213b565b915050611183565b50809250505090565b611534611750565b60405180606001604052808373ffffffffffffffffffffffffffffffffffffffff16815260200160008054906101000a900473ffffffffffffffffffffffffffffffffffffffff1673ffffffffffffffffffffffffffffffffffffffff16636f77926b856040518263ffffffff1660e01b81526004016115b491906124b4565b600060405180830381865afa1580156115d1573d6000803e3d6000fd5b505050506040513d6000823e3d601f19601f820116820180604052508101906115fa9190612782565b60200151815260200160008054906101000a900473ffffffffffffffffffffffffffffffffffffffff1673ffffffffffffffffffffffffffffffffffffffff16636f77926b856040518263ffffffff1660e01b815260040161165c91906124b4565b600060405180830381865afa158015611679573d6000803e3d6000fd5b505050506040513d6000823e3d601f19601f820116820180604052508101906116a29190612782565b61014001518152509050919050565b50805460008255600802906000526020600020908101906116d29190611787565b50565b5080546116e1906120ac565b6000825580601f106116f35750611712565b601f016020900490600052602060002090810190611711919061184a565b5b50565b6040518060a00160405280611728611750565b8152602001611735611750565b81526020016000815260200160008152602001600081525090565b6040518060600160405280600073ffffffffffffffffffffffffffffffffffffffff16815260200160608152602001606081525090565b5b80821115611846576000808201600080820160006101000a81549073ffffffffffffffffffffffffffffffffffffffff02191690556001820160006117cd91906116d5565b6002820160006117dd91906116d5565b505060038201600080820160006101000a81549073ffffffffffffffffffffffffffffffffffffffff021916905560018201600061181b91906116d5565b60028201600061182b91906116d5565b50506006820160009055600782016000905550600801611788565b5090565b5b8082111561186357600081600090555060010161184b565b5090565b6000604051905090565b600080fd5b600080fd5b6000819050919050565b61188e8161187b565b811461189957600080fd5b50565b6000813590506118ab81611885565b92915050565b600080604083850312156118c8576118c7611871565b5b60006118d68582860161189c565b92505060206118e78582860161189c565b9150509250929050565b600073ffffffffffffffffffffffffffffffffffffffff82169050919050565b600061191c826118f1565b9050919050565b61192c81611911565b82525050565b600081519050919050565b600082825260208201905092915050565b60005b8381101561196c578082015181840152602081019050611951565b60008484015250505050565b6000601f19601f8301169050919050565b600061199482611932565b61199e818561193d565b93506119ae81856020860161194e565b6119b781611978565b840191505092915050565b60006060830160008301516119da6000860182611923565b50602083015184820360208601526119f28282611989565b91505060408301518482036040860152611a0c8282611989565b9150508091505092915050565b611a228161187b565b82525050565b60006080820190508181036000830152611a4281876119c2565b90508181036020830152611a5681866119c2565b9050611a656040830185611a19565b611a726060830184611a19565b95945050505050565b600060208284031215611a9157611a90611871565b5b6000611a9f8482850161189c565b91505092915050565b611ab181611911565b8114611abc57600080fd5b50565b600081359050611ace81611aa8565b92915050565b60008060008060808587031215611aee57611aed611871565b5b6000611afc8782880161189c565b9450506020611b0d87828801611abf565b9350506040611b1e87828801611abf565b9250506060611b2f8782880161189c565b91505092959194509250565b600060a0820190508181036000830152611b5581886119c2565b90508181036020830152611b6981876119c2565b9050611b786040830186611a19565b611b856060830185611a19565b611b926080830184611a19565b9695505050505050565b600081519050919050565b600082825260208201905092915050565b6000819050602082019050919050565b6000606083016000830151611be06000860182611923565b5060208301518482036020860152611bf88282611989565b91505060408301518482036040860152611c128282611989565b9150508091505092915050565b611c288161187b565b82525050565b60006080830160008301518482036000860152611c4b8282611bc8565b91505060208301518482036020860152611c658282611bc8565b9150506040830151611c7a6040860182611c1f565b506060830151611c8d6060860182611c1f565b508091505092915050565b6000611ca48383611c2e565b905092915050565b6000602082019050919050565b6000611cc482611b9c565b611cce8185611ba7565b935083602082028501611ce085611bb8565b8060005b85811015611d1c5784840389528151611cfd8582611c98565b9450611d0883611cac565b925060208a01995050600181019050611ce4565b50829750879550505050505092915050565b60006020820190508181036000830152611d488184611cb9565b905092915050565b600080fd5b600080fd5b7f4e487b7100000000000000000000000000000000000000000000000000000000600052604160045260246000fd5b611d9282611978565b810181811067ffffffffffffffff82111715611db157611db0611d5a565b5b80604052505050565b6000611dc4611867565b9050611dd08282611d89565b919050565b600067ffffffffffffffff821115611df057611def611d5a565b5b611df982611978565b9050602081019050919050565b82818337600083830152505050565b6000611e28611e2384611dd5565b611dba565b905082815260208101848484011115611e4457611e43611d55565b5b611e4f848285611e06565b509392505050565b600082601f830112611e6c57611e6b611d50565b5b8135611e7c848260208601611e15565b91505092915050565b600080600080600060a08688031215611ea157611ea0611871565b5b6000611eaf88828901611abf565b9550506020611ec08882890161189c565b9450506040611ed18882890161189c565b9350506060611ee28882890161189c565b925050608086013567ffffffffffffffff811115611f0357611f02611876565b5b611f0f88828901611e57565b9150509295509295909350565b600081519050919050565b600082825260208201905092915050565b6000819050602082019050919050565b600060a0830160008301518482036000860152611f658282611bc8565b91505060208301518482036020860152611f7f8282611bc8565b9150506040830151611f946040860182611c1f565b506060830151611fa76060860182611c1f565b506080830151611fba6080860182611c1f565b508091505092915050565b6000611fd18383611f48565b905092915050565b6000602082019050919050565b6000611ff182611f1c565b611ffb8185611f27565b93508360208202850161200d85611f38565b8060005b85811015612049578484038952815161202a8582611fc5565b945061203583611fd9565b925060208a01995050600181019050612011565b50829750879550505050505092915050565b600060208201905081810360008301526120758184611fe6565b905092915050565b7f4e487b7100000000000000000000000000000000000000000000000000000000600052602260045260246000fd5b600060028204905060018216806120c457607f821691505b6020821081036120d7576120d661207d565b5b50919050565b7f4e487b7100000000000000000000000000000000000000000000000000000000600052603260045260246000fd5b7f4e487b7100000000000000000000000000000000000000000000000000000000600052601160045260246000fd5b60006121468261187b565b91507fffffffffffffffffffffffffffffffffffffffffffffffffffffffffffffffff82036121785761217761210c565b5b600182019050919050565b60008190508160005260206000209050919050565b60006020601f8301049050919050565b600082821b905092915050565b6000600883026121e57fffffffffffffffffffffffffffffffffffffffffffffffffffffffffffffffff826121a8565b6121ef86836121a8565b95508019841693508086168417925050509392505050565b6000819050919050565b600061222c6122276122228461187b565b612207565b61187b565b9050919050565b6000819050919050565b61224683612211565b61225a61225282612233565b8484546121b5565b825550505050565b600090565b61226f612262565b61227a81848461223d565b505050565b5b8181101561229e57612293600082612267565b600181019050612280565b5050565b601f8211156122e3576122b481612183565b6122bd84612198565b810160208510156122cc578190505b6122e06122d885612198565b83018261227f565b50505b505050565b600082821c905092915050565b6000612306600019846008026122e8565b1980831691505092915050565b600061231f83836122f5565b9150826002028217905092915050565b61233882611932565b67ffffffffffffffff81111561235157612350611d5a565b5b61235b82546120ac565b6123668282856122a2565b600060209050601f8311600181146123995760008415612387578287015190505b6123918582612313565b8655506123f9565b601f1984166123a786612183565b60005b828110156123cf578489015182556001820191506020850194506020810190506123aa565b868310156123ec57848901516123e8601f8916826122f5565b8355505b6001600288020188555050505b505050505050565b61240a81611911565b82525050565b600082825260208201905092915050565b600061242c82611932565b6124368185612410565b935061244681856020860161194e565b61244f81611978565b840191505092915050565b600060a08201905061246f6000830188612401565b61247c6020830187611a19565b6124896040830186611a19565b6124966060830185611a19565b81810360808301526124a88184612421565b90509695505050505050565b60006020820190506124c96000830184612401565b92915050565b600080fd5b600080fd5b6000815190506124e881611aa8565b92915050565b60006125016124fc84611dd5565b611dba565b90508281526020810184848401111561251d5761251c611d55565b5b61252884828561194e565b509392505050565b600082601f83011261254557612544611d50565b5b81516125558482602086016124ee565b91505092915050565b60006101608284031215612575576125746124cf565b5b612580610160611dba565b90506000612590848285016124d9565b600083015250602082015167ffffffffffffffff8111156125b4576125b36124d4565b5b6125c084828501612530565b602083015250604082015167ffffffffffffffff8111156125e4576125e36124d4565b5b6125f084828501612530565b604083015250606082015167ffffffffffffffff811115612614576126136124d4565b5b61262084828501612530565b606083015250608082015167ffffffffffffffff811115612644576126436124d4565b5b61265084828501612530565b60808301525060a082015167ffffffffffffffff811115612674576126736124d4565b5b61268084828501612530565b60a08301525060c082015167ffffffffffffffff8111156126a4576126a36124d4565b5b6126b084828501612530565b60c08301525060e082015167ffffffffffffffff8111156126d4576126d36124d4565b5b6126e084828501612530565b60e08301525061010082015167ffffffffffffffff811115612705576127046124d4565b5b61271184828501612530565b6101008301525061012082015167ffffffffffffffff811115612737576127366124d4565b5b61274384828501612530565b6101208301525061014082015167ffffffffffffffff811115612769576127686124d4565b5b61277584828501612530565b6101408301525092915050565b60006020828403121561279857612797611871565b5b600082015167ffffffffffffffff8111156127b6576127b5611876565b5b6127c28482850161255e565b9150509291505056fea264697066735822122053f6cf4b729adb13b0261615678b43b4e249e8dcaf0dcdc89ccdb88b5f3dffe464736f6c63430008100033",
  "immutableReferences": {},
  "source": "// SPDX-License-Identifier: MIT\npragma solidity >=0.4.17 <8.10.0;\n\nimport \"./UserInfo.sol\";\n\ncontract NFTAnalytics{\n\n  struct Sender{\n    address _address;\n    string _name;\n    string _avatar;\n  }\n  struct NFTTransactions{\n    Sender from;\n    Sender to;\n    uint256 time;\n    uint256 price;\n  }\n  struct Transaction{\n    Sender _from;\n    Sender _to;\n    uint256 _id;\n    uint256 _price;\n    uint256 _time;\n  }\n  UserInfo user;\n  Transaction[] public transactions;\n  mapping(uint256 => NFTTransactions[]) public nftTransactions;\n\n  constructor(address _user){\n    user = UserInfo(_user);\n  }\n  /*==========================================\n              NFT Transactions\n  ===========================================*/ \n  function setNFTTransactions(uint256 _id, address _from, address _to, uint _price) public{\n    NFTTransactions memory nft = NFTTransactions(getSender(_from), getSender(_to), block.timestamp, _price); \n     nftTransactions[_id].push(nft);\n  }\n  function getNFTTransactions(uint256 _id) public view returns(NFTTransactions[] memory){\n     return nftTransactions[_id];\n  }\n  function deleteNftTrans(uint _id) public{\n     delete nftTransactions[_id];\n  }\n  /*==========================================\n               Transactions\n  ===========================================*/\n  function setTransaction(uint256 _id, address _from, address _to, uint _price) public{\n      Transaction memory _transaction = Transaction(getSender(_from), getSender(_to), _id, _price, block.timestamp);\n        transactions.push(_transaction);\n  }\n  function get_transactions() public view returns(Transaction[] memory){\n        uint256 length = transactions.length;\n        Transaction[] memory _transactions = new Transaction[](length);\n        for (uint256 i = 0; i < length; i++) {\n        _transactions[i] = transactions[i];\n        }\n        return _transactions;\n  }\n  function removeTransaction(uint256 _id) public{\n        for (uint256 i = 0; i < transactions.length; i++) {\n            if (transactions[i]._id == _id) {\n                delete transactions[i];\n            }\n        }\n  }\n  /*==========================================\n              Private & External Methods\n  ===========================================*/\n  function setActivity(address _address, uint _price, uint _royality, uint _commission, string memory _status) public{\n    user.setActivity(_address, _price, _royality, _commission, _status);\n   }\n  // function compare(string memory _a, string memory _b) external pure returns (int) {\n  //     bytes memory a = bytes(_a);\n  //     bytes memory b = bytes(_b);\n  //     uint minLength = a.length;\n  //     if (b.length < minLength) minLength = b.length;\n  //     for (uint i = 0; i < minLength; i ++)\n  //         if (a[i] < b[i])\n  //             return -1;\n  //         else if (a[i] > b[i])\n  //             return 1;\n  //     if (a.length < b.length)\n  //         return -1;\n  //     else if (a.length > b.length)\n  //         return 1;\n  //     else\n  //         return 0;\n  // }\n  function getSender(address _address) private view returns(Sender memory){\n        return Sender(_address, user.getUser(_address)._fullName, user.getUser(_address)._avatar);\n  }\n\n}",
  "sourcePath": "C:\\WORK\\ELYSIUM ALEX\\contracts\\NFTAnalytics.sol",
  "compiler": {
    "name": "solc",
    "version": "0.8.16+commit.07a7930e.Emscripten.clang"
  },
  "schemaVersion": "3.4.4",
  "updatedAt": "2022-08-26T13:42:17.761Z",
  "devdoc": {
    "kind": "dev",
    "methods": {},
    "version": 1
  },
  "userdoc": {
    "kind": "user",
    "methods": {},
    "version": 1
  }
}