{
  "contractName": "NFTAuction",
  "abi": [
    {
      "inputs": [
        {
          "internalType": "address",
          "name": "_nftCollection",
          "type": "address"
        },
        {
          "internalType": "address",
          "name": "_user",
          "type": "address"
        },
        {
          "internalType": "address",
          "name": "_market",
          "type": "address"
        },
        {
          "internalType": "address",
          "name": "_analytics",
          "type": "address"
        }
      ],
      "stateMutability": "nonpayable",
      "type": "constructor"
    },
    {
      "anonymous": false,
      "inputs": [
        {
          "indexed": false,
          "internalType": "address",
          "name": "_address",
          "type": "address"
        },
        {
          "indexed": false,
          "internalType": "uint256",
          "name": "_tokenId",
          "type": "uint256"
        },
        {
          "indexed": false,
          "internalType": "uint256",
          "name": "_amount",
          "type": "uint256"
        },
        {
          "indexed": false,
          "internalType": "uint256",
          "name": "_time",
          "type": "uint256"
        }
      ],
      "name": "Bid",
      "type": "event"
    },
    {
      "anonymous": false,
      "inputs": [
        {
          "indexed": false,
          "internalType": "address",
          "name": "_address",
          "type": "address"
        },
        {
          "indexed": false,
          "internalType": "uint256",
          "name": "_tokenId",
          "type": "uint256"
        },
        {
          "indexed": false,
          "internalType": "uint256",
          "name": "_time",
          "type": "uint256"
        }
      ],
      "name": "CancelAuction",
      "type": "event"
    },
    {
      "anonymous": false,
      "inputs": [
        {
          "indexed": false,
          "internalType": "address",
          "name": "user",
          "type": "address"
        },
        {
          "indexed": false,
          "internalType": "uint256",
          "name": "amount",
          "type": "uint256"
        }
      ],
      "name": "ClaimFunds",
      "type": "event"
    },
    {
      "anonymous": false,
      "inputs": [
        {
          "indexed": false,
          "internalType": "address",
          "name": "_address",
          "type": "address"
        },
        {
          "indexed": false,
          "internalType": "uint256",
          "name": "_tokenId",
          "type": "uint256"
        },
        {
          "indexed": false,
          "internalType": "uint256",
          "name": "_endTime",
          "type": "uint256"
        }
      ],
      "name": "CreateAuction",
      "type": "event"
    },
    {
      "anonymous": false,
      "inputs": [
        {
          "indexed": false,
          "internalType": "uint256",
          "name": "_tokenId",
          "type": "uint256"
        },
        {
          "indexed": false,
          "internalType": "uint256",
          "name": "_price",
          "type": "uint256"
        },
        {
          "indexed": false,
          "internalType": "address",
          "name": "_winner",
          "type": "address"
        }
      ],
      "name": "EndAuction",
      "type": "event"
    },
    {
      "anonymous": false,
      "inputs": [
        {
          "indexed": false,
          "internalType": "address",
          "name": "_address",
          "type": "address"
        },
        {
          "indexed": false,
          "internalType": "uint256",
          "name": "_tokenId",
          "type": "uint256"
        },
        {
          "indexed": false,
          "internalType": "uint256",
          "name": "_time",
          "type": "uint256"
        }
      ],
      "name": "Withdraw",
      "type": "event"
    },
    {
      "inputs": [
        {
          "internalType": "address",
          "name": "",
          "type": "address"
        }
      ],
      "name": "userFunds",
      "outputs": [
        {
          "internalType": "uint256",
          "name": "",
          "type": "uint256"
        }
      ],
      "stateMutability": "view",
      "type": "function"
    },
    {
      "inputs": [
        {
          "internalType": "uint256",
          "name": "_tokenId",
          "type": "uint256"
        },
        {
          "internalType": "uint256",
          "name": "_endTime",
          "type": "uint256"
        }
      ],
      "name": "createAuction",
      "outputs": [],
      "stateMutability": "nonpayable",
      "type": "function"
    },
    {
      "inputs": [
        {
          "internalType": "uint256",
          "name": "_tokenId",
          "type": "uint256"
        },
        {
          "internalType": "uint256",
          "name": "_auctionId",
          "type": "uint256"
        },
        {
          "internalType": "uint256",
          "name": "_amount",
          "type": "uint256"
        }
      ],
      "name": "bid",
      "outputs": [],
      "stateMutability": "payable",
      "type": "function"
    },
    {
      "inputs": [
        {
          "internalType": "uint256",
          "name": "_tokenId",
          "type": "uint256"
        },
        {
          "internalType": "uint256",
          "name": "_auctionId",
          "type": "uint256"
        }
      ],
      "name": "withdraw",
      "outputs": [],
      "stateMutability": "nonpayable",
      "type": "function"
    },
    {
      "inputs": [
        {
          "internalType": "uint256",
          "name": "_tokenId",
          "type": "uint256"
        },
        {
          "internalType": "uint256",
          "name": "_auctionId",
          "type": "uint256"
        }
      ],
      "name": "endAuction",
      "outputs": [],
      "stateMutability": "nonpayable",
      "type": "function"
    },
    {
      "inputs": [
        {
          "internalType": "uint256",
          "name": "_tokenId",
          "type": "uint256"
        },
        {
          "internalType": "uint256",
          "name": "_auctionId",
          "type": "uint256"
        }
      ],
      "name": "cancelAuction",
      "outputs": [],
      "stateMutability": "nonpayable",
      "type": "function"
    },
    {
      "inputs": [],
      "name": "getAuctions",
      "outputs": [
        {
          "components": [
            {
              "internalType": "uint256",
              "name": "_tokenId",
              "type": "uint256"
            },
            {
              "internalType": "string",
              "name": "_tokenURI",
              "type": "string"
            },
            {
              "internalType": "uint256",
              "name": "_auctionId",
              "type": "uint256"
            },
            {
              "internalType": "address",
              "name": "_address",
              "type": "address"
            },
            {
              "internalType": "uint256",
              "name": "_endTime",
              "type": "uint256"
            },
            {
              "internalType": "bool",
              "name": "_active",
              "type": "bool"
            },
            {
              "internalType": "bool",
              "name": "_cancel",
              "type": "bool"
            },
            {
              "components": [
                {
                  "internalType": "uint256",
                  "name": "_tokenId",
                  "type": "uint256"
                },
                {
                  "internalType": "address",
                  "name": "_address",
                  "type": "address"
                },
                {
                  "internalType": "uint256",
                  "name": "_amount",
                  "type": "uint256"
                },
                {
                  "internalType": "uint256",
                  "name": "_time",
                  "type": "uint256"
                },
                {
                  "internalType": "bool",
                  "name": "_withdraw",
                  "type": "bool"
                }
              ],
              "internalType": "struct NFTAuction.Bidder[]",
              "name": "_bids",
              "type": "tuple[]"
            }
          ],
          "internalType": "struct NFTAuction.Auction[]",
          "name": "_auctions",
          "type": "tuple[]"
        }
      ],
      "stateMutability": "view",
      "type": "function"
    },
    {
      "inputs": [],
      "name": "claimProfits",
      "outputs": [],
      "stateMutability": "nonpayable",
      "type": "function"
    },
    {
      "inputs": [
        {
          "internalType": "address",
          "name": "_address",
          "type": "address"
        }
      ],
      "name": "userBids",
      "outputs": [
        {
          "components": [
            {
              "internalType": "uint256",
              "name": "_tokenId",
              "type": "uint256"
            },
            {
              "internalType": "address",
              "name": "_address",
              "type": "address"
            },
            {
              "internalType": "uint256",
              "name": "_amount",
              "type": "uint256"
            },
            {
              "internalType": "uint256",
              "name": "_time",
              "type": "uint256"
            },
            {
              "internalType": "bool",
              "name": "_withdraw",
              "type": "bool"
            }
          ],
          "internalType": "struct NFTAuction.Bidder[]",
          "name": "_bids",
          "type": "tuple[]"
        }
      ],
      "stateMutability": "view",
      "type": "function"
    },
    {
      "inputs": [
        {
          "internalType": "uint256[]",
          "name": "_ids",
          "type": "uint256[]"
        }
      ],
      "name": "unwanted",
      "outputs": [],
      "stateMutability": "nonpayable",
      "type": "function"
    }
  ],
  "bytecode": "0x60806040523480156200001157600080fd5b50604051620047ba380380620047ba833981810160405281019062000037919062000289565b83600360006101000a81548173ffffffffffffffffffffffffffffffffffffffff021916908373ffffffffffffffffffffffffffffffffffffffff16021790555033600560006101000a81548173ffffffffffffffffffffffffffffffffffffffff021916908373ffffffffffffffffffffffffffffffffffffffff160217905550600360009054906101000a900473ffffffffffffffffffffffffffffffffffffffff1673ffffffffffffffffffffffffffffffffffffffff1663e14891916040518163ffffffff1660e01b8152600401602060405180830381865afa15801562000127573d6000803e3d6000fd5b505050506040513d601f19601f820116820180604052508101906200014d919062000336565b600681905550826000806101000a81548173ffffffffffffffffffffffffffffffffffffffff021916908373ffffffffffffffffffffffffffffffffffffffff16021790555081600260006101000a81548173ffffffffffffffffffffffffffffffffffffffff021916908373ffffffffffffffffffffffffffffffffffffffff16021790555080600460006101000a81548173ffffffffffffffffffffffffffffffffffffffff021916908373ffffffffffffffffffffffffffffffffffffffff1602179055505050505062000368565b600080fd5b600073ffffffffffffffffffffffffffffffffffffffff82169050919050565b6000620002518262000224565b9050919050565b620002638162000244565b81146200026f57600080fd5b50565b600081519050620002838162000258565b92915050565b60008060008060808587031215620002a657620002a56200021f565b5b6000620002b68782880162000272565b9450506020620002c98782880162000272565b9350506040620002dc8782880162000272565b9250506060620002ef8782880162000272565b91505092959194509250565b6000819050919050565b6200031081620002fb565b81146200031c57600080fd5b50565b600081519050620003308162000305565b92915050565b6000602082840312156200034f576200034e6200021f565b5b60006200035f848285016200031f565b91505092915050565b61444280620003786000396000f3fe6080604052600436106100915760003560e01c8063851212d911610059578063851212d91461016a578063883102a4146101a757806392ba9075146101d05780639df51b89146101f9578063d7c069191461021057610091565b80630121683f146100965780632ac9bf09146100bf578063441a3e70146100db57806347afe437146101045780638387c6e11461012d575b600080fd5b3480156100a257600080fd5b506100bd60048036038101906100b89190612f3c565b61023b565b005b6100d960048036038101906100d49190612f7c565b61084c565b005b3480156100e757600080fd5b5061010260048036038101906100fd9190612f3c565b610c86565b005b34801561011057600080fd5b5061012b60048036038101906101269190612f3c565b610fc0565b005b34801561013957600080fd5b50610154600480360381019061014f919061302d565b61185d565b6040516101619190613069565b60405180910390f35b34801561017657600080fd5b50610191600480360381019061018c919061302d565b611875565b60405161019e91906131d4565b60405180910390f35b3480156101b357600080fd5b506101ce60048036038101906101c9919061334f565b611bef565b005b3480156101dc57600080fd5b506101f760048036038101906101f29190612f3c565b611db6565b005b34801561020557600080fd5b5061020e61227e565b005b34801561021c57600080fd5b50610225612516565b60405161023291906135ff565b60405180910390f35b600080600080600360009054906101000a900473ffffffffffffffffffffffffffffffffffffffff1673ffffffffffffffffffffffffffffffffffffffff1663fc314e31876040518263ffffffff1660e01b815260040161029c9190613069565b600060405180830381865afa1580156102b9573d6000803e3d6000fd5b505050506040513d6000823e3d601f19601f820116820180604052508101906102e2919061389f565b505098509850509750509650505050428511610333576040517f08c379a000000000000000000000000000000000000000000000000000000000815260040161032a90613a0c565b60405180910390fd5b600360009054906101000a900473ffffffffffffffffffffffffffffffffffffffff1673ffffffffffffffffffffffffffffffffffffffff16636352211e876040518263ffffffff1660e01b815260040161038e9190613069565b602060405180830381865afa1580156103ab573d6000803e3d6000fd5b505050506040513d601f19601f820116820180604052508101906103cf9190613a2c565b73ffffffffffffffffffffffffffffffffffffffff163373ffffffffffffffffffffffffffffffffffffffff161461043c576040517f08c379a000000000000000000000000000000000000000000000000000000000815260040161043390613a0c565b60405180910390fd5b600360009054906101000a900473ffffffffffffffffffffffffffffffffffffffff1673ffffffffffffffffffffffffffffffffffffffff166323b872dd3330896040518463ffffffff1660e01b815260040161049b93929190613a68565b600060405180830381600087803b1580156104b557600080fd5b505af11580156104c9573d6000803e3d6000fd5b5050505060006001805490509050600180816001815401808255809150500390600052602060002090505060006001828154811061050a57610509613a9f565b5b90600052602060002090600702019050878160000181905550818160020181905550868160040181905550858160030160006101000a81548173ffffffffffffffffffffffffffffffffffffffff021916908373ffffffffffffffffffffffffffffffffffffffff16021790555060018160050160006101000a81548160ff02191690831515021790555060008160050160016101000a81548160ff021916908315150217905550600360009054906101000a900473ffffffffffffffffffffffffffffffffffffffff1673ffffffffffffffffffffffffffffffffffffffff1663d04dd45889886000888860016040518763ffffffff1660e01b815260040161061996959493929190613b22565b600060405180830381600087803b15801561063357600080fd5b505af1158015610647573d6000803e3d6000fd5b50505050600460009054906101000a900473ffffffffffffffffffffffffffffffffffffffff1673ffffffffffffffffffffffffffffffffffffffff1663fd17c3a489883060006040518563ffffffff1660e01b81526004016106ad9493929190613b83565b600060405180830381600087803b1580156106c757600080fd5b505af11580156106db573d6000803e3d6000fd5b50505050600460009054906101000a900473ffffffffffffffffffffffffffffffffffffffff1673ffffffffffffffffffffffffffffffffffffffff166364c9fb6789883060006040518563ffffffff1660e01b81526004016107419493929190613b83565b600060405180830381600087803b15801561075b57600080fd5b505af115801561076f573d6000803e3d6000fd5b5050505060008054906101000a900473ffffffffffffffffffffffffffffffffffffffff1673ffffffffffffffffffffffffffffffffffffffff1663b7c2f3a7876000886006546040518563ffffffff1660e01b81526004016107d59493929190613c14565b600060405180830381600087803b1580156107ef57600080fd5b505af1158015610803573d6000803e3d6000fd5b505050507f710f5a3dfb15edf4cbfee47f1d6c1bbaa49aed49fcd869eeb9c2b7208e0e16e533898960405161083a93929190613c6c565b60405180910390a15050505050505050565b600080600360009054906101000a900473ffffffffffffffffffffffffffffffffffffffff1673ffffffffffffffffffffffffffffffffffffffff1663fc314e31866040518263ffffffff1660e01b81526004016108aa9190613069565b600060405180830381865afa1580156108c7573d6000803e3d6000fd5b505050506040513d6000823e3d601f19601f820116820180604052508101906108f0919061389f565b5050505050955050945050505060008311610940576040517f08c379a000000000000000000000000000000000000000000000000000000000815260040161093790613a0c565b60405180910390fd5b61094a3386612810565b1561098a576040517f08c379a000000000000000000000000000000000000000000000000000000000815260040161098190613a0c565b60405180910390fd5b8173ffffffffffffffffffffffffffffffffffffffff163373ffffffffffffffffffffffffffffffffffffffff16036109f8576040517f08c379a00000000000000000000000000000000000000000000000000000000081526004016109ef90613a0c565b60405180910390fd5b6007600086815260200190815260200160002054831115610a945782600760008781526020019081526020016000208190555033600960008781526020019081526020016000206000600115151515815260200190815260200160002060006101000a81548173ffffffffffffffffffffffffffffffffffffffff021916908373ffffffffffffffffffffffffffffffffffffffff1602179055505b600060018581548110610aaa57610aa9613a9f565b5b90600052602060002090600702019050806006016040518060a001604052808881526020013373ffffffffffffffffffffffffffffffffffffffff1681526020018681526020014281526020016000151581525090806001815401808255809150506001900390600052602060002090600502016000909190919091506000820151816000015560208201518160010160006101000a81548173ffffffffffffffffffffffffffffffffffffffff021916908373ffffffffffffffffffffffffffffffffffffffff160217905550604082015181600201556060820151816003015560808201518160040160006101000a81548160ff021916908315150217905550505060008054906101000a900473ffffffffffffffffffffffffffffffffffffffff1673ffffffffffffffffffffffffffffffffffffffff1663b7c2f3a73386856006546040518563ffffffff1660e01b8152600401610c0f9493929190613cef565b600060405180830381600087803b158015610c2957600080fd5b505af1158015610c3d573d6000803e3d6000fd5b505050507f4dcc013473324698bfbe263facec4ea4b1bc43624236542deabec62c2122b30533878642604051610c769493929190613d47565b60405180910390a1505050505050565b6000600360009054906101000a900473ffffffffffffffffffffffffffffffffffffffff1673ffffffffffffffffffffffffffffffffffffffff1663fc314e31846040518263ffffffff1660e01b8152600401610ce39190613069565b600060405180830381865afa158015610d00573d6000803e3d6000fd5b505050506040513d6000823e3d601f19601f82011682018060405250810190610d29919061389f565b5050505050955050505050506000610d4083612a07565b9050600060018481548110610d5857610d57613a9f565b5b90600052602060002090600702016006018281548110610d7b57610d7a613a9f565b5b906000526020600020906005020160020154905060018481548110610da357610da2613a9f565b5b9060005260206000209060070201600001548514610df6576040517f08c379a0000000000000000000000000000000000000000000000000000000008152600401610ded90613a0c565b60405180910390fd5b60008111610e39576040517f08c379a0000000000000000000000000000000000000000000000000000000008152600401610e3090613a0c565b60405180910390fd5b610e44858533612b53565b3373ffffffffffffffffffffffffffffffffffffffff166108fc829081150290604051600060405180830381858888f19350505050158015610e8a573d6000803e3d6000fd5b506001808581548110610ea057610e9f613a9f565b5b90600052602060002090600702016006018381548110610ec357610ec2613a9f565b5b906000526020600020906005020160040160006101000a81548160ff02191690831515021790555060008054906101000a900473ffffffffffffffffffffffffffffffffffffffff1673ffffffffffffffffffffffffffffffffffffffff1663b7c2f3a73383866006546040518563ffffffff1660e01b8152600401610f4c9493929190613dd8565b600060405180830381600087803b158015610f6657600080fd5b505af1158015610f7a573d6000803e3d6000fd5b505050507ff279e6a1f5e320cca91135676d9cb6e44ca8a08c0b88342bcdb1144f6511b568338642604051610fb193929190613c6c565b60405180910390a15050505050565b600080600080600360009054906101000a900473ffffffffffffffffffffffffffffffffffffffff1673ffffffffffffffffffffffffffffffffffffffff1663fc314e31876040518263ffffffff1660e01b81526004016110219190613069565b600060405180830381865afa15801561103e573d6000803e3d6000fd5b505050506040513d6000823e3d601f19601f82011682018060405250810190611067919061389f565b5050985050509650509550955050506000600960008881526020019081526020016000206000600115151515815260200190815260200160002060009054906101000a900473ffffffffffffffffffffffffffffffffffffffff169050600073ffffffffffffffffffffffffffffffffffffffff168173ffffffffffffffffffffffffffffffffffffffff160361119657600460009054906101000a900473ffffffffffffffffffffffffffffffffffffffff1673ffffffffffffffffffffffffffffffffffffffff1663fd17c3a488308760006040518563ffffffff1660e01b815260040161115a9493929190613b83565b600060405180830381600087803b15801561117457600080fd5b505af1158015611188573d6000803e3d6000fd5b505050505050505050611859565b600360009054906101000a900473ffffffffffffffffffffffffffffffffffffffff1673ffffffffffffffffffffffffffffffffffffffff166323b872dd30838a6040518463ffffffff1660e01b81526004016111f593929190613a68565b600060405180830381600087803b15801561120f57600080fd5b505af1158015611223573d6000803e3d6000fd5b50505050600061123287612a07565b905060006001888154811061124a57611249613a9f565b5b906000526020600020906007020160050160006101000a81548160ff021916908315150217905550816001888154811061128757611286613a9f565b5b906000526020600020906007020160030160006101000a81548173ffffffffffffffffffffffffffffffffffffffff021916908373ffffffffffffffffffffffffffffffffffffffff16021790555060018088815481106112eb576112ea613a9f565b5b9060005260206000209060070201600601828154811061130e5761130d613a9f565b5b906000526020600020906005020160040160006101000a81548160ff0219169083151502179055506000600760008a81526020019081526020016000205490506000600760008b8152602001908152602001600020819055506000600960008b81526020019081526020016000206000600115151515815260200190815260200160002060006101000a81548173ffffffffffffffffffffffffffffffffffffffff021916908373ffffffffffffffffffffffffffffffffffffffff16021790555060006113dc8287612cbd565b905060006113e983612ced565b9050611410826114028386612d1f90919063ffffffff16565b612d1f90919063ffffffff16565b600860008a73ffffffffffffffffffffffffffffffffffffffff1673ffffffffffffffffffffffffffffffffffffffff168152602001908152602001600020600082825461145e9190613e5f565b9250508190555081600860008b73ffffffffffffffffffffffffffffffffffffffff1673ffffffffffffffffffffffffffffffffffffffff16815260200190815260200160002060008282546114b49190613e5f565b925050819055508060086000600560009054906101000a900473ffffffffffffffffffffffffffffffffffffffff1673ffffffffffffffffffffffffffffffffffffffff1673ffffffffffffffffffffffffffffffffffffffff168152602001908152602001600020600082825461152c9190613e5f565b92505081905550600260009054906101000a900473ffffffffffffffffffffffffffffffffffffffff1673ffffffffffffffffffffffffffffffffffffffff16630e373f9a89856040518363ffffffff1660e01b8152600401611590929190613e93565b600060405180830381600087803b1580156115aa57600080fd5b505af11580156115be573d6000803e3d6000fd5b50505050600360009054906101000a900473ffffffffffffffffffffffffffffffffffffffff1673ffffffffffffffffffffffffffffffffffffffff1663d04dd4588c878660008b60006040518763ffffffff1660e01b815260040161162996959493929190613ebc565b600060405180830381600087803b15801561164357600080fd5b505af1158015611657573d6000803e3d6000fd5b50505050600460009054906101000a900473ffffffffffffffffffffffffffffffffffffffff1673ffffffffffffffffffffffffffffffffffffffff1663fd17c3a48c3088876040518563ffffffff1660e01b81526004016116bc9493929190613f1d565b600060405180830381600087803b1580156116d657600080fd5b505af11580156116ea573d6000803e3d6000fd5b5050505060008054906101000a900473ffffffffffffffffffffffffffffffffffffffff1673ffffffffffffffffffffffffffffffffffffffff1663b7c2f3a733858a6006546040518563ffffffff1660e01b815260040161174f9493929190613fae565b600060405180830381600087803b15801561176957600080fd5b505af115801561177d573d6000803e3d6000fd5b50505050600460009054906101000a900473ffffffffffffffffffffffffffffffffffffffff1673ffffffffffffffffffffffffffffffffffffffff166364c9fb678c3088876040518563ffffffff1660e01b81526004016117e29493929190613f1d565b600060405180830381600087803b1580156117fc57600080fd5b505af1158015611810573d6000803e3d6000fd5b505050507fc2299f982fd9ff00b57d2a69804ceed57ad76a704e350938747afdedb722a8508b848760405161184793929190614006565b60405180910390a15050505050505050505b5050565b60086020528060005260406000206000915090505481565b606060018054905067ffffffffffffffff8111156118965761189561320c565b5b6040519080825280602002602001820160405280156118cf57816020015b6118bc612d61565b8152602001906001900390816118b45790505b50905060005b600180549050811015611be95760005b600182815481106118f9576118f8613a9f565b5b906000526020600020906007020160060180549050811015611bd5578373ffffffffffffffffffffffffffffffffffffffff16600183815481106119405761193f613a9f565b5b9060005260206000209060070201600601828154811061196357611962613a9f565b5b906000526020600020906005020160010160009054906101000a900473ffffffffffffffffffffffffffffffffffffffff1673ffffffffffffffffffffffffffffffffffffffff16148015611a11575060001515600183815481106119cb576119ca613a9f565b5b906000526020600020906007020160060182815481106119ee576119ed613a9f565b5b906000526020600020906005020160040160009054906101000a900460ff161515145b15611b185760018281548110611a2a57611a29613a9f565b5b90600052602060002090600702016006018181548110611a4d57611a4c613a9f565b5b90600052602060002090600502016040518060a0016040529081600082015481526020016001820160009054906101000a900473ffffffffffffffffffffffffffffffffffffffff1673ffffffffffffffffffffffffffffffffffffffff1673ffffffffffffffffffffffffffffffffffffffff16815260200160028201548152602001600382015481526020016004820160009054906101000a900460ff161515151581525050838381518110611b0857611b07613a9f565b5b6020026020010181905250611bc2565b6040518060a0016040528060018481548110611b3757611b36613a9f565b5b90600052602060002090600702016006018381548110611b5a57611b59613a9f565b5b9060005260206000209060050201600001548152602001600073ffffffffffffffffffffffffffffffffffffffff168152602001600081526020016000815260200160001515815250838381518110611bb657611bb5613a9f565b5b60200260200101819052505b8080611bcd9061403d565b9150506118e5565b508080611be19061403d565b9150506118d5565b50919050565b600360009054906101000a900473ffffffffffffffffffffffffffffffffffffffff1673ffffffffffffffffffffffffffffffffffffffff1663883102a4826040518263ffffffff1660e01b8152600401611c4a9190614134565b600060405180830381600087803b158015611c6457600080fd5b505af1158015611c78573d6000803e3d6000fd5b5050505060005b8151811015611db25760005b600180549050811015611d9e5760018181548110611cac57611cab613a9f565b5b906000526020600020906007020160000154838381518110611cd157611cd0613a9f565b5b602002602001015103611d8b5760018181548110611cf257611cf1613a9f565b5b9060005260206000209060070201600080820160009055600182016000611d199190612da8565b60028201600090556003820160006101000a81549073ffffffffffffffffffffffffffffffffffffffff021916905560048201600090556005820160006101000a81549060ff02191690556005820160016101000a81549060ff0219169055600682016000611d889190612de8565b50505b8080611d969061403d565b915050611c8b565b508080611daa9061403d565b915050611c7f565b5050565b600080600080600360009054906101000a900473ffffffffffffffffffffffffffffffffffffffff1673ffffffffffffffffffffffffffffffffffffffff1663fc314e31876040518263ffffffff1660e01b8152600401611e179190613069565b600060405180830381865afa158015611e34573d6000803e3d6000fd5b505050506040513d6000823e3d601f19601f82011682018060405250810190611e5d919061389f565b5050985098505097505096505050503373ffffffffffffffffffffffffffffffffffffffff168473ffffffffffffffffffffffffffffffffffffffff1614611eda576040517f08c379a0000000000000000000000000000000000000000000000000000000008152600401611ed190613a0c565b60405180910390fd5b600360009054906101000a900473ffffffffffffffffffffffffffffffffffffffff1673ffffffffffffffffffffffffffffffffffffffff166323b872dd3086896040518463ffffffff1660e01b8152600401611f3993929190613a68565b600060405180830381600087803b158015611f5357600080fd5b505af1158015611f67573d6000803e3d6000fd5b50505050600360009054906101000a900473ffffffffffffffffffffffffffffffffffffffff1673ffffffffffffffffffffffffffffffffffffffff1663d04dd45887866000868660006040518763ffffffff1660e01b8152600401611fd296959493929190613b22565b600060405180830381600087803b158015611fec57600080fd5b505af1158015612000573d6000803e3d6000fd5b50505050600180868154811061201957612018613a9f565b5b906000526020600020906007020160050160016101000a81548160ff02191690831515021790555060006001868154811061205757612056613a9f565b5b906000526020600020906007020160050160006101000a81548160ff02191690831515021790555060008054906101000a900473ffffffffffffffffffffffffffffffffffffffff1673ffffffffffffffffffffffffffffffffffffffff1663b7c2f3a7336000866006546040518563ffffffff1660e01b81526004016120e19493929190614156565b600060405180830381600087803b1580156120fb57600080fd5b505af115801561210f573d6000803e3d6000fd5b50505050600460009054906101000a900473ffffffffffffffffffffffffffffffffffffffff1673ffffffffffffffffffffffffffffffffffffffff1663fd17c3a487308760006040518563ffffffff1660e01b81526004016121759493929190613b83565b600060405180830381600087803b15801561218f57600080fd5b505af11580156121a3573d6000803e3d6000fd5b50505050600460009054906101000a900473ffffffffffffffffffffffffffffffffffffffff1673ffffffffffffffffffffffffffffffffffffffff166364c9fb6787308760006040518563ffffffff1660e01b81526004016122099493929190613b83565b600060405180830381600087803b15801561222357600080fd5b505af1158015612237573d6000803e3d6000fd5b505050507fbc0fdc3702b8cd677a6a14b1e5613899dd424577b9177fe5603b1074c72ea8aa33874260405161226e93929190613c6c565b60405180910390a1505050505050565b6000600860003373ffffffffffffffffffffffffffffffffffffffff1673ffffffffffffffffffffffffffffffffffffffff1681526020019081526020016000205411612300576040517f08c379a00000000000000000000000000000000000000000000000000000000081526004016122f7906141fa565b60405180910390fd5b3373ffffffffffffffffffffffffffffffffffffffff166108fc600860003373ffffffffffffffffffffffffffffffffffffffff1673ffffffffffffffffffffffffffffffffffffffff168152602001908152602001600020549081150290604051600060405180830381858888f19350505050158015612385573d6000803e3d6000fd5b5060008054906101000a900473ffffffffffffffffffffffffffffffffffffffff1673ffffffffffffffffffffffffffffffffffffffff1663b7c2f3a733600860003373ffffffffffffffffffffffffffffffffffffffff1673ffffffffffffffffffffffffffffffffffffffff168152602001908152602001600020546000806040518563ffffffff1660e01b81526004016124259493929190614266565b600060405180830381600087803b15801561243f57600080fd5b505af1158015612453573d6000803e3d6000fd5b505050507f4f0554190111f93f8c2ccef2cc41473f187d7f29ff5a5c308ca41f9dfe4e989a33600860003373ffffffffffffffffffffffffffffffffffffffff1673ffffffffffffffffffffffffffffffffffffffff168152602001908152602001600020546040516124c7929190613e93565b60405180910390a16000600860003373ffffffffffffffffffffffffffffffffffffffff1673ffffffffffffffffffffffffffffffffffffffff16815260200190815260200160002081905550565b606060018054905067ffffffffffffffff8111156125375761253661320c565b5b60405190808252806020026020018201604052801561257057816020015b61255d612e0c565b8152602001906001900390816125555790505b50905060005b60018054905081101561280c576001818154811061259757612596613a9f565b5b906000526020600020906007020160405180610100016040529081600082015481526020016001820180546125cb906142ed565b80601f01602080910402602001604051908101604052809291908181526020018280546125f7906142ed565b80156126445780601f1061261957610100808354040283529160200191612644565b820191906000526020600020905b81548152906001019060200180831161262757829003601f168201915b50505050508152602001600282015481526020016003820160009054906101000a900473ffffffffffffffffffffffffffffffffffffffff1673ffffffffffffffffffffffffffffffffffffffff1673ffffffffffffffffffffffffffffffffffffffff168152602001600482015481526020016005820160009054906101000a900460ff161515151581526020016005820160019054906101000a900460ff1615151515815260200160068201805480602002602001604051908101604052809291908181526020016000905b828210156127d357838290600052602060002090600502016040518060a0016040529081600082015481526020016001820160009054906101000a900473ffffffffffffffffffffffffffffffffffffffff1673ffffffffffffffffffffffffffffffffffffffff1673ffffffffffffffffffffffffffffffffffffffff16815260200160028201548152602001600382015481526020016004820160009054906101000a900460ff16151515158152505081526020019060010190612712565b50505050815250508282815181106127ee576127ed613a9f565b5b602002602001018190525080806128049061403d565b915050612576565b5090565b600080600090505b6001805490508110156129fb57826001828154811061283a57612839613a9f565b5b90600052602060002090600702016000015414801561288f5750600115156001828154811061286c5761286b613a9f565b5b906000526020600020906007020160050160009054906101000a900460ff161515145b156129e85760005b600182815481106128ab576128aa613a9f565b5b9060005260206000209060070201600601805490508110156129e6578473ffffffffffffffffffffffffffffffffffffffff16600183815481106128f2576128f1613a9f565b5b9060005260206000209060070201600601828154811061291557612914613a9f565b5b906000526020600020906005020160010160009054906101000a900473ffffffffffffffffffffffffffffffffffffffff1673ffffffffffffffffffffffffffffffffffffffff161480156129c35750600015156001838154811061297d5761297c613a9f565b5b906000526020600020906007020160060182815481106129a05761299f613a9f565b5b906000526020600020906005020160040160009054906101000a900460ff161515145b156129d357600192505050612a01565b80806129de9061403d565b915050612897565b505b80806129f39061403d565b915050612818565b50600090505b92915050565b60005b60018281548110612a1e57612a1d613a9f565b5b906000526020600020906007020160060180549050811015612b4d573373ffffffffffffffffffffffffffffffffffffffff1660018381548110612a6557612a64613a9f565b5b90600052602060002090600702016006018281548110612a8857612a87613a9f565b5b906000526020600020906005020160010160009054906101000a900473ffffffffffffffffffffffffffffffffffffffff1673ffffffffffffffffffffffffffffffffffffffff16148015612b3657506000151560018381548110612af057612aef613a9f565b5b90600052602060002090600702016006018281548110612b1357612b12613a9f565b5b906000526020600020906005020160040160009054906101000a900460ff161515145b612b4e578080612b459061403d565b915050612a0a565b5b919050565b600080600090505b60018481548110612b6f57612b6e613a9f565b5b906000526020600020906007020160060180549050811015612cb6578160018581548110612ba057612b9f613a9f565b5b90600052602060002090600702016006018281548110612bc357612bc2613a9f565b5b9060005260206000209060050201600201541115612ca35760018481548110612bef57612bee613a9f565b5b90600052602060002090600702016006018181548110612c1257612c11613a9f565b5b9060005260206000209060050201600201546007600087815260200190815260200160002081905550826009600087815260200190815260200160002060008015151515815260200190815260200160002060006101000a81548173ffffffffffffffffffffffffffffffffffffffff021916908373ffffffffffffffffffffffffffffffffffffffff1602179055505b8080612cae9061403d565b915050612b5b565b5050505050565b6000612ce56064612cd78486612d3590919063ffffffff16565b612d4b90919063ffffffff16565b905092915050565b6000612d186103e8612d0a60065485612d3590919063ffffffff16565b612d4b90919063ffffffff16565b9050919050565b60008183612d2d919061431e565b905092915050565b60008183612d439190614352565b905092915050565b60008183612d5991906143db565b905092915050565b6040518060a0016040528060008152602001600073ffffffffffffffffffffffffffffffffffffffff16815260200160008152602001600081526020016000151581525090565b508054612db4906142ed565b6000825580601f10612dc65750612de5565b601f016020900490600052602060002090810190612de49190612e6b565b5b50565b5080546000825560050290600052602060002090810190612e099190612e88565b50565b604051806101000160405280600081526020016060815260200160008152602001600073ffffffffffffffffffffffffffffffffffffffff16815260200160008152602001600015158152602001600015158152602001606081525090565b5b80821115612e84576000816000905550600101612e6c565b5090565b5b80821115612eee576000808201600090556001820160006101000a81549073ffffffffffffffffffffffffffffffffffffffff0219169055600282016000905560038201600090556004820160006101000a81549060ff021916905550600501612e89565b5090565b6000604051905090565b600080fd5b600080fd5b6000819050919050565b612f1981612f06565b8114612f2457600080fd5b50565b600081359050612f3681612f10565b92915050565b60008060408385031215612f5357612f52612efc565b5b6000612f6185828601612f27565b9250506020612f7285828601612f27565b9150509250929050565b600080600060608486031215612f9557612f94612efc565b5b6000612fa386828701612f27565b9350506020612fb486828701612f27565b9250506040612fc586828701612f27565b9150509250925092565b600073ffffffffffffffffffffffffffffffffffffffff82169050919050565b6000612ffa82612fcf565b9050919050565b61300a81612fef565b811461301557600080fd5b50565b60008135905061302781613001565b92915050565b60006020828403121561304357613042612efc565b5b600061305184828501613018565b91505092915050565b61306381612f06565b82525050565b600060208201905061307e600083018461305a565b92915050565b600081519050919050565b600082825260208201905092915050565b6000819050602082019050919050565b6130b981612f06565b82525050565b6130c881612fef565b82525050565b60008115159050919050565b6130e3816130ce565b82525050565b60a0820160008201516130ff60008501826130b0565b50602082015161311260208501826130bf565b50604082015161312560408501826130b0565b50606082015161313860608501826130b0565b50608082015161314b60808501826130da565b50505050565b600061315d83836130e9565b60a08301905092915050565b6000602082019050919050565b600061318182613084565b61318b818561308f565b9350613196836130a0565b8060005b838110156131c75781516131ae8882613151565b97506131b983613169565b92505060018101905061319a565b5085935050505092915050565b600060208201905081810360008301526131ee8184613176565b905092915050565b600080fd5b6000601f19601f8301169050919050565b7f4e487b7100000000000000000000000000000000000000000000000000000000600052604160045260246000fd5b613244826131fb565b810181811067ffffffffffffffff821117156132635761326261320c565b5b80604052505050565b6000613276612ef2565b9050613282828261323b565b919050565b600067ffffffffffffffff8211156132a2576132a161320c565b5b602082029050602081019050919050565b600080fd5b60006132cb6132c684613287565b61326c565b905080838252602082019050602084028301858111156132ee576132ed6132b3565b5b835b8181101561331757806133038882612f27565b8452602084019350506020810190506132f0565b5050509392505050565b600082601f830112613336576133356131f6565b5b81356133468482602086016132b8565b91505092915050565b60006020828403121561336557613364612efc565b5b600082013567ffffffffffffffff81111561338357613382612f01565b5b61338f84828501613321565b91505092915050565b600081519050919050565b600082825260208201905092915050565b6000819050602082019050919050565b600081519050919050565b600082825260208201905092915050565b60005b838110156133fe5780820151818401526020810190506133e3565b60008484015250505050565b6000613415826133c4565b61341f81856133cf565b935061342f8185602086016133e0565b613438816131fb565b840191505092915050565b600082825260208201905092915050565b600061345f82613084565b6134698185613443565b9350613474836130a0565b8060005b838110156134a557815161348c8882613151565b975061349783613169565b925050600181019050613478565b5085935050505092915050565b6000610100830160008301516134cb60008601826130b0565b50602083015184820360208601526134e3828261340a565b91505060408301516134f860408601826130b0565b50606083015161350b60608601826130bf565b50608083015161351e60808601826130b0565b5060a083015161353160a08601826130da565b5060c083015161354460c08601826130da565b5060e083015184820360e086015261355c8282613454565b9150508091505092915050565b600061357583836134b2565b905092915050565b6000602082019050919050565b600061359582613398565b61359f81856133a3565b9350836020820285016135b1856133b4565b8060005b858110156135ed57848403895281516135ce8582613569565b94506135d98361357d565b925060208a019950506001810190506135b5565b50829750879550505050505092915050565b60006020820190508181036000830152613619818461358a565b905092915050565b600080fd5b600080fd5b600080fd5b600067ffffffffffffffff82111561364b5761364a61320c565b5b613654826131fb565b9050602081019050919050565b600061367461366f84613630565b61326c565b9050828152602081018484840111156136905761368f61362b565b5b61369b8482856133e0565b509392505050565b600082601f8301126136b8576136b76131f6565b5b81516136c8848260208601613661565b91505092915050565b600060e082840312156136e7576136e6613621565b5b6136f160e061326c565b9050600082015167ffffffffffffffff81111561371157613710613626565b5b61371d848285016136a3565b600083015250602082015167ffffffffffffffff81111561374157613740613626565b5b61374d848285016136a3565b602083015250604082015167ffffffffffffffff81111561377157613770613626565b5b61377d848285016136a3565b604083015250606082015167ffffffffffffffff8111156137a1576137a0613626565b5b6137ad848285016136a3565b606083015250608082015167ffffffffffffffff8111156137d1576137d0613626565b5b6137dd848285016136a3565b60808301525060a082015167ffffffffffffffff81111561380157613800613626565b5b61380d848285016136a3565b60a08301525060c082015167ffffffffffffffff81111561383157613830613626565b5b61383d848285016136a3565b60c08301525092915050565b60008151905061385881612f10565b92915050565b60008151905061386d81613001565b92915050565b61387c816130ce565b811461388757600080fd5b50565b60008151905061389981613873565b92915050565b60008060008060008060008060008060006101608c8e0312156138c5576138c4612efc565b5b60008c015167ffffffffffffffff8111156138e3576138e2612f01565b5b6138ef8e828f016136d1565b9b505060206139008e828f01613849565b9a505060406139118e828f0161385e565b99505060606139228e828f0161385e565b98505060806139338e828f01613849565b97505060a06139448e828f01613849565b96505060c06139558e828f01613849565b95505060e06139668e828f0161388a565b9450506101006139788e828f0161388a565b93505061012061398a8e828f0161388a565b92505061014061399c8e828f01613849565b9150509295989b509295989b9093969950565b600082825260208201905092915050565b7f6572726f72000000000000000000000000000000000000000000000000000000600082015250565b60006139f66005836139af565b9150613a01826139c0565b602082019050919050565b60006020820190508181036000830152613a25816139e9565b9050919050565b600060208284031215613a4257613a41612efc565b5b6000613a508482850161385e565b91505092915050565b613a6281612fef565b82525050565b6000606082019050613a7d6000830186613a59565b613a8a6020830185613a59565b613a97604083018461305a565b949350505050565b7f4e487b7100000000000000000000000000000000000000000000000000000000600052603260045260246000fd5b6000819050919050565b6000819050919050565b6000613afd613af8613af384613ace565b613ad8565b612f06565b9050919050565b613b0d81613ae2565b82525050565b613b1c816130ce565b82525050565b600060c082019050613b37600083018961305a565b613b446020830188613a59565b613b516040830187613b04565b613b5e6060830186613b13565b613b6b6080830185613b13565b613b7860a0830184613b13565b979650505050505050565b6000608082019050613b98600083018761305a565b613ba56020830186613a59565b613bb26040830185613a59565b613bbf6060830184613b04565b95945050505050565b7f4372656174652061756374696f6e000000000000000000000000000000000000600082015250565b6000613bfe600e836139af565b9150613c0982613bc8565b602082019050919050565b600060a082019050613c296000830187613a59565b613c366020830186613b04565b613c43604083018561305a565b613c50606083018461305a565b8181036080830152613c6181613bf1565b905095945050505050565b6000606082019050613c816000830186613a59565b613c8e602083018561305a565b613c9b604083018461305a565b949350505050565b7f4164642042696400000000000000000000000000000000000000000000000000600082015250565b6000613cd96007836139af565b9150613ce482613ca3565b602082019050919050565b600060a082019050613d046000830187613a59565b613d11602083018661305a565b613d1e604083018561305a565b613d2b606083018461305a565b8181036080830152613d3c81613ccc565b905095945050505050565b6000608082019050613d5c6000830187613a59565b613d69602083018661305a565b613d76604083018561305a565b613d83606083018461305a565b95945050505050565b7f57697468647261772066726f6d2061756374696f6e0000000000000000000000600082015250565b6000613dc26015836139af565b9150613dcd82613d8c565b602082019050919050565b600060a082019050613ded6000830187613a59565b613dfa602083018661305a565b613e07604083018561305a565b613e14606083018461305a565b8181036080830152613e2581613db5565b905095945050505050565b7f4e487b7100000000000000000000000000000000000000000000000000000000600052601160045260246000fd5b6000613e6a82612f06565b9150613e7583612f06565b9250828201905080821115613e8d57613e8c613e30565b5b92915050565b6000604082019050613ea86000830185613a59565b613eb5602083018461305a565b9392505050565b600060c082019050613ed1600083018961305a565b613ede6020830188613a59565b613eeb604083018761305a565b613ef86060830186613b13565b613f056080830185613b13565b613f1260a0830184613b13565b979650505050505050565b6000608082019050613f32600083018761305a565b613f3f6020830186613a59565b613f4c6040830185613a59565b613f59606083018461305a565b95945050505050565b7f456e642061756374696f6e000000000000000000000000000000000000000000600082015250565b6000613f98600b836139af565b9150613fa382613f62565b602082019050919050565b600060a082019050613fc36000830187613a59565b613fd0602083018661305a565b613fdd604083018561305a565b613fea606083018461305a565b8181036080830152613ffb81613f8b565b905095945050505050565b600060608201905061401b600083018661305a565b614028602083018561305a565b6140356040830184613a59565b949350505050565b600061404882612f06565b91507fffffffffffffffffffffffffffffffffffffffffffffffffffffffffffffffff820361407a57614079613e30565b5b600182019050919050565b600081519050919050565b600082825260208201905092915050565b6000819050602082019050919050565b60006140bd83836130b0565b60208301905092915050565b6000602082019050919050565b60006140e182614085565b6140eb8185614090565b93506140f6836140a1565b8060005b8381101561412757815161410e88826140b1565b9750614119836140c9565b9250506001810190506140fa565b5085935050505092915050565b6000602082019050818103600083015261414e81846140d6565b905092915050565b600060a08201905061416b6000830187613a59565b6141786020830186613b04565b614185604083018561305a565b614192606083018461305a565b81810360808301526141a381613f8b565b905095945050505050565b7f6e6f2066756e6473000000000000000000000000000000000000000000000000600082015250565b60006141e46008836139af565b91506141ef826141ae565b602082019050919050565b60006020820190508181036000830152614213816141d7565b9050919050565b7f436c61696d2046756e6473000000000000000000000000000000000000000000600082015250565b6000614250600b836139af565b915061425b8261421a565b602082019050919050565b600060a08201905061427b6000830187613a59565b614288602083018661305a565b6142956040830185613b04565b6142a26060830184613b04565b81810360808301526142b381614243565b905095945050505050565b7f4e487b7100000000000000000000000000000000000000000000000000000000600052602260045260246000fd5b6000600282049050600182168061430557607f821691505b602082108103614318576143176142be565b5b50919050565b600061432982612f06565b915061433483612f06565b925082820390508181111561434c5761434b613e30565b5b92915050565b600061435d82612f06565b915061436883612f06565b9250817fffffffffffffffffffffffffffffffffffffffffffffffffffffffffffffffff04831182151516156143a1576143a0613e30565b5b828202905092915050565b7f4e487b7100000000000000000000000000000000000000000000000000000000600052601260045260246000fd5b60006143e682612f06565b91506143f183612f06565b925082614401576144006143ac565b5b82820490509291505056fea264697066735822122085c53f78713d1c9a2e358142ad0be8866fc8a9e003490b52bd74c1479127179b64736f6c63430008100033",
  "immutableReferences": {},
  "source": "// SPDX-License-Identifier: MIT\npragma solidity >=0.4.17 <8.10.0;\n\nimport \"./UserInfo.sol\";\nimport \"./NFTAnalytics.sol\";\nimport \"./Collectible.sol\";\nimport \"./Marketplace.sol\";\nimport \"../client/node_modules/@openzeppelin/contracts/utils/math/SafeMath.sol\";\n\ncontract NFTAuction {\n    using SafeMath for uint256;\n\n    UserInfo user;\n    Auction[] auctions;\n    Marketplace market;\n    Collectible collectible;\n    NFTAnalytics analytics;\n\n    address owner;\n    uint256 commission;\n    mapping(uint256 => uint256) topBalance;\n    mapping (address => uint) public userFunds;\n    mapping(uint256 => mapping(bool => address)) winners;\n\n    struct Bidder {\n        uint256 _tokenId;\n        address _address;\n        uint256 _amount;\n        uint256 _time;\n        bool _withdraw;\n    }\n    struct Auction{\n        uint256 _tokenId;\n        string _tokenURI;\n        uint256 _auctionId;\n        address _address;\n        uint256 _endTime;\n        bool _active;\n        bool _cancel;\n        Bidder[] _bids;\n    }\n\n    modifier onlyOwner(){\n        require(msg.sender == owner, \"Permission denied for this address\");\n        _;\n    }\n\n    event ClaimFunds(address user, uint amount);\n    event CreateAuction(address _address, uint256 _tokenId, uint256 _endTime);\n    event CancelAuction(address _address, uint256 _tokenId, uint256 _time);\n    event Bid(address _address, uint256 _tokenId, uint256 _amount, uint256 _time);\n    event Withdraw(address _address, uint256 _tokenId, uint256 _time);\n    event EndAuction(uint256 _tokenId, uint256 _price, address _winner);\n\n    constructor(address _nftCollection, address _user, address _market, address _analytics) {\n        collectible = Collectible(_nftCollection);\n        owner = payable(msg.sender);\n        commission = collectible.commission();\n        user = UserInfo(_user);\n        market = Marketplace(_market);\n        analytics = NFTAnalytics(_analytics);\n    }\n\n\n    function createAuction(uint256 _tokenId, uint256 _endTime ) public {\n        (,,, address _owner,, uint256 _royality,, bool _promoted, bool _approved,,) = collectible.tokenDetails(_tokenId);\n\n        require(_endTime > block.timestamp, 'error');\n        require(msg.sender == collectible.ownerOf(_tokenId), \"error\");\n        collectible.transferFrom(msg.sender, address(this), _tokenId);\n        uint256 _auctionId = auctions.length;\n        auctions.push();\n        Auction storage _auction = auctions[_auctionId];\n        _auction._tokenId = _tokenId;\n        _auction._auctionId = _auctionId;\n        _auction._endTime = _endTime;\n        _auction._address = _owner;\n        _auction._active = true;\n        _auction._cancel = false;\n        collectible.updateToken(_tokenId, _owner, 0, _promoted, _approved, true);\n        analytics.setNFTTransactions(_tokenId, _owner, address(this), 0);\n        analytics.setTransaction(_tokenId, _owner, address(this), 0);\n        user.setActivity(_owner, 0, _royality, commission, \"Create auction\");\n        emit CreateAuction(msg.sender, _tokenId, _endTime);\n    }\n\n    function bid(uint256 _tokenId, uint256 _auctionId, uint256 _amount) public payable{\n        (,,, address _owner,, uint256 _royality,,,,,) = collectible.tokenDetails(_tokenId);\n        require(_amount > 0, \"error\");\n        require(!checkUser(msg.sender, _tokenId), \"error\");\n        require(msg.sender != _owner, \"error\");\n        if (_amount > topBalance[_tokenId]) {\n            topBalance[_tokenId] = _amount;\n            winners[_tokenId][true] = msg.sender;\n        }\n        Auction storage _auction = auctions[_auctionId];\n        _auction._bids.push(Bidder(_tokenId, msg.sender, _amount, block.timestamp, false));\n        user.setActivity(msg.sender, _amount, _royality, commission, \"Add Bid\");\n        emit Bid(msg.sender, _tokenId, _amount, block.timestamp);\n    }\n\n    function withdraw(uint256 _tokenId, uint256 _auctionId) public{\n        (,,,,, uint256 _royality,,,,,) = collectible.tokenDetails(_tokenId);\n        uint256 index = amount(_auctionId);\n        uint256 _amount = auctions[_auctionId]._bids[index]._amount;\n        require(_tokenId == auctions[_auctionId]._tokenId, \"error\");\n        require( _amount > 0, \"error\");\n        top_balance(_tokenId, _auctionId, msg.sender);\n        payable(msg.sender).transfer(_amount);\n        auctions[_auctionId]._bids[index]._withdraw = true;\n        user.setActivity(msg.sender, _amount, _royality, commission, \"Withdraw from auction\");\n        emit Withdraw(msg.sender, _tokenId, block.timestamp);\n    }\n\n    function endAuction(uint256 _tokenId, uint256 _auctionId) public{\n        (,, address _creator, address _owner,, uint256 _royality,,, bool _approved,,) = collectible.tokenDetails(_tokenId);\n        address _winner = winners[_tokenId][true];\n        if (_winner == address(0)) {\n            analytics.setNFTTransactions(_tokenId, address(this), _owner, 0);\n            return;\n        }\n        collectible.transferFrom(address(this), _winner, _tokenId);\n        uint256 index = amount(_auctionId);\n        auctions[_auctionId]._active = false;\n        auctions[_auctionId]._address = _winner;\n        auctions[_auctionId]._bids[index]._withdraw = true;\n        uint256 _price = topBalance[_tokenId];\n        topBalance[_tokenId] = 0;\n        winners[_tokenId][true] = address(0);\n        uint256 royality = royality_(_price, _royality);\n        uint256 _commission = commission_(_price);\n        userFunds[_owner] +=  _price.sub(_commission).sub(royality);\n        userFunds[_creator] += royality;\n        userFunds[owner] += _commission;\n        market.setSellerFunds(_owner, _price);\n        collectible.updateToken(_tokenId, _winner, _price, false, _approved, false);\n        analytics.setNFTTransactions(_tokenId, address(this), _winner, _price);\n        user.setActivity(msg.sender, _price, _royality, commission, \"End auction\");\n        analytics.setTransaction(_tokenId, address(this), _winner, _price);\n        emit EndAuction(_tokenId, _price, _winner);\n    }\n\n    function cancelAuction(uint256 _tokenId, uint256 _auctionId) public{\n    (,,, address _owner,, uint256 _royality,, bool _promoted, bool _approved,,) = collectible.tokenDetails(_tokenId);\n\n    require(_owner == msg.sender, \"error\");\n    collectible.transferFrom(address(this), _owner, _tokenId);\n    collectible.updateToken(_tokenId, _owner, 0, _promoted, _approved, false);\n    auctions[_auctionId]._cancel = true;\n    auctions[_auctionId]._active = false;\n    user.setActivity(msg.sender, 0, _royality, commission, \"End auction\");\n    analytics.setNFTTransactions(_tokenId, address(this), _owner, 0);\n    analytics.setTransaction(_tokenId, address(this), _owner, 0);\n    emit CancelAuction(msg.sender, _tokenId, block.timestamp);\n    }\n\n    function getAuctions() public view returns(Auction[] memory _auctions) {\n        _auctions = new Auction[](auctions.length);\n        for (uint256 i = 0; i < auctions.length; i++) {\n            _auctions[i] = auctions[i];\n        }\n    }\n\n    function claimProfits() public {\n        require(userFunds[msg.sender] > 0, 'no funds');\n        payable(msg.sender).transfer(userFunds[msg.sender]);\n        user.setActivity(msg.sender, userFunds[msg.sender], 0, 0, \"Claim Funds\");\n        emit ClaimFunds(msg.sender, userFunds[msg.sender]);\n        userFunds[msg.sender] = 0;    \n    }\n\n    function userBids(address _address) public view returns(Bidder[] memory _bids) {\n        _bids = new Bidder[](auctions.length);\n        for (uint256 i = 0; i < auctions.length; i++) {\n            for (uint256 x = 0; x < auctions[i]._bids.length; x++) {\n                if (auctions[i]._bids[x]._address == _address && auctions[i]._bids[x]._withdraw == false) {\n                    _bids[i] = auctions[i]._bids[x];\n                }else{\n                    _bids[i] = Bidder(auctions[i]._bids[x]._tokenId, address(0), 0, 0, false);\n                }\n            }\n        }\n    }\n\n    function unwanted(uint256[] memory _ids) public {\n        collectible.unwanted(_ids);\n        for (uint256 i = 0; i < _ids.length; i++) {\n            for (uint256 x = 0; x < auctions.length; x++) {\n                if (_ids[i] == auctions[x]._tokenId) {\n                    delete auctions[x];\n                }\n            }\n        }\n    }\n\n    function amount(uint256 _auctionId) private view returns(uint256 index){\n        for (index = 0; index < auctions[_auctionId]._bids.length; index++) {\n            if (auctions[_auctionId]._bids[index]._address == msg.sender && auctions[_auctionId]._bids[index]._withdraw == false) {\n                return index;\n            }\n        }\n    }\n\n    function checkUser(address _address, uint256 _tokenId) private view returns(bool) {\n        for (uint256 i = 0; i < auctions.length; i++) {\n            if (auctions[i]._tokenId == _tokenId && auctions[i]._active == true) {\n                for (uint256 index = 0; index < auctions[i]._bids.length; index++) {\n                    if (auctions[i]._bids[index]._address == _address && auctions[i]._bids[index]._withdraw == false) return true;\n                }\n            } \n        }\n        return false;\n    }\n\n    function commission_(uint256 price) private view returns(uint256){\n            return (price.mul(commission)).div(1000);\n    }\n\n    function royality_(uint256 _price, uint256 _royality) private pure returns(uint256){\n            return (_price.mul(_royality)).div(100);\n    }\n\n    function top_balance(uint256 _tokenId, uint256 _auctionId, address _address) private{\n        uint256 _top;\n        for (uint256 i = 0; i < auctions[_auctionId]._bids.length; i++) {\n            if (auctions[_auctionId]._bids[i]._amount > _top) {\n                topBalance[_tokenId] = auctions[_auctionId]._bids[i]._amount;\n                winners[_tokenId][false] = _address;\n            }\n        }\n    }\n}",
  "sourcePath": "C:\\WORK\\ELYSIUM ALEX\\contracts\\NFTAuction.sol",
  "compiler": {
    "name": "solc",
    "version": "0.8.16+commit.07a7930e.Emscripten.clang"
  },
  "schemaVersion": "3.4.4",
  "updatedAt": "2022-08-26T13:42:17.827Z",
  "devdoc": {
    "kind": "dev",
    "methods": {},
    "version": 1
  },
  "userdoc": {
    "kind": "user",
    "methods": {},
    "version": 1
  }
}