{
  "contractName": "NFTDetails",
  "abi": [
    {
      "anonymous": false,
      "inputs": [
        {
          "indexed": false,
          "internalType": "uint256",
          "name": "_tokenId",
          "type": "uint256"
        },
        {
          "indexed": false,
          "internalType": "uint256",
          "name": "_offerId",
          "type": "uint256"
        },
        {
          "indexed": false,
          "internalType": "address",
          "name": "winner",
          "type": "address"
        }
      ],
      "name": "BoughtNFT",
      "type": "event"
    },
    {
      "anonymous": false,
      "inputs": [
        {
          "indexed": false,
          "internalType": "address",
          "name": "user",
          "type": "address"
        },
        {
          "indexed": false,
          "internalType": "uint256",
          "name": "amount",
          "type": "uint256"
        }
      ],
      "name": "ClaimFunds",
      "type": "event"
    },
    {
      "anonymous": false,
      "inputs": [
        {
          "indexed": false,
          "internalType": "address",
          "name": "_address",
          "type": "address"
        },
        {
          "indexed": false,
          "internalType": "string",
          "name": "_fullName",
          "type": "string"
        },
        {
          "indexed": false,
          "internalType": "string",
          "name": "_email",
          "type": "string"
        },
        {
          "indexed": false,
          "internalType": "string",
          "name": "_role",
          "type": "string"
        },
        {
          "indexed": false,
          "internalType": "string",
          "name": "_about",
          "type": "string"
        }
      ],
      "name": "CreateUser",
      "type": "event"
    },
    {
      "anonymous": false,
      "inputs": [
        {
          "indexed": false,
          "internalType": "uint256",
          "name": "offerId",
          "type": "uint256"
        },
        {
          "indexed": false,
          "internalType": "uint256",
          "name": "id",
          "type": "uint256"
        },
        {
          "indexed": false,
          "internalType": "address",
          "name": "user",
          "type": "address"
        },
        {
          "indexed": false,
          "internalType": "uint256",
          "name": "price",
          "type": "uint256"
        },
        {
          "indexed": false,
          "internalType": "bool",
          "name": "fulfilled",
          "type": "bool"
        },
        {
          "indexed": false,
          "internalType": "bool",
          "name": "cancelled",
          "type": "bool"
        }
      ],
      "name": "Offer",
      "type": "event"
    },
    {
      "anonymous": false,
      "inputs": [
        {
          "indexed": false,
          "internalType": "uint256",
          "name": "offerId",
          "type": "uint256"
        },
        {
          "indexed": false,
          "internalType": "uint256",
          "name": "id",
          "type": "uint256"
        },
        {
          "indexed": false,
          "internalType": "address",
          "name": "owner",
          "type": "address"
        }
      ],
      "name": "SaleCancelled",
      "type": "event"
    },
    {
      "inputs": [
        {
          "internalType": "string",
          "name": "_a",
          "type": "string"
        },
        {
          "internalType": "string",
          "name": "_b",
          "type": "string"
        }
      ],
      "name": "compare",
      "outputs": [
        {
          "internalType": "int256",
          "name": "",
          "type": "int256"
        }
      ],
      "stateMutability": "pure",
      "type": "function"
    }
  ],
  "bytecode": "0x608060405234801561001057600080fd5b50610528806100206000396000f3fe608060405234801561001057600080fd5b506004361061002b5760003560e01c80633a96fdd714610030575b600080fd5b61004a60048036038101906100459190610396565b610060565b6040516100579190610427565b60405180910390f35b6000808390506000839050600082519050808251101561007f57815190505b60005b818110156101e25782818151811061009d5761009c610442565b5b602001015160f81c60f81b7effffffffffffffffffffffffffffffffffffffffffffffffffffffffffffff19168482815181106100dd576100dc610442565b5b602001015160f81c60f81b7effffffffffffffffffffffffffffffffffffffffffffffffffffffffffffff1916101561013c577fffffffffffffffffffffffffffffffffffffffffffffffffffffffffffffffff945050505050610236565b82818151811061014f5761014e610442565b5b602001015160f81c60f81b7effffffffffffffffffffffffffffffffffffffffffffffffffffffffffffff191684828151811061018f5761018e610442565b5b602001015160f81c60f81b7effffffffffffffffffffffffffffffffffffffffffffffffffffffffffffff191611156101cf576001945050505050610236565b80806101da906104aa565b915050610082565b50815183511015610218577fffffffffffffffffffffffffffffffffffffffffffffffffffffffffffffffff9350505050610236565b81518351111561022e5760019350505050610236565b600093505050505b92915050565b6000604051905090565b600080fd5b600080fd5b600080fd5b600080fd5b6000601f19601f8301169050919050565b7f4e487b7100000000000000000000000000000000000000000000000000000000600052604160045260246000fd5b6102a38261025a565b810181811067ffffffffffffffff821117156102c2576102c161026b565b5b80604052505050565b60006102d561023c565b90506102e1828261029a565b919050565b600067ffffffffffffffff8211156103015761030061026b565b5b61030a8261025a565b9050602081019050919050565b82818337600083830152505050565b6000610339610334846102e6565b6102cb565b90508281526020810184848401111561035557610354610255565b5b610360848285610317565b509392505050565b600082601f83011261037d5761037c610250565b5b813561038d848260208601610326565b91505092915050565b600080604083850312156103ad576103ac610246565b5b600083013567ffffffffffffffff8111156103cb576103ca61024b565b5b6103d785828601610368565b925050602083013567ffffffffffffffff8111156103f8576103f761024b565b5b61040485828601610368565b9150509250929050565b6000819050919050565b6104218161040e565b82525050565b600060208201905061043c6000830184610418565b92915050565b7f4e487b7100000000000000000000000000000000000000000000000000000000600052603260045260246000fd5b7f4e487b7100000000000000000000000000000000000000000000000000000000600052601160045260246000fd5b6000819050919050565b60006104b5826104a0565b91507fffffffffffffffffffffffffffffffffffffffffffffffffffffffffffffffff82036104e7576104e6610471565b5b60018201905091905056fea2646970667358221220bbfadb29a9bef17bfcb39676abc8837bdbd06cc744301136be0dacfbdb43ada764736f6c63430008100033",
  "immutableReferences": {},
  "source": "// SPDX-License-Identifier: MIT\npragma solidity >=0.4.17 <8.10.0;\n\ncontract NFTDetails{\n\n  struct Token{\n    address _creator;\n    address _owner;\n    uint256 _price;\n    uint256 _royality;\n    uint256 _commission;\n    string _tokenURI;\n  }\n\n  struct Sender{\n    address _address;\n    string _name;\n    string _avatar;\n  }\n\n  struct NFTTransactions{\n    Sender from;\n    Sender to;\n    uint256 time;\n    uint256 price;\n  }\n\n  struct User{\n        address _address;\n        string _fullName;\n        string _email;\n        string _role;\n        string _about;\n        string _facebok;\n        string _twitter;\n        string _instagram;\n        string _dribbble;\n        string _header;\n        string _avatar;\n  }\n\n  struct Activity{\n      address _address;\n      uint256 _price;\n      uint256 _royality;\n      uint256 _commission;\n      uint256 _time;\n      string _status;\n  }\n\n  struct Transaction{\n    Sender _from;\n    Sender _to;\n    uint256 _id;\n    uint256 _price;\n    uint256 _time;\n  }\n\n\n  event Offer(uint offerId, uint id, address user, uint price, bool fulfilled, bool cancelled);\n  event CreateUser(address _address, string _fullName, string _email, string _role, string _about);\n  event SaleCancelled(uint offerId, uint id, address owner);\n  event ClaimFunds(address user, uint amount);\n  event BoughtNFT(uint256 _tokenId, uint256 _offerId, address winner);\n\n  function compare(string memory _a, string memory _b) public pure returns (int) {\n        bytes memory a = bytes(_a);\n        bytes memory b = bytes(_b);\n        uint minLength = a.length;\n        if (b.length < minLength) minLength = b.length;\n        //@todo unroll the loop into increments of 32 and do full 32 byte comparisons\n        for (uint i = 0; i < minLength; i ++)\n            if (a[i] < b[i])\n                return -1;\n            else if (a[i] > b[i])\n                return 1;\n        if (a.length < b.length)\n            return -1;\n        else if (a.length > b.length)\n            return 1;\n        else\n            return 0;\n    }\n}",
  "sourcePath": "C:\\WORK\\ELYSIUM ALEX\\contracts\\NFTDetails.sol",
  "compiler": {
    "name": "solc",
    "version": "0.8.16+commit.07a7930e.Emscripten.clang"
  },
  "schemaVersion": "3.4.4",
  "updatedAt": "2022-08-26T13:42:17.977Z",
  "devdoc": {
    "kind": "dev",
    "methods": {},
    "version": 1
  },
  "userdoc": {
    "kind": "user",
    "methods": {},
    "version": 1
  }
}