{
  "contractName": "StreamList",
  "abi": [
    {
      "inputs": [
        {
          "internalType": "address",
          "name": "collectible",
          "type": "address"
        }
      ],
      "stateMutability": "nonpayable",
      "type": "constructor"
    },
    {
      "inputs": [
        {
          "internalType": "address",
          "name": "",
          "type": "address"
        },
        {
          "internalType": "uint256",
          "name": "",
          "type": "uint256"
        }
      ],
      "name": "myList",
      "outputs": [
        {
          "internalType": "uint256",
          "name": "",
          "type": "uint256"
        }
      ],
      "stateMutability": "view",
      "type": "function",
      "constant": true
    },
    {
      "inputs": [
        {
          "internalType": "address",
          "name": "",
          "type": "address"
        },
        {
          "internalType": "uint256",
          "name": "",
          "type": "uint256"
        }
      ],
      "name": "playList",
      "outputs": [
        {
          "internalType": "uint256",
          "name": "",
          "type": "uint256"
        }
      ],
      "stateMutability": "view",
      "type": "function",
      "constant": true
    },
    {
      "inputs": [
        {
          "internalType": "uint256",
          "name": "",
          "type": "uint256"
        },
        {
          "internalType": "address",
          "name": "",
          "type": "address"
        }
      ],
      "name": "subscribers",
      "outputs": [
        {
          "internalType": "bool",
          "name": "",
          "type": "bool"
        }
      ],
      "stateMutability": "view",
      "type": "function",
      "constant": true
    },
    {
      "inputs": [
        {
          "internalType": "address",
          "name": "",
          "type": "address"
        }
      ],
      "name": "user_funds",
      "outputs": [
        {
          "internalType": "uint256",
          "name": "",
          "type": "uint256"
        }
      ],
      "stateMutability": "view",
      "type": "function",
      "constant": true
    },
    {
      "inputs": [
        {
          "internalType": "address",
          "name": "",
          "type": "address"
        },
        {
          "internalType": "uint256",
          "name": "",
          "type": "uint256"
        }
      ],
      "name": "wishList",
      "outputs": [
        {
          "internalType": "uint256",
          "name": "",
          "type": "uint256"
        }
      ],
      "stateMutability": "view",
      "type": "function",
      "constant": true
    },
    {
      "inputs": [
        {
          "internalType": "uint256",
          "name": "_id",
          "type": "uint256"
        }
      ],
      "name": "playVideo",
      "outputs": [],
      "stateMutability": "payable",
      "type": "function",
      "payable": true
    },
    {
      "inputs": [
        {
          "internalType": "uint256",
          "name": "_id",
          "type": "uint256"
        }
      ],
      "name": "addToWishList",
      "outputs": [],
      "stateMutability": "nonpayable",
      "type": "function"
    },
    {
      "inputs": [
        {
          "internalType": "uint256",
          "name": "_id",
          "type": "uint256"
        }
      ],
      "name": "addToMyList",
      "outputs": [],
      "stateMutability": "nonpayable",
      "type": "function"
    },
    {
      "inputs": [
        {
          "internalType": "address",
          "name": "_address",
          "type": "address"
        }
      ],
      "name": "getWishLists",
      "outputs": [
        {
          "components": [
            {
              "internalType": "uint256",
              "name": "_id",
              "type": "uint256"
            },
            {
              "components": [
                {
                  "internalType": "string",
                  "name": "name",
                  "type": "string"
                },
                {
                  "internalType": "string",
                  "name": "description",
                  "type": "string"
                },
                {
                  "internalType": "string",
                  "name": "category",
                  "type": "string"
                },
                {
                  "internalType": "string",
                  "name": "genre",
                  "type": "string"
                },
                {
                  "internalType": "string",
                  "name": "_type",
                  "type": "string"
                },
                {
                  "internalType": "string",
                  "name": "_url",
                  "type": "string"
                },
                {
                  "internalType": "string",
                  "name": "preview",
                  "type": "string"
                },
                {
                  "internalType": "string",
                  "name": "poster",
                  "type": "string"
                },
                {
                  "internalType": "uint256",
                  "name": "_duration",
                  "type": "uint256"
                }
              ],
              "internalType": "struct DataShare.MetaData",
              "name": "metData",
              "type": "tuple"
            },
            {
              "internalType": "uint256",
              "name": "_price",
              "type": "uint256"
            },
            {
              "internalType": "address",
              "name": "_creator",
              "type": "address"
            },
            {
              "internalType": "uint256",
              "name": "_commission",
              "type": "uint256"
            },
            {
              "internalType": "bool",
              "name": "approved",
              "type": "bool"
            },
            {
              "internalType": "uint256",
              "name": "_time",
              "type": "uint256"
            }
          ],
          "internalType": "struct DataShare.Video[]",
          "name": "_list",
          "type": "tuple[]"
        }
      ],
      "stateMutability": "view",
      "type": "function",
      "constant": true
    },
    {
      "inputs": [
        {
          "internalType": "address",
          "name": "_address",
          "type": "address"
        }
      ],
      "name": "getPlayList",
      "outputs": [
        {
          "internalType": "uint256[]",
          "name": "_list",
          "type": "uint256[]"
        }
      ],
      "stateMutability": "view",
      "type": "function",
      "constant": true
    }
  ],
  "bytecode": "0x60806040523480156200001157600080fd5b506040516200212f3803806200212f83398181016040528101906200003791906200019a565b80600160006101000a81548173ffffffffffffffffffffffffffffffffffffffff021916908373ffffffffffffffffffffffffffffffffffffffff1602179055508073ffffffffffffffffffffffffffffffffffffffff16638da5cb5b6040518163ffffffff1660e01b8152600401602060405180830381865afa158015620000c4573d6000803e3d6000fd5b505050506040513d601f19601f82011682018060405250810190620000ea91906200019a565b6000806101000a81548173ffffffffffffffffffffffffffffffffffffffff021916908373ffffffffffffffffffffffffffffffffffffffff16021790555050620001cc565b600080fd5b600073ffffffffffffffffffffffffffffffffffffffff82169050919050565b6000620001628262000135565b9050919050565b620001748162000155565b81146200018057600080fd5b50565b600081519050620001948162000169565b92915050565b600060208284031215620001b357620001b262000130565b5b6000620001c38482850162000183565b91505092915050565b611f5380620001dc6000396000f3fe6080604052600436106100915760003560e01c806343448c9d1161005957806343448c9d146101c757806383d1dfdb14610204578063c485f6d01461022d578063d87ba64914610249578063f8471f0b1461028657610091565b8063057001d0146100965780630c3164b5146100d357806337040dd7146101105780633a6cb25d1461014d5780634314a1cc1461018a575b600080fd5b3480156100a257600080fd5b506100bd60048036038101906100b89190611214565b6102af565b6040516100ca9190611263565b60405180910390f35b3480156100df57600080fd5b506100fa60048036038101906100f5919061127e565b6102e0565b60405161010791906112d9565b60405180910390f35b34801561011c57600080fd5b50610137600480360381019061013291906112f4565b61030f565b6040516101449190611632565b60405180910390f35b34801561015957600080fd5b50610174600480360381019061016f91906112f4565b61061e565b6040516101819190611703565b60405180910390f35b34801561019657600080fd5b506101b160048036038101906101ac9190611214565b610752565b6040516101be9190611263565b60405180910390f35b3480156101d357600080fd5b506101ee60048036038101906101e99190611214565b610783565b6040516101fb9190611263565b60405180910390f35b34801561021057600080fd5b5061022b60048036038101906102269190611725565b6107b4565b005b61024760048036038101906102429190611725565b6108ac565b005b34801561025557600080fd5b50610270600480360381019061026b91906112f4565b610f9f565b60405161027d9190611263565b60405180910390f35b34801561029257600080fd5b506102ad60048036038101906102a89190611725565b610fb7565b005b600560205281600052604060002081815481106102cb57600080fd5b90600052602060002001600091509150505481565b60036020528160005260406000206020528060005260406000206000915091509054906101000a900460ff1681565b60606000600460008473ffffffffffffffffffffffffffffffffffffffff1673ffffffffffffffffffffffffffffffffffffffff1681526020019081526020016000208054905090508067ffffffffffffffff81111561037257610371611752565b5b6040519080825280602002602001820160405280156103ab57816020015b6103986110c5565b8152602001906001900390816103905790505b50915060005b81811015610617576000806000806000806000600160009054906101000a900473ffffffffffffffffffffffffffffffffffffffff1673ffffffffffffffffffffffffffffffffffffffff1663e6821bf5600460008e73ffffffffffffffffffffffffffffffffffffffff1673ffffffffffffffffffffffffffffffffffffffff1681526020019081526020016000208a8154811061045357610452611781565b5b90600052602060002001546040518263ffffffff1660e01b815260040161047a9190611263565b600060405180830381865afa158015610497573d6000803e3d6000fd5b505050506040513d6000823e3d601f19601f820116820180604052508101906104c09190611ac7565b9650965096509650965096509650868a89815181106104e2576104e1611781565b5b60200260200101516000018181525050858a898151811061050657610505611781565b5b602002602001015160200181905250848a898151811061052957610528611781565b5b60200260200101516040018181525050838a898151811061054d5761054c611781565b5b60200260200101516060019073ffffffffffffffffffffffffffffffffffffffff16908173ffffffffffffffffffffffffffffffffffffffff1681525050828a898151811061059f5761059e611781565b5b60200260200101516080018181525050818a89815181106105c3576105c2611781565b5b602002602001015160a0019015159081151581525050808a89815181106105ed576105ec611781565b5b602002602001015160c001818152505050505050505050808061060f90611bb4565b9150506103b1565b5050919050565b60606000600660008473ffffffffffffffffffffffffffffffffffffffff1673ffffffffffffffffffffffffffffffffffffffff1681526020019081526020016000208054905090508067ffffffffffffffff81111561068157610680611752565b5b6040519080825280602002602001820160405280156106af5781602001602082028036833780820191505090505b50915060005b8181101561074b57600660008573ffffffffffffffffffffffffffffffffffffffff1673ffffffffffffffffffffffffffffffffffffffff168152602001908152602001600020818154811061070e5761070d611781565b5b906000526020600020015483828151811061072c5761072b611781565b5b602002602001018181525050808061074390611bb4565b9150506106b5565b5050919050565b6006602052816000526040600020818154811061076e57600080fd5b90600052602060002001600091509150505481565b6004602052816000526040600020818154811061079f57600080fd5b90600052602060002001600091509150505481565b600560003373ffffffffffffffffffffffffffffffffffffffff1673ffffffffffffffffffffffffffffffffffffffff168152602001908152602001600020819080600181540180825580915050600190039060005260206000200160009091909190915055600160009054906101000a900473ffffffffffffffffffffffffffffffffffffffff1673ffffffffffffffffffffffffffffffffffffffff1663de60fa4933836040518363ffffffff1660e01b8152600401610877929190611c68565b600060405180830381600087803b15801561089157600080fd5b505af11580156108a5573d6000803e3d6000fd5b5050505050565b6000600160009054906101000a900473ffffffffffffffffffffffffffffffffffffffff1673ffffffffffffffffffffffffffffffffffffffff1663e6821bf5836040518263ffffffff1660e01b81526004016109099190611263565b600060405180830381865afa158015610926573d6000803e3d6000fd5b505050506040513d6000823e3d601f19601f8201168201806040525081019061094f9190611ac7565b50505050925050506000600160009054906101000a900473ffffffffffffffffffffffffffffffffffffffff1673ffffffffffffffffffffffffffffffffffffffff1663e6821bf5846040518263ffffffff1660e01b81526004016109b49190611263565b600060405180830381865afa1580156109d1573d6000803e3d6000fd5b505050506040513d6000823e3d601f19601f820116820180604052508101906109fa9190611ac7565b50509450505050506000610a1782846110af90919063ffffffff16565b90506000600160009054906101000a900473ffffffffffffffffffffffffffffffffffffffff1673ffffffffffffffffffffffffffffffffffffffff1663e6821bf5866040518263ffffffff1660e01b8152600401610a769190611263565b600060405180830381865afa158015610a93573d6000803e3d6000fd5b505050506040513d6000823e3d601f19601f82011682018060405250810190610abc9190611ac7565b5050509350505050833414610b06576040517f08c379a0000000000000000000000000000000000000000000000000000000008152600401610afd90611cf0565b60405180910390fd5b6003600086815260200190815260200160002060003373ffffffffffffffffffffffffffffffffffffffff1673ffffffffffffffffffffffffffffffffffffffff16815260200190815260200160002060009054906101000a900460ff161580610b9b57508073ffffffffffffffffffffffffffffffffffffffff163373ffffffffffffffffffffffffffffffffffffffff16145b80610bf1575060008054906101000a900473ffffffffffffffffffffffffffffffffffffffff1673ffffffffffffffffffffffffffffffffffffffff163373ffffffffffffffffffffffffffffffffffffffff16145b610c30576040517f08c379a0000000000000000000000000000000000000000000000000000000008152600401610c2790611d5c565b60405180910390fd5b600160009054906101000a900473ffffffffffffffffffffffffffffffffffffffff1673ffffffffffffffffffffffffffffffffffffffff166353d84e1c86336040518363ffffffff1660e01b8152600401610c8d929190611d7c565b600060405180830381600087803b158015610ca757600080fd5b505af1158015610cbb573d6000803e3d6000fd5b50505050600660003373ffffffffffffffffffffffffffffffffffffffff1673ffffffffffffffffffffffffffffffffffffffff16815260200190815260200160002085908060018154018082558091505060019003906000526020600020016000909190919091505560016003600087815260200190815260200160002060003373ffffffffffffffffffffffffffffffffffffffff1673ffffffffffffffffffffffffffffffffffffffff16815260200190815260200160002060006101000a81548160ff02191690831515021790555081600260008373ffffffffffffffffffffffffffffffffffffffff1673ffffffffffffffffffffffffffffffffffffffff1681526020019081526020016000206000828254610ddd9190611da5565b9250508190555082600260008060009054906101000a900473ffffffffffffffffffffffffffffffffffffffff1673ffffffffffffffffffffffffffffffffffffffff1673ffffffffffffffffffffffffffffffffffffffff1681526020019081526020016000206000828254610e549190611da5565b925050819055508073ffffffffffffffffffffffffffffffffffffffff166108fc839081150290604051600060405180830381858888f19350505050158015610ea1573d6000803e3d6000fd5b5060008054906101000a900473ffffffffffffffffffffffffffffffffffffffff1673ffffffffffffffffffffffffffffffffffffffff166108fc849081150290604051600060405180830381858888f19350505050158015610f08573d6000803e3d6000fd5b50600160009054906101000a900473ffffffffffffffffffffffffffffffffffffffff1673ffffffffffffffffffffffffffffffffffffffff1663de60fa4933866040518363ffffffff1660e01b8152600401610f66929190611e25565b600060405180830381600087803b158015610f8057600080fd5b505af1158015610f94573d6000803e3d6000fd5b505050505050505050565b60026020528060005260406000206000915090505481565b600460003373ffffffffffffffffffffffffffffffffffffffff1673ffffffffffffffffffffffffffffffffffffffff168152602001908152602001600020819080600181540180825580915050600190039060005260206000200160009091909190915055600160009054906101000a900473ffffffffffffffffffffffffffffffffffffffff1673ffffffffffffffffffffffffffffffffffffffff1663de60fa4933836040518363ffffffff1660e01b815260040161107a929190611ead565b600060405180830381600087803b15801561109457600080fd5b505af11580156110a8573d6000803e3d6000fd5b5050505050565b600081836110bd9190611ee9565b905092915050565b6040518060e00160405280600081526020016110df611120565b815260200160008152602001600073ffffffffffffffffffffffffffffffffffffffff16815260200160008152602001600015158152602001600081525090565b6040518061012001604052806060815260200160608152602001606081526020016060815260200160608152602001606081526020016060815260200160608152602001600081525090565b6000604051905090565b600080fd5b600080fd5b600073ffffffffffffffffffffffffffffffffffffffff82169050919050565b60006111ab82611180565b9050919050565b6111bb816111a0565b81146111c657600080fd5b50565b6000813590506111d8816111b2565b92915050565b6000819050919050565b6111f1816111de565b81146111fc57600080fd5b50565b60008135905061120e816111e8565b92915050565b6000806040838503121561122b5761122a611176565b5b6000611239858286016111c9565b925050602061124a858286016111ff565b9150509250929050565b61125d816111de565b82525050565b60006020820190506112786000830184611254565b92915050565b6000806040838503121561129557611294611176565b5b60006112a3858286016111ff565b92505060206112b4858286016111c9565b9150509250929050565b60008115159050919050565b6112d3816112be565b82525050565b60006020820190506112ee60008301846112ca565b92915050565b60006020828403121561130a57611309611176565b5b6000611318848285016111c9565b91505092915050565b600081519050919050565b600082825260208201905092915050565b6000819050602082019050919050565b611356816111de565b82525050565b600081519050919050565b600082825260208201905092915050565b60005b8381101561139657808201518184015260208101905061137b565b60008484015250505050565b6000601f19601f8301169050919050565b60006113be8261135c565b6113c88185611367565b93506113d8818560208601611378565b6113e1816113a2565b840191505092915050565b600061012083016000830151848203600086015261140a82826113b3565b9150506020830151848203602086015261142482826113b3565b9150506040830151848203604086015261143e82826113b3565b9150506060830151848203606086015261145882826113b3565b9150506080830151848203608086015261147282826113b3565b91505060a083015184820360a086015261148c82826113b3565b91505060c083015184820360c08601526114a682826113b3565b91505060e083015184820360e08601526114c082826113b3565b9150506101008301516114d761010086018261134d565b508091505092915050565b6114eb816111a0565b82525050565b6114fa816112be565b82525050565b600060e083016000830151611518600086018261134d565b506020830151848203602086015261153082826113ec565b9150506040830151611545604086018261134d565b50606083015161155860608601826114e2565b50608083015161156b608086018261134d565b5060a083015161157e60a08601826114f1565b5060c083015161159160c086018261134d565b508091505092915050565b60006115a88383611500565b905092915050565b6000602082019050919050565b60006115c882611321565b6115d2818561132c565b9350836020820285016115e48561133d565b8060005b858110156116205784840389528151611601858261159c565b945061160c836115b0565b925060208a019950506001810190506115e8565b50829750879550505050505092915050565b6000602082019050818103600083015261164c81846115bd565b905092915050565b600081519050919050565b600082825260208201905092915050565b6000819050602082019050919050565b600061168c838361134d565b60208301905092915050565b6000602082019050919050565b60006116b082611654565b6116ba818561165f565b93506116c583611670565b8060005b838110156116f65781516116dd8882611680565b97506116e883611698565b9250506001810190506116c9565b5085935050505092915050565b6000602082019050818103600083015261171d81846116a5565b905092915050565b60006020828403121561173b5761173a611176565b5b6000611749848285016111ff565b91505092915050565b7f4e487b7100000000000000000000000000000000000000000000000000000000600052604160045260246000fd5b7f4e487b7100000000000000000000000000000000000000000000000000000000600052603260045260246000fd5b6000815190506117bf816111e8565b92915050565b600080fd5b6117d3826113a2565b810181811067ffffffffffffffff821117156117f2576117f1611752565b5b80604052505050565b600061180561116c565b905061181182826117ca565b919050565b600080fd5b600080fd5b600080fd5b600067ffffffffffffffff8211156118405761183f611752565b5b611849826113a2565b9050602081019050919050565b600061186961186484611825565b6117fb565b90508281526020810184848401111561188557611884611820565b5b611890848285611378565b509392505050565b600082601f8301126118ad576118ac61181b565b5b81516118bd848260208601611856565b91505092915050565b600061012082840312156118dd576118dc6117c5565b5b6118e86101206117fb565b9050600082015167ffffffffffffffff81111561190857611907611816565b5b61191484828501611898565b600083015250602082015167ffffffffffffffff81111561193857611937611816565b5b61194484828501611898565b602083015250604082015167ffffffffffffffff81111561196857611967611816565b5b61197484828501611898565b604083015250606082015167ffffffffffffffff81111561199857611997611816565b5b6119a484828501611898565b606083015250608082015167ffffffffffffffff8111156119c8576119c7611816565b5b6119d484828501611898565b60808301525060a082015167ffffffffffffffff8111156119f8576119f7611816565b5b611a0484828501611898565b60a08301525060c082015167ffffffffffffffff811115611a2857611a27611816565b5b611a3484828501611898565b60c08301525060e082015167ffffffffffffffff811115611a5857611a57611816565b5b611a6484828501611898565b60e083015250610100611a79848285016117b0565b6101008301525092915050565b600081519050611a95816111b2565b92915050565b611aa4816112be565b8114611aaf57600080fd5b50565b600081519050611ac181611a9b565b92915050565b600080600080600080600060e0888a031215611ae657611ae5611176565b5b6000611af48a828b016117b0565b975050602088015167ffffffffffffffff811115611b1557611b1461117b565b5b611b218a828b016118c6565b9650506040611b328a828b016117b0565b9550506060611b438a828b01611a86565b9450506080611b548a828b016117b0565b93505060a0611b658a828b01611ab2565b92505060c0611b768a828b016117b0565b91505092959891949750929550565b7f4e487b7100000000000000000000000000000000000000000000000000000000600052601160045260246000fd5b6000611bbf826111de565b91507fffffffffffffffffffffffffffffffffffffffffffffffffffffffffffffffff8203611bf157611bf0611b85565b5b600182019050919050565b611c05816111a0565b82525050565b600082825260208201905092915050565b7f416464656420746f204d79204c69737400000000000000000000000000000000600082015250565b6000611c52601083611c0b565b9150611c5d82611c1c565b602082019050919050565b6000606082019050611c7d6000830185611bfc565b611c8a6020830184611254565b8181036040830152611c9b81611c45565b90509392505050565b7f4572726f72203100000000000000000000000000000000000000000000000000600082015250565b6000611cda600783611c0b565b9150611ce582611ca4565b602082019050919050565b60006020820190508181036000830152611d0981611ccd565b9050919050565b7f4572726f72203200000000000000000000000000000000000000000000000000600082015250565b6000611d46600783611c0b565b9150611d5182611d10565b602082019050919050565b60006020820190508181036000830152611d7581611d39565b9050919050565b6000604082019050611d916000830185611254565b611d9e6020830184611bfc565b9392505050565b6000611db0826111de565b9150611dbb836111de565b9250828201905080821115611dd357611dd2611b85565b5b92915050565b7f506c617920566964656f00000000000000000000000000000000000000000000600082015250565b6000611e0f600a83611c0b565b9150611e1a82611dd9565b602082019050919050565b6000606082019050611e3a6000830185611bfc565b611e476020830184611254565b8181036040830152611e5881611e02565b90509392505050565b7f416464656420746f2057697368206c6973740000000000000000000000000000600082015250565b6000611e97601283611c0b565b9150611ea282611e61565b602082019050919050565b6000606082019050611ec26000830185611bfc565b611ecf6020830184611254565b8181036040830152611ee081611e8a565b90509392505050565b6000611ef4826111de565b9150611eff836111de565b9250828203905081811115611f1757611f16611b85565b5b9291505056fea26469706673582212207bfe2954931ca9a8277acaa7c50ef96a2b2a6d64fcb065a3a73259a3719f367d64736f6c63430008110033",
  "immutableReferences": {},
  "source": "// SPDX-License-Identifier: MIT\npragma solidity >=0.4.17 <8.10.0;\n\nimport \"./DataShare.sol\";\nimport \"./Collectible.sol\";\nimport \"../client/node_modules/@openzeppelin/contracts/utils/math/SafeMath.sol\";\n\ncontract StreamList is DataShare{\n    using SafeMath for uint256;\n\n    address owner;\n    Collectible videoCollection;\n    mapping(address => uint256) public user_funds;\n    mapping(uint256 => mapping(address => bool)) public subscribers;\n    mapping(address => uint256[]) public wishList;\n    mapping(address => uint256[]) public myList;\n    mapping(address => uint256[]) public playList;\n\n    constructor(address collectible) {\n        videoCollection = Collectible(collectible);\n        owner = Collectible(collectible).owner();\n    }\n\n    function playVideo(uint256 _id) public payable {\n        (, , uint256 price, , , , ) = videoCollection.videos(_id);\n        (, , , , uint256 owner_fees, , ) = videoCollection.videos(_id);\n        uint256 creator_fees = price.sub(owner_fees);\n        (, , , address creator, , , ) = videoCollection.videos(_id);\n        require(msg.value == price, \"Error 1\");\n        require(\n            !subscribers[_id][msg.sender] ||\n                msg.sender == creator ||\n                msg.sender == owner,\n            \"Error 2\"\n        );\n        videoCollection.setSubscriber(_id, msg.sender);\n        playList[msg.sender].push(_id);\n        subscribers[_id][msg.sender] = true;\n        user_funds[creator] += creator_fees;\n        user_funds[owner] += owner_fees;\n        payable(creator).transfer(creator_fees);\n        payable(owner).transfer(owner_fees);\n        videoCollection.setActivity(msg.sender, price, \"Play Video\");\n\n    }\n\n    function addToWishList(uint256 _id) public {\n        wishList[msg.sender].push(_id);\n        videoCollection.setActivity(msg.sender, _id, \"Added to Wish list\");\n    }\n\n    function addToMyList(uint256 _id) public {\n        myList[msg.sender].push(_id);\n        videoCollection.setActivity(msg.sender, _id, \"Added to My List\");\n\n    }\n\n    function getWishLists(address _address) public view returns(Video[] memory _list){\n        uint256 length = wishList[_address].length;\n        _list = new Video[](length);\n        for (uint256 x = 0; x < length;  x++) {\n            (uint256 _id, MetaData memory metData, uint256 _price, address _creator, uint256 _commission, bool approved, uint256 _time) = videoCollection.videos(wishList[_address][x]);\n            _list[x]._id = _id;\n            _list[x].metData = metData;\n            _list[x]._price = _price;\n            _list[x]._creator = _creator;\n            _list[x]._commission = _commission;\n            _list[x].approved = approved;\n            _list[x]._time = _time;\n        }\n    }\n\n    function getPlayList(address _address) public view returns(uint256[] memory _list){\n        uint256 length = playList[_address].length;\n        _list = new uint256[](length);\n        for (uint256 i = 0; i < length; i++) {\n            _list[i] = playList[_address][i];\n        }\n    }\n}",
  "sourcePath": "/home/mhmd-saad/Downloads/Blockchain/movix/contracts/StreamList.sol",
  "compiler": {
    "name": "solc",
    "version": "0.8.17+commit.8df45f5f.Emscripten.clang"
  },
  "schemaVersion": "3.4.5",
  "updatedAt": "2023-01-03T12:46:13.684Z",
  "networkType": "ethereum",
  "devdoc": {
    "kind": "dev",
    "methods": {},
    "version": 1
  },
  "userdoc": {
    "kind": "user",
    "methods": {},
    "version": 1
  }
}