{
  "contractName": "UserInfo",
  "abi": [
    {
      "anonymous": false,
      "inputs": [
        {
          "indexed": false,
          "internalType": "address",
          "name": "_address",
          "type": "address"
        },
        {
          "indexed": false,
          "internalType": "string",
          "name": "_fullName",
          "type": "string"
        },
        {
          "indexed": false,
          "internalType": "string",
          "name": "_email",
          "type": "string"
        },
        {
          "indexed": false,
          "internalType": "string",
          "name": "_role",
          "type": "string"
        },
        {
          "indexed": false,
          "internalType": "string",
          "name": "_about",
          "type": "string"
        }
      ],
      "name": "CreateUser",
      "type": "event"
    },
    {
      "inputs": [
        {
          "internalType": "uint256",
          "name": "",
          "type": "uint256"
        }
      ],
      "name": "activities",
      "outputs": [
        {
          "internalType": "address",
          "name": "_address",
          "type": "address"
        },
        {
          "internalType": "uint256",
          "name": "_price",
          "type": "uint256"
        },
        {
          "internalType": "uint256",
          "name": "_royality",
          "type": "uint256"
        },
        {
          "internalType": "uint256",
          "name": "_commission",
          "type": "uint256"
        },
        {
          "internalType": "uint256",
          "name": "_time",
          "type": "uint256"
        },
        {
          "internalType": "string",
          "name": "_status",
          "type": "string"
        }
      ],
      "stateMutability": "view",
      "type": "function"
    },
    {
      "inputs": [],
      "name": "count",
      "outputs": [
        {
          "internalType": "uint256",
          "name": "",
          "type": "uint256"
        }
      ],
      "stateMutability": "view",
      "type": "function"
    },
    {
      "inputs": [
        {
          "internalType": "uint256",
          "name": "",
          "type": "uint256"
        }
      ],
      "name": "users",
      "outputs": [
        {
          "internalType": "address",
          "name": "_address",
          "type": "address"
        },
        {
          "internalType": "string",
          "name": "_fullName",
          "type": "string"
        },
        {
          "internalType": "string",
          "name": "_email",
          "type": "string"
        },
        {
          "internalType": "string",
          "name": "_role",
          "type": "string"
        },
        {
          "internalType": "string",
          "name": "_about",
          "type": "string"
        },
        {
          "internalType": "string",
          "name": "_facebok",
          "type": "string"
        },
        {
          "internalType": "string",
          "name": "_twitter",
          "type": "string"
        },
        {
          "internalType": "string",
          "name": "_instagram",
          "type": "string"
        },
        {
          "internalType": "string",
          "name": "_dribbble",
          "type": "string"
        },
        {
          "internalType": "string",
          "name": "_header",
          "type": "string"
        },
        {
          "internalType": "string",
          "name": "_avatar",
          "type": "string"
        }
      ],
      "stateMutability": "view",
      "type": "function"
    },
    {
      "inputs": [
        {
          "components": [
            {
              "internalType": "address",
              "name": "_address",
              "type": "address"
            },
            {
              "internalType": "string",
              "name": "_fullName",
              "type": "string"
            },
            {
              "internalType": "string",
              "name": "_email",
              "type": "string"
            },
            {
              "internalType": "string",
              "name": "_role",
              "type": "string"
            },
            {
              "internalType": "string",
              "name": "_about",
              "type": "string"
            },
            {
              "internalType": "string",
              "name": "_facebok",
              "type": "string"
            },
            {
              "internalType": "string",
              "name": "_twitter",
              "type": "string"
            },
            {
              "internalType": "string",
              "name": "_instagram",
              "type": "string"
            },
            {
              "internalType": "string",
              "name": "_dribbble",
              "type": "string"
            },
            {
              "internalType": "string",
              "name": "_header",
              "type": "string"
            },
            {
              "internalType": "string",
              "name": "_avatar",
              "type": "string"
            }
          ],
          "internalType": "struct UserInfo.User",
          "name": "_user",
          "type": "tuple"
        }
      ],
      "name": "addUser",
      "outputs": [
        {
          "internalType": "bool",
          "name": "",
          "type": "bool"
        }
      ],
      "stateMutability": "nonpayable",
      "type": "function"
    },
    {
      "inputs": [
        {
          "internalType": "address",
          "name": "_address",
          "type": "address"
        }
      ],
      "name": "getUser",
      "outputs": [
        {
          "components": [
            {
              "internalType": "address",
              "name": "_address",
              "type": "address"
            },
            {
              "internalType": "string",
              "name": "_fullName",
              "type": "string"
            },
            {
              "internalType": "string",
              "name": "_email",
              "type": "string"
            },
            {
              "internalType": "string",
              "name": "_role",
              "type": "string"
            },
            {
              "internalType": "string",
              "name": "_about",
              "type": "string"
            },
            {
              "internalType": "string",
              "name": "_facebok",
              "type": "string"
            },
            {
              "internalType": "string",
              "name": "_twitter",
              "type": "string"
            },
            {
              "internalType": "string",
              "name": "_instagram",
              "type": "string"
            },
            {
              "internalType": "string",
              "name": "_dribbble",
              "type": "string"
            },
            {
              "internalType": "string",
              "name": "_header",
              "type": "string"
            },
            {
              "internalType": "string",
              "name": "_avatar",
              "type": "string"
            }
          ],
          "internalType": "struct UserInfo.User",
          "name": "",
          "type": "tuple"
        }
      ],
      "stateMutability": "view",
      "type": "function"
    },
    {
      "inputs": [],
      "name": "getUsersList",
      "outputs": [
        {
          "components": [
            {
              "internalType": "address",
              "name": "_address",
              "type": "address"
            },
            {
              "internalType": "string",
              "name": "_fullName",
              "type": "string"
            },
            {
              "internalType": "string",
              "name": "_email",
              "type": "string"
            },
            {
              "internalType": "string",
              "name": "_role",
              "type": "string"
            },
            {
              "internalType": "string",
              "name": "_about",
              "type": "string"
            },
            {
              "internalType": "string",
              "name": "_facebok",
              "type": "string"
            },
            {
              "internalType": "string",
              "name": "_twitter",
              "type": "string"
            },
            {
              "internalType": "string",
              "name": "_instagram",
              "type": "string"
            },
            {
              "internalType": "string",
              "name": "_dribbble",
              "type": "string"
            },
            {
              "internalType": "string",
              "name": "_header",
              "type": "string"
            },
            {
              "internalType": "string",
              "name": "_avatar",
              "type": "string"
            }
          ],
          "internalType": "struct UserInfo.User[]",
          "name": "",
          "type": "tuple[]"
        }
      ],
      "stateMutability": "view",
      "type": "function"
    },
    {
      "inputs": [
        {
          "internalType": "address",
          "name": "_address",
          "type": "address"
        },
        {
          "internalType": "uint256",
          "name": "_price",
          "type": "uint256"
        },
        {
          "internalType": "uint256",
          "name": "_royality",
          "type": "uint256"
        },
        {
          "internalType": "uint256",
          "name": "_commission",
          "type": "uint256"
        },
        {
          "internalType": "string",
          "name": "_status",
          "type": "string"
        }
      ],
      "name": "setActivity",
      "outputs": [],
      "stateMutability": "nonpayable",
      "type": "function"
    },
    {
      "inputs": [],
      "name": "get_activities",
      "outputs": [
        {
          "components": [
            {
              "internalType": "address",
              "name": "_address",
              "type": "address"
            },
            {
              "internalType": "uint256",
              "name": "_price",
              "type": "uint256"
            },
            {
              "internalType": "uint256",
              "name": "_royality",
              "type": "uint256"
            },
            {
              "internalType": "uint256",
              "name": "_commission",
              "type": "uint256"
            },
            {
              "internalType": "uint256",
              "name": "_time",
              "type": "uint256"
            },
            {
              "internalType": "string",
              "name": "_status",
              "type": "string"
            }
          ],
          "internalType": "struct UserInfo.Activity[]",
          "name": "",
          "type": "tuple[]"
        }
      ],
      "stateMutability": "view",
      "type": "function"
    },
    {
      "inputs": [
        {
          "internalType": "address",
          "name": "_address",
          "type": "address"
        }
      ],
      "name": "addToWhitelist",
      "outputs": [
        {
          "internalType": "bool",
          "name": "",
          "type": "bool"
        }
      ],
      "stateMutability": "nonpayable",
      "type": "function"
    },
    {
      "inputs": [],
      "name": "getWhitelisted",
      "outputs": [
        {
          "internalType": "address[]",
          "name": "",
          "type": "address[]"
        }
      ],
      "stateMutability": "view",
      "type": "function"
    },
    {
      "inputs": [
        {
          "internalType": "address",
          "name": "_address",
          "type": "address"
        }
      ],
      "name": "removeFromWhitelist",
      "outputs": [
        {
          "internalType": "bool",
          "name": "",
          "type": "bool"
        }
      ],
      "stateMutability": "nonpayable",
      "type": "function"
    }
  ],
  "bytecode": "0x608060405234801561001057600080fd5b506133be806100206000396000f3fe608060405234801561001057600080fd5b50600436106100a95760003560e01c80639b372b2b116100715780639b372b2b1461019b578063b7c2f3a7146101b9578063c74e13f3146101d5578063d5029620146101f3578063e43252d714610223578063ea1a341514610253576100a9565b806306661abd146100ae5780630d1657e8146100cc578063365b98b2146101015780636f77926b1461013b5780638ab1d6811461016b575b600080fd5b6100b6610271565b6040516100c39190612209565b60405180910390f35b6100e660048036038101906100e19190612264565b610277565b6040516100f896959493929190612362565b60405180910390f35b61011b60048036038101906101169190612264565b61036b565b6040516101329b9a999897969594939291906123ca565b60405180910390f35b610155600480360381019061015091906124e7565b610945565b604051610162919061269b565b60405180910390f35b610185600480360381019061018091906124e7565b611035565b60405161019291906126d8565b60405180910390f35b6101a3611168565b6040516101b091906127a2565b60405180910390f35b6101d360048036038101906101ce91906128f9565b611272565b005b6101dd611374565b6040516101ea9190612b80565b60405180910390f35b61020d60048036038101906102089190612dd0565b611a55565b60405161021a91906126d8565b60405180910390f35b61023d600480360381019061023891906124e7565b611e9d565b60405161024a91906126d8565b60405180910390f35b61025b611f4e565b6040516102689190612f73565b60405180910390f35b60025481565b6003818154811061028757600080fd5b90600052602060002090600602016000915090508060000160009054906101000a900473ffffffffffffffffffffffffffffffffffffffff16908060010154908060020154908060030154908060040154908060050180546102e890612fc4565b80601f016020809104026020016040519081016040528092919081815260200182805461031490612fc4565b80156103615780601f1061033657610100808354040283529160200191610361565b820191906000526020600020905b81548152906001019060200180831161034457829003601f168201915b5050505050905086565b6001818154811061037b57600080fd5b90600052602060002090600b02016000915090508060000160009054906101000a900473ffffffffffffffffffffffffffffffffffffffff16908060010180546103c490612fc4565b80601f01602080910402602001604051908101604052809291908181526020018280546103f090612fc4565b801561043d5780601f106104125761010080835404028352916020019161043d565b820191906000526020600020905b81548152906001019060200180831161042057829003601f168201915b50505050509080600201805461045290612fc4565b80601f016020809104026020016040519081016040528092919081815260200182805461047e90612fc4565b80156104cb5780601f106104a0576101008083540402835291602001916104cb565b820191906000526020600020905b8154815290600101906020018083116104ae57829003601f168201915b5050505050908060030180546104e090612fc4565b80601f016020809104026020016040519081016040528092919081815260200182805461050c90612fc4565b80156105595780601f1061052e57610100808354040283529160200191610559565b820191906000526020600020905b81548152906001019060200180831161053c57829003601f168201915b50505050509080600401805461056e90612fc4565b80601f016020809104026020016040519081016040528092919081815260200182805461059a90612fc4565b80156105e75780601f106105bc576101008083540402835291602001916105e7565b820191906000526020600020905b8154815290600101906020018083116105ca57829003601f168201915b5050505050908060050180546105fc90612fc4565b80601f016020809104026020016040519081016040528092919081815260200182805461062890612fc4565b80156106755780601f1061064a57610100808354040283529160200191610675565b820191906000526020600020905b81548152906001019060200180831161065857829003601f168201915b50505050509080600601805461068a90612fc4565b80601f01602080910402602001604051908101604052809291908181526020018280546106b690612fc4565b80156107035780601f106106d857610100808354040283529160200191610703565b820191906000526020600020905b8154815290600101906020018083116106e657829003601f168201915b50505050509080600701805461071890612fc4565b80601f016020809104026020016040519081016040528092919081815260200182805461074490612fc4565b80156107915780601f1061076657610100808354040283529160200191610791565b820191906000526020600020905b81548152906001019060200180831161077457829003601f168201915b5050505050908060080180546107a690612fc4565b80601f01602080910402602001604051908101604052809291908181526020018280546107d290612fc4565b801561081f5780601f106107f45761010080835404028352916020019161081f565b820191906000526020600020905b81548152906001019060200180831161080257829003601f168201915b50505050509080600901805461083490612fc4565b80601f016020809104026020016040519081016040528092919081815260200182805461086090612fc4565b80156108ad5780601f10610882576101008083540402835291602001916108ad565b820191906000526020600020905b81548152906001019060200180831161089057829003601f168201915b50505050509080600a0180546108c290612fc4565b80601f01602080910402602001604051908101604052809291908181526020018280546108ee90612fc4565b801561093b5780601f106109105761010080835404028352916020019161093b565b820191906000526020600020905b81548152906001019060200180831161091e57829003601f168201915b505050505090508b565b61094d612134565b610955612134565b60005b60018054905081101561102b578373ffffffffffffffffffffffffffffffffffffffff16600182815481106109905761098f612ff5565b5b90600052602060002090600b020160000160009054906101000a900473ffffffffffffffffffffffffffffffffffffffff1673ffffffffffffffffffffffffffffffffffffffff160361101857600181815481106109f1576109f0612ff5565b5b90600052602060002090600b0201604051806101600160405290816000820160009054906101000a900473ffffffffffffffffffffffffffffffffffffffff1673ffffffffffffffffffffffffffffffffffffffff1673ffffffffffffffffffffffffffffffffffffffff168152602001600182018054610a7190612fc4565b80601f0160208091040260200160405190810160405280929190818152602001828054610a9d90612fc4565b8015610aea5780601f10610abf57610100808354040283529160200191610aea565b820191906000526020600020905b815481529060010190602001808311610acd57829003601f168201915b50505050508152602001600282018054610b0390612fc4565b80601f0160208091040260200160405190810160405280929190818152602001828054610b2f90612fc4565b8015610b7c5780601f10610b5157610100808354040283529160200191610b7c565b820191906000526020600020905b815481529060010190602001808311610b5f57829003601f168201915b50505050508152602001600382018054610b9590612fc4565b80601f0160208091040260200160405190810160405280929190818152602001828054610bc190612fc4565b8015610c0e5780601f10610be357610100808354040283529160200191610c0e565b820191906000526020600020905b815481529060010190602001808311610bf157829003601f168201915b50505050508152602001600482018054610c2790612fc4565b80601f0160208091040260200160405190810160405280929190818152602001828054610c5390612fc4565b8015610ca05780601f10610c7557610100808354040283529160200191610ca0565b820191906000526020600020905b815481529060010190602001808311610c8357829003601f168201915b50505050508152602001600582018054610cb990612fc4565b80601f0160208091040260200160405190810160405280929190818152602001828054610ce590612fc4565b8015610d325780601f10610d0757610100808354040283529160200191610d32565b820191906000526020600020905b815481529060010190602001808311610d1557829003601f168201915b50505050508152602001600682018054610d4b90612fc4565b80601f0160208091040260200160405190810160405280929190818152602001828054610d7790612fc4565b8015610dc45780601f10610d9957610100808354040283529160200191610dc4565b820191906000526020600020905b815481529060010190602001808311610da757829003601f168201915b50505050508152602001600782018054610ddd90612fc4565b80601f0160208091040260200160405190810160405280929190818152602001828054610e0990612fc4565b8015610e565780601f10610e2b57610100808354040283529160200191610e56565b820191906000526020600020905b815481529060010190602001808311610e3957829003601f168201915b50505050508152602001600882018054610e6f90612fc4565b80601f0160208091040260200160405190810160405280929190818152602001828054610e9b90612fc4565b8015610ee85780601f10610ebd57610100808354040283529160200191610ee8565b820191906000526020600020905b815481529060010190602001808311610ecb57829003601f168201915b50505050508152602001600982018054610f0190612fc4565b80601f0160208091040260200160405190810160405280929190818152602001828054610f2d90612fc4565b8015610f7a5780601f10610f4f57610100808354040283529160200191610f7a565b820191906000526020600020905b815481529060010190602001808311610f5d57829003601f168201915b50505050508152602001600a82018054610f9390612fc4565b80601f0160208091040260200160405190810160405280929190818152602001828054610fbf90612fc4565b801561100c5780601f10610fe15761010080835404028352916020019161100c565b820191906000526020600020905b815481529060010190602001808311610fef57829003601f168201915b50505050508152505091505b808061102390613053565b915050610958565b5080915050919050565b600080600090505b60008054905081101561115d578273ffffffffffffffffffffffffffffffffffffffff166000828154811061107557611074612ff5565b5b9060005260206000200160009054906101000a900473ffffffffffffffffffffffffffffffffffffffff1673ffffffffffffffffffffffffffffffffffffffff160361114a57600081815481106110cf576110ce612ff5565b5b9060005260206000200160006101000a81549073ffffffffffffffffffffffffffffffffffffffff02191690556111403360008060006040518060400160405280601681526020017f52656d6f7665642066726f6d2057686974656c69737400000000000000000000815250611272565b6001915050611163565b808061115590613053565b91505061103d565b50600090505b919050565b60606000808054905067ffffffffffffffff81111561118a576111896127ce565b5b6040519080825280602002602001820160405280156111b85781602001602082028036833780820191505090505b50905060005b60008054905081101561126a57600081815481106111df576111de612ff5565b5b9060005260206000200160009054906101000a900473ffffffffffffffffffffffffffffffffffffffff1682828151811061121d5761121c612ff5565b5b602002602001019073ffffffffffffffffffffffffffffffffffffffff16908173ffffffffffffffffffffffffffffffffffffffff1681525050808061126290613053565b9150506111be565b508091505090565b60006040518060c001604052808773ffffffffffffffffffffffffffffffffffffffff168152602001868152602001858152602001848152602001428152602001838152509050600381908060018154018082558091505060019003906000526020600020906006020160009091909190915060008201518160000160006101000a81548173ffffffffffffffffffffffffffffffffffffffff021916908373ffffffffffffffffffffffffffffffffffffffff1602179055506020820151816001015560408201518160020155606082015181600301556080820151816004015560a08201518160050190816113699190613247565b505050505050505050565b60606000600180549050905060008167ffffffffffffffff81111561139c5761139b6127ce565b5b6040519080825280602002602001820160405280156113d557816020015b6113c2612134565b8152602001906001900390816113ba5790505b50905060005b82811015611a4c57600181815481106113f7576113f6612ff5565b5b90600052602060002090600b0201604051806101600160405290816000820160009054906101000a900473ffffffffffffffffffffffffffffffffffffffff1673ffffffffffffffffffffffffffffffffffffffff1673ffffffffffffffffffffffffffffffffffffffff16815260200160018201805461147790612fc4565b80601f01602080910402602001604051908101604052809291908181526020018280546114a390612fc4565b80156114f05780601f106114c5576101008083540402835291602001916114f0565b820191906000526020600020905b8154815290600101906020018083116114d357829003601f168201915b5050505050815260200160028201805461150990612fc4565b80601f016020809104026020016040519081016040528092919081815260200182805461153590612fc4565b80156115825780601f1061155757610100808354040283529160200191611582565b820191906000526020600020905b81548152906001019060200180831161156557829003601f168201915b5050505050815260200160038201805461159b90612fc4565b80601f01602080910402602001604051908101604052809291908181526020018280546115c790612fc4565b80156116145780601f106115e957610100808354040283529160200191611614565b820191906000526020600020905b8154815290600101906020018083116115f757829003601f168201915b5050505050815260200160048201805461162d90612fc4565b80601f016020809104026020016040519081016040528092919081815260200182805461165990612fc4565b80156116a65780601f1061167b576101008083540402835291602001916116a6565b820191906000526020600020905b81548152906001019060200180831161168957829003601f168201915b505050505081526020016005820180546116bf90612fc4565b80601f01602080910402602001604051908101604052809291908181526020018280546116eb90612fc4565b80156117385780601f1061170d57610100808354040283529160200191611738565b820191906000526020600020905b81548152906001019060200180831161171b57829003601f168201915b5050505050815260200160068201805461175190612fc4565b80601f016020809104026020016040519081016040528092919081815260200182805461177d90612fc4565b80156117ca5780601f1061179f576101008083540402835291602001916117ca565b820191906000526020600020905b8154815290600101906020018083116117ad57829003601f168201915b505050505081526020016007820180546117e390612fc4565b80601f016020809104026020016040519081016040528092919081815260200182805461180f90612fc4565b801561185c5780601f106118315761010080835404028352916020019161185c565b820191906000526020600020905b81548152906001019060200180831161183f57829003601f168201915b5050505050815260200160088201805461187590612fc4565b80601f01602080910402602001604051908101604052809291908181526020018280546118a190612fc4565b80156118ee5780601f106118c3576101008083540402835291602001916118ee565b820191906000526020600020905b8154815290600101906020018083116118d157829003601f168201915b5050505050815260200160098201805461190790612fc4565b80601f016020809104026020016040519081016040528092919081815260200182805461193390612fc4565b80156119805780601f1061195557610100808354040283529160200191611980565b820191906000526020600020905b81548152906001019060200180831161196357829003601f168201915b50505050508152602001600a8201805461199990612fc4565b80601f01602080910402602001604051908101604052809291908181526020018280546119c590612fc4565b8015611a125780601f106119e757610100808354040283529160200191611a12565b820191906000526020600020905b8154815290600101906020018083116119f557829003601f168201915b505050505081525050828281518110611a2e57611a2d612ff5565b5b60200260200101819052508080611a4490613053565b9150506113db565b50809250505090565b600080600090505b600180549050811015611c8f5760018181548110611a7e57611a7d612ff5565b5b90600052602060002090600b020160000160009054906101000a900473ffffffffffffffffffffffffffffffffffffffff1673ffffffffffffffffffffffffffffffffffffffff163373ffffffffffffffffffffffffffffffffffffffff1603611c7c57611b263360008060006040518060400160405280600b81526020017f5570646174652055736572000000000000000000000000000000000000000000815250611272565b8260018281548110611b3b57611b3a612ff5565b5b90600052602060002090600b020160008201518160000160006101000a81548173ffffffffffffffffffffffffffffffffffffffff021916908373ffffffffffffffffffffffffffffffffffffffff1602179055506020820151816001019081611ba59190613247565b506040820151816002019081611bbb9190613247565b506060820151816003019081611bd19190613247565b506080820151816004019081611be79190613247565b5060a0820151816005019081611bfd9190613247565b5060c0820151816006019081611c139190613247565b5060e0820151816007019081611c299190613247565b50610100820151816008019081611c409190613247565b50610120820151816009019081611c579190613247565b5061014082015181600a019081611c6e9190613247565b509050506001915050611e98565b8080611c8790613053565b915050611a5d565b5060018290806001815401808255809150506001900390600052602060002090600b020160009091909190915060008201518160000160006101000a81548173ffffffffffffffffffffffffffffffffffffffff021916908373ffffffffffffffffffffffffffffffffffffffff1602179055506020820151816001019081611d189190613247565b506040820151816002019081611d2e9190613247565b506060820151816003019081611d449190613247565b506080820151816004019081611d5a9190613247565b5060a0820151816005019081611d709190613247565b5060c0820151816006019081611d869190613247565b5060e0820151816007019081611d9c9190613247565b50610100820151816008019081611db39190613247565b50610120820151816009019081611dca9190613247565b5061014082015181600a019081611de19190613247565b50505060026000815480929190611df790613053565b9190505550611e403360008060006040518060400160405280600881526020017f4164642055736572000000000000000000000000000000000000000000000000815250611272565b7f86e07ffc257db1f79f60f3c39f1f4823f9ce376da0c80a14b8e24a7aefb857e982600001518360200151846040015185606001518660800151604051611e8b959493929190613319565b60405180910390a1600190505b919050565b600080829080600181540180825580915050600190039060005260206000200160009091909190916101000a81548173ffffffffffffffffffffffffffffffffffffffff021916908373ffffffffffffffffffffffffffffffffffffffff160217905550611f453360008060006040518060400160405280601281526020017f416464656420746f2057686974656c6973740000000000000000000000000000815250611272565b60019050919050565b60606000600380549050905060008167ffffffffffffffff811115611f7657611f756127ce565b5b604051908082528060200260200182016040528015611faf57816020015b611f9c6121a4565b815260200190600190039081611f945790505b50905060005b8281101561212b5760038181548110611fd157611fd0612ff5565b5b90600052602060002090600602016040518060c00160405290816000820160009054906101000a900473ffffffffffffffffffffffffffffffffffffffff1673ffffffffffffffffffffffffffffffffffffffff1673ffffffffffffffffffffffffffffffffffffffff1681526020016001820154815260200160028201548152602001600382015481526020016004820154815260200160058201805461207890612fc4565b80601f01602080910402602001604051908101604052809291908181526020018280546120a490612fc4565b80156120f15780601f106120c6576101008083540402835291602001916120f1565b820191906000526020600020905b8154815290600101906020018083116120d457829003601f168201915b50505050508152505082828151811061210d5761210c612ff5565b5b6020026020010181905250808061212390613053565b915050611fb5565b50809250505090565b604051806101600160405280600073ffffffffffffffffffffffffffffffffffffffff168152602001606081526020016060815260200160608152602001606081526020016060815260200160608152602001606081526020016060815260200160608152602001606081525090565b6040518060c00160405280600073ffffffffffffffffffffffffffffffffffffffff16815260200160008152602001600081526020016000815260200160008152602001606081525090565b6000819050919050565b612203816121f0565b82525050565b600060208201905061221e60008301846121fa565b92915050565b6000604051905090565b600080fd5b600080fd5b612241816121f0565b811461224c57600080fd5b50565b60008135905061225e81612238565b92915050565b60006020828403121561227a5761227961222e565b5b60006122888482850161224f565b91505092915050565b600073ffffffffffffffffffffffffffffffffffffffff82169050919050565b60006122bc82612291565b9050919050565b6122cc816122b1565b82525050565b600081519050919050565b600082825260208201905092915050565b60005b8381101561230c5780820151818401526020810190506122f1565b60008484015250505050565b6000601f19601f8301169050919050565b6000612334826122d2565b61233e81856122dd565b935061234e8185602086016122ee565b61235781612318565b840191505092915050565b600060c08201905061237760008301896122c3565b61238460208301886121fa565b61239160408301876121fa565b61239e60608301866121fa565b6123ab60808301856121fa565b81810360a08301526123bd8184612329565b9050979650505050505050565b6000610160820190506123e0600083018e6122c3565b81810360208301526123f2818d612329565b90508181036040830152612406818c612329565b9050818103606083015261241a818b612329565b9050818103608083015261242e818a612329565b905081810360a08301526124428189612329565b905081810360c08301526124568188612329565b905081810360e083015261246a8187612329565b905081810361010083015261247f8186612329565b90508181036101208301526124948185612329565b90508181036101408301526124a98184612329565b90509c9b505050505050505050505050565b6124c4816122b1565b81146124cf57600080fd5b50565b6000813590506124e1816124bb565b92915050565b6000602082840312156124fd576124fc61222e565b5b600061250b848285016124d2565b91505092915050565b61251d816122b1565b82525050565b600082825260208201905092915050565b600061253f826122d2565b6125498185612523565b93506125598185602086016122ee565b61256281612318565b840191505092915050565b6000610160830160008301516125866000860182612514565b506020830151848203602086015261259e8282612534565b915050604083015184820360408601526125b88282612534565b915050606083015184820360608601526125d28282612534565b915050608083015184820360808601526125ec8282612534565b91505060a083015184820360a08601526126068282612534565b91505060c083015184820360c08601526126208282612534565b91505060e083015184820360e086015261263a8282612534565b9150506101008301518482036101008601526126568282612534565b9150506101208301518482036101208601526126728282612534565b91505061014083015184820361014086015261268e8282612534565b9150508091505092915050565b600060208201905081810360008301526126b5818461256d565b905092915050565b60008115159050919050565b6126d2816126bd565b82525050565b60006020820190506126ed60008301846126c9565b92915050565b600081519050919050565b600082825260208201905092915050565b6000819050602082019050919050565b600061272b8383612514565b60208301905092915050565b6000602082019050919050565b600061274f826126f3565b61275981856126fe565b93506127648361270f565b8060005b8381101561279557815161277c888261271f565b975061278783612737565b925050600181019050612768565b5085935050505092915050565b600060208201905081810360008301526127bc8184612744565b905092915050565b600080fd5b600080fd5b7f4e487b7100000000000000000000000000000000000000000000000000000000600052604160045260246000fd5b61280682612318565b810181811067ffffffffffffffff82111715612825576128246127ce565b5b80604052505050565b6000612838612224565b905061284482826127fd565b919050565b600067ffffffffffffffff821115612864576128636127ce565b5b61286d82612318565b9050602081019050919050565b82818337600083830152505050565b600061289c61289784612849565b61282e565b9050828152602081018484840111156128b8576128b76127c9565b5b6128c384828561287a565b509392505050565b600082601f8301126128e0576128df6127c4565b5b81356128f0848260208601612889565b91505092915050565b600080600080600060a086880312156129155761291461222e565b5b6000612923888289016124d2565b95505060206129348882890161224f565b94505060406129458882890161224f565b93505060606129568882890161224f565b925050608086013567ffffffffffffffff81111561297757612976612233565b5b612983888289016128cb565b9150509295509295909350565b600081519050919050565b600082825260208201905092915050565b6000819050602082019050919050565b6000610160830160008301516129d56000860182612514565b50602083015184820360208601526129ed8282612534565b91505060408301518482036040860152612a078282612534565b91505060608301518482036060860152612a218282612534565b91505060808301518482036080860152612a3b8282612534565b91505060a083015184820360a0860152612a558282612534565b91505060c083015184820360c0860152612a6f8282612534565b91505060e083015184820360e0860152612a898282612534565b915050610100830151848203610100860152612aa58282612534565b915050610120830151848203610120860152612ac18282612534565b915050610140830151848203610140860152612add8282612534565b9150508091505092915050565b6000612af683836129bc565b905092915050565b6000602082019050919050565b6000612b1682612990565b612b20818561299b565b935083602082028501612b32856129ac565b8060005b85811015612b6e5784840389528151612b4f8582612aea565b9450612b5a83612afe565b925060208a01995050600181019050612b36565b50829750879550505050505092915050565b60006020820190508181036000830152612b9a8184612b0b565b905092915050565b600080fd5b600080fd5b60006101608284031215612bc357612bc2612ba2565b5b612bce61016061282e565b90506000612bde848285016124d2565b600083015250602082013567ffffffffffffffff811115612c0257612c01612ba7565b5b612c0e848285016128cb565b602083015250604082013567ffffffffffffffff811115612c3257612c31612ba7565b5b612c3e848285016128cb565b604083015250606082013567ffffffffffffffff811115612c6257612c61612ba7565b5b612c6e848285016128cb565b606083015250608082013567ffffffffffffffff811115612c9257612c91612ba7565b5b612c9e848285016128cb565b60808301525060a082013567ffffffffffffffff811115612cc257612cc1612ba7565b5b612cce848285016128cb565b60a08301525060c082013567ffffffffffffffff811115612cf257612cf1612ba7565b5b612cfe848285016128cb565b60c08301525060e082013567ffffffffffffffff811115612d2257612d21612ba7565b5b612d2e848285016128cb565b60e08301525061010082013567ffffffffffffffff811115612d5357612d52612ba7565b5b612d5f848285016128cb565b6101008301525061012082013567ffffffffffffffff811115612d8557612d84612ba7565b5b612d91848285016128cb565b6101208301525061014082013567ffffffffffffffff811115612db757612db6612ba7565b5b612dc3848285016128cb565b6101408301525092915050565b600060208284031215612de657612de561222e565b5b600082013567ffffffffffffffff811115612e0457612e03612233565b5b612e1084828501612bac565b91505092915050565b600081519050919050565b600082825260208201905092915050565b6000819050602082019050919050565b612e4e816121f0565b82525050565b600060c083016000830151612e6c6000860182612514565b506020830151612e7f6020860182612e45565b506040830151612e926040860182612e45565b506060830151612ea56060860182612e45565b506080830151612eb86080860182612e45565b5060a083015184820360a0860152612ed08282612534565b9150508091505092915050565b6000612ee98383612e54565b905092915050565b6000602082019050919050565b6000612f0982612e19565b612f138185612e24565b935083602082028501612f2585612e35565b8060005b85811015612f615784840389528151612f428582612edd565b9450612f4d83612ef1565b925060208a01995050600181019050612f29565b50829750879550505050505092915050565b60006020820190508181036000830152612f8d8184612efe565b905092915050565b7f4e487b7100000000000000000000000000000000000000000000000000000000600052602260045260246000fd5b60006002820490506001821680612fdc57607f821691505b602082108103612fef57612fee612f95565b5b50919050565b7f4e487b7100000000000000000000000000000000000000000000000000000000600052603260045260246000fd5b7f4e487b7100000000000000000000000000000000000000000000000000000000600052601160045260246000fd5b600061305e826121f0565b91507fffffffffffffffffffffffffffffffffffffffffffffffffffffffffffffffff82036130905761308f613024565b5b600182019050919050565b60008190508160005260206000209050919050565b60006020601f8301049050919050565b600082821b905092915050565b6000600883026130fd7fffffffffffffffffffffffffffffffffffffffffffffffffffffffffffffffff826130c0565b61310786836130c0565b95508019841693508086168417925050509392505050565b6000819050919050565b600061314461313f61313a846121f0565b61311f565b6121f0565b9050919050565b6000819050919050565b61315e83613129565b61317261316a8261314b565b8484546130cd565b825550505050565b600090565b61318761317a565b613192818484613155565b505050565b5b818110156131b6576131ab60008261317f565b600181019050613198565b5050565b601f8211156131fb576131cc8161309b565b6131d5846130b0565b810160208510156131e4578190505b6131f86131f0856130b0565b830182613197565b50505b505050565b600082821c905092915050565b600061321e60001984600802613200565b1980831691505092915050565b6000613237838361320d565b9150826002028217905092915050565b613250826122d2565b67ffffffffffffffff811115613269576132686127ce565b5b6132738254612fc4565b61327e8282856131ba565b600060209050601f8311600181146132b1576000841561329f578287015190505b6132a9858261322b565b865550613311565b601f1984166132bf8661309b565b60005b828110156132e7578489015182556001820191506020850194506020810190506132c2565b868310156133045784890151613300601f89168261320d565b8355505b6001600288020188555050505b505050505050565b600060a08201905061332e60008301886122c3565b81810360208301526133408187612329565b905081810360408301526133548186612329565b905081810360608301526133688185612329565b9050818103608083015261337c8184612329565b9050969550505050505056fea264697066735822122012d857b8d39aebc7747bdbe0b6caf3650765d81dc145f50e2a5e5ecc4548fa5964736f6c63430008100033",
  "immutableReferences": {},
  "source": "// SPDX-License-Identifier: MIT\npragma solidity >=0.4.17 <8.10.0;\n\ncontract UserInfo{\n\n    struct User{\n        address _address;\n        string _fullName;\n        string _email;\n        string _role;\n        string _about;\n        string _facebok;\n        string _twitter;\n        string _instagram;\n        string _dribbble;\n        string _header;\n        string _avatar;\n    }\n    struct Activity{\n      address _address;\n      uint256 _price;\n      uint256 _royality;\n      uint256 _commission;\n      uint256 _time;\n      string _status;\n    }\n    address[] whitelist;\n    User[] public users;\n    uint256 public count;\n    Activity[] public activities;\n    event CreateUser(address _address, string _fullName, string _email, string _role, string _about);\n\n    /*====================================================================================\n                                User Methods\n    ====================================================================================*/ \n    function addUser(User memory _user) public returns(bool){\n        for (uint256 index = 0; index < users.length; index++) {\n            if (msg.sender == users[index]._address) {\n                setActivity(msg.sender, 0, 0, 0, \"Update User\");\n                users[index] = _user;\n                return true;\n            }  \n        }\n        users.push(_user);\n        count++;\n        setActivity(msg.sender, 0, 0, 0, \"Add User\");\n        emit CreateUser(_user._address, _user._fullName, _user._email, _user._role, _user._about);\n        return true;\n    }\n\n    function getUser(address _address) public view returns(User memory){\n        User memory _user;\n        for (uint256 i = 0; i < users.length; i++) {\n            if (users[i]._address == _address) { _user = users[i];}  \n        }\n        return _user;\n    }\n\n    function getUsersList() public view returns(User[] memory){\n        uint256 _length = users.length;\n        User[] memory _users = new User[](_length); \n        for(uint256 i = 0; i < _length; i++){\n            _users[i] = users[i];\n        }\n        return _users;\n    }\n\n    function setActivity(address _address, uint _price, uint _royality, uint _commission, string memory _status) public{\n     Activity memory _activity = Activity(_address, _price, _royality, _commission, block.timestamp, _status);\n     activities.push(_activity);\n   }\n   function get_activities() public view returns(Activity[] memory){\n        uint256 length = activities.length;\n        Activity[] memory _activities = new Activity[](length);\n        for (uint256 i = 0; i < length; i++) {\n        _activities[i] = activities[i];\n        }\n        return _activities;\n    }\n    /*====================================================================================\n                                Whitelist Methods\n    ====================================================================================*/ \n    function addToWhitelist(address _address) public returns(bool){\n        whitelist.push(_address);\n        setActivity(msg.sender, 0, 0, 0, \"Added to Whitelist\");\n        return true;\n    }\n    \n    function getWhitelisted() public view returns(address[] memory){\n        address[] memory _whitelist = new address[] (whitelist.length);\n        for(uint256 i = 0; i < whitelist.length; i++){\n            _whitelist[i] = whitelist[i];\n        }\n        return _whitelist;\n    }\n\n    function removeFromWhitelist(address _address) public returns(bool){\n        for (uint256 index = 0; index < whitelist.length; index++) {\n            if (whitelist[index] == _address) {\n                delete whitelist[index];\n                setActivity(msg.sender, 0, 0, 0, \"Removed from Whitelist\");\n                return true;\n            }\n        }\n        return false;\n    }\n}",
  "sourcePath": "C:\\WORK\\ELYSIUM ALEX\\contracts\\UserInfo.sol",
  "compiler": {
    "name": "solc",
    "version": "0.8.16+commit.07a7930e.Emscripten.clang"
  },
  "schemaVersion": "3.4.4",
  "updatedAt": "2022-08-26T13:42:18.035Z",
  "devdoc": {
    "kind": "dev",
    "methods": {},
    "version": 1
  },
  "userdoc": {
    "kind": "user",
    "methods": {},
    "version": 1
  }
}